{
	"contracts/Delegation.sol": {
		"Hack": {
			"abi": [
				{
					"inputs": [
						{
							"internalType": "address",
							"name": "_hackAddr",
							"type": "address"
						}
					],
					"stateMutability": "nonpayable",
					"type": "constructor"
				},
				{
					"stateMutability": "nonpayable",
					"type": "fallback"
				},
				{
					"inputs": [],
					"name": "delegate",
					"outputs": [
						{
							"internalType": "contract Delegate",
							"name": "",
							"type": "address"
						}
					],
					"stateMutability": "view",
					"type": "function"
				},
				{
					"inputs": [],
					"name": "delegation",
					"outputs": [
						{
							"internalType": "contract Delegation",
							"name": "",
							"type": "address"
						}
					],
					"stateMutability": "view",
					"type": "function"
				},
				{
					"inputs": [],
					"name": "owner",
					"outputs": [
						{
							"internalType": "address",
							"name": "",
							"type": "address"
						}
					],
					"stateMutability": "view",
					"type": "function"
				}
			],
			"devdoc": {
				"kind": "dev",
				"methods": {},
				"version": 1
			},
			"evm": {
				"assembly": "    /* \"contracts/Delegation.sol\":57:431  contract Hack {... */\n  mstore(0x40, 0x80)\n    /* \"contracts/Delegation.sol\":169:276  constructor (address _hackAddr) {... */\n  callvalue\n  dup1\n  iszero\n  tag_1\n  jumpi\n  revert(0x00, 0x00)\ntag_1:\n  pop\n  mload(0x40)\n  sub(codesize, bytecodeSize)\n  dup1\n  bytecodeSize\n  dup4\n  codecopy\n  dup2\n  dup2\n  add\n  0x40\n  mstore\n  dup2\n  add\n  swap1\n  tag_2\n  swap2\n  swap1\n  tag_3\n  jump\t// in\ntag_2:\n    /* \"contracts/Delegation.sol\":231:240  _hackAddr */\n  dup1\n    /* \"contracts/Delegation.sol\":211:219  delegate */\n  0x01\n  0x00\n    /* \"contracts/Delegation.sol\":211:241  delegate = Delegate(_hackAddr) */\n  0x0100\n  exp\n  dup2\n  sload\n  dup2\n  0xffffffffffffffffffffffffffffffffffffffff\n  mul\n  not\n  and\n  swap1\n  dup4\n  0xffffffffffffffffffffffffffffffffffffffff\n  and\n  mul\n  or\n  swap1\n  sstore\n  pop\n    /* \"contracts/Delegation.sol\":259:269  msg.sender */\n  caller\n    /* \"contracts/Delegation.sol\":251:256  owner */\n  0x02\n  0x00\n    /* \"contracts/Delegation.sol\":251:269  owner = msg.sender */\n  0x0100\n  exp\n  dup2\n  sload\n  dup2\n  0xffffffffffffffffffffffffffffffffffffffff\n  mul\n  not\n  and\n  swap1\n  dup4\n  0xffffffffffffffffffffffffffffffffffffffff\n  and\n  mul\n  or\n  swap1\n  sstore\n  pop\n    /* \"contracts/Delegation.sol\":169:276  constructor (address _hackAddr) {... */\n  pop\n    /* \"contracts/Delegation.sol\":57:431  contract Hack {... */\n  jump(tag_6)\n    /* \"#utility.yul\":88:205   */\ntag_8:\n    /* \"#utility.yul\":197:198   */\n  0x00\n    /* \"#utility.yul\":194:195   */\n  0x00\n    /* \"#utility.yul\":187:199   */\n  revert\n    /* \"#utility.yul\":334:460   */\ntag_10:\n    /* \"#utility.yul\":371:378   */\n  0x00\n    /* \"#utility.yul\":411:453   */\n  0xffffffffffffffffffffffffffffffffffffffff\n    /* \"#utility.yul\":404:409   */\n  dup3\n    /* \"#utility.yul\":400:454   */\n  and\n    /* \"#utility.yul\":389:454   */\n  swap1\n  pop\n    /* \"#utility.yul\":334:460   */\n  swap2\n  swap1\n  pop\n  jump\t// out\n    /* \"#utility.yul\":466:562   */\ntag_11:\n    /* \"#utility.yul\":503:510   */\n  0x00\n    /* \"#utility.yul\":532:556   */\n  tag_20\n    /* \"#utility.yul\":550:555   */\n  dup3\n    /* \"#utility.yul\":532:556   */\n  tag_10\n  jump\t// in\ntag_20:\n    /* \"#utility.yul\":521:556   */\n  swap1\n  pop\n    /* \"#utility.yul\":466:562   */\n  swap2\n  swap1\n  pop\n  jump\t// out\n    /* \"#utility.yul\":568:690   */\ntag_12:\n    /* \"#utility.yul\":641:665   */\n  tag_22\n    /* \"#utility.yul\":659:664   */\n  dup2\n    /* \"#utility.yul\":641:665   */\n  tag_11\n  jump\t// in\ntag_22:\n    /* \"#utility.yul\":634:639   */\n  dup2\n    /* \"#utility.yul\":631:666   */\n  eq\n    /* \"#utility.yul\":621:684   */\n  tag_23\n  jumpi\n    /* \"#utility.yul\":680:681   */\n  0x00\n    /* \"#utility.yul\":677:678   */\n  0x00\n    /* \"#utility.yul\":670:682   */\n  revert\n    /* \"#utility.yul\":621:684   */\ntag_23:\n    /* \"#utility.yul\":568:690   */\n  pop\n  jump\t// out\n    /* \"#utility.yul\":696:839   */\ntag_13:\n    /* \"#utility.yul\":753:758   */\n  0x00\n    /* \"#utility.yul\":784:790   */\n  dup2\n    /* \"#utility.yul\":778:791   */\n  mload\n    /* \"#utility.yul\":769:791   */\n  swap1\n  pop\n    /* \"#utility.yul\":800:833   */\n  tag_25\n    /* \"#utility.yul\":827:832   */\n  dup2\n    /* \"#utility.yul\":800:833   */\n  tag_12\n  jump\t// in\ntag_25:\n    /* \"#utility.yul\":696:839   */\n  swap3\n  swap2\n  pop\n  pop\n  jump\t// out\n    /* \"#utility.yul\":845:1196   */\ntag_3:\n    /* \"#utility.yul\":915:921   */\n  0x00\n    /* \"#utility.yul\":964:966   */\n  0x20\n    /* \"#utility.yul\":952:961   */\n  dup3\n    /* \"#utility.yul\":943:950   */\n  dup5\n    /* \"#utility.yul\":939:962   */\n  sub\n    /* \"#utility.yul\":935:967   */\n  slt\n    /* \"#utility.yul\":932:1051   */\n  iszero\n  tag_27\n  jumpi\n    /* \"#utility.yul\":970:1049   */\n  tag_28\n  tag_8\n  jump\t// in\ntag_28:\n    /* \"#utility.yul\":932:1051   */\ntag_27:\n    /* \"#utility.yul\":1090:1091   */\n  0x00\n    /* \"#utility.yul\":1115:1179   */\n  tag_29\n    /* \"#utility.yul\":1171:1178   */\n  dup5\n    /* \"#utility.yul\":1162:1168   */\n  dup3\n    /* \"#utility.yul\":1151:1160   */\n  dup6\n    /* \"#utility.yul\":1147:1169   */\n  add\n    /* \"#utility.yul\":1115:1179   */\n  tag_13\n  jump\t// in\ntag_29:\n    /* \"#utility.yul\":1105:1179   */\n  swap2\n  pop\n    /* \"#utility.yul\":1061:1189   */\n  pop\n    /* \"#utility.yul\":845:1196   */\n  swap3\n  swap2\n  pop\n  pop\n  jump\t// out\n    /* \"contracts/Delegation.sol\":57:431  contract Hack {... */\ntag_6:\n  dataSize(sub_0)\n  dup1\n  dataOffset(sub_0)\n  0x00\n  codecopy\n  0x00\n  return\nstop\n\nsub_0: assembly {\n        /* \"contracts/Delegation.sol\":57:431  contract Hack {... */\n      mstore(0x40, 0x80)\n      callvalue\n      dup1\n      iszero\n      tag_1\n      jumpi\n      revert(0x00, 0x00)\n    tag_1:\n      pop\n      jumpi(tag_2, lt(calldatasize, 0x04))\n      shr(0xe0, calldataload(0x00))\n      dup1\n      0x8da5cb5b\n      eq\n      tag_4\n      jumpi\n      dup1\n      0xc89e4361\n      eq\n      tag_5\n      jumpi\n      dup1\n      0xdf5cf723\n      eq\n      tag_6\n      jumpi\n      jump(tag_3)\n    tag_2:\n    tag_3:\n        /* \"contracts/Delegation.sol\":312:323  bool result */\n      0x00\n        /* \"contracts/Delegation.sol\":336:344  delegate */\n      0x01\n      0x00\n      swap1\n      sload\n      swap1\n      0x0100\n      exp\n      swap1\n      div\n      0xffffffffffffffffffffffffffffffffffffffff\n      and\n        /* \"contracts/Delegation.sol\":328:358  address(delegate).delegatecall */\n      0xffffffffffffffffffffffffffffffffffffffff\n      and\n        /* \"contracts/Delegation.sol\":359:367  msg.data */\n      0x00\n      calldatasize\n        /* \"contracts/Delegation.sol\":328:368  address(delegate).delegatecall(msg.data) */\n      mload(0x40)\n      tag_9\n      swap3\n      swap2\n      swap1\n      tag_10\n      jump\t// in\n    tag_9:\n      0x00\n      mload(0x40)\n      dup1\n      dup4\n      sub\n      dup2\n      dup6\n      gas\n      delegatecall\n      swap2\n      pop\n      pop\n      returndatasize\n      dup1\n      0x00\n      dup2\n      eq\n      tag_13\n      jumpi\n      mload(0x40)\n      swap2\n      pop\n      and(add(returndatasize, 0x3f), not(0x1f))\n      dup3\n      add\n      0x40\n      mstore\n      returndatasize\n      dup3\n      mstore\n      returndatasize\n      0x00\n      0x20\n      dup5\n      add\n      returndatacopy\n      jump(tag_12)\n    tag_13:\n      0x60\n      swap2\n      pop\n    tag_12:\n      stop\n        /* \"contracts/Delegation.sol\":142:162  address public owner */\n    tag_4:\n      tag_15\n      tag_16\n      jump\t// in\n    tag_15:\n      mload(0x40)\n      tag_17\n      swap2\n      swap1\n      tag_18\n      jump\t// in\n    tag_17:\n      mload(0x40)\n      dup1\n      swap2\n      sub\n      swap1\n      return\n        /* \"contracts/Delegation.sol\":111:135  Delegate public delegate */\n    tag_5:\n      tag_19\n      tag_20\n      jump\t// in\n    tag_19:\n      mload(0x40)\n      tag_21\n      swap2\n      swap1\n      tag_22\n      jump\t// in\n    tag_21:\n      mload(0x40)\n      dup1\n      swap2\n      sub\n      swap1\n      return\n        /* \"contracts/Delegation.sol\":77:105  Delegation public delegation */\n    tag_6:\n      tag_23\n      tag_24\n      jump\t// in\n    tag_23:\n      mload(0x40)\n      tag_25\n      swap2\n      swap1\n      tag_26\n      jump\t// in\n    tag_25:\n      mload(0x40)\n      dup1\n      swap2\n      sub\n      swap1\n      return\n        /* \"contracts/Delegation.sol\":142:162  address public owner */\n    tag_16:\n      0x02\n      0x00\n      swap1\n      sload\n      swap1\n      0x0100\n      exp\n      swap1\n      div\n      0xffffffffffffffffffffffffffffffffffffffff\n      and\n      dup2\n      jump\t// out\n        /* \"contracts/Delegation.sol\":111:135  Delegate public delegate */\n    tag_20:\n      0x01\n      0x00\n      swap1\n      sload\n      swap1\n      0x0100\n      exp\n      swap1\n      div\n      0xffffffffffffffffffffffffffffffffffffffff\n      and\n      dup2\n      jump\t// out\n        /* \"contracts/Delegation.sol\":77:105  Delegation public delegation */\n    tag_24:\n      0x00\n      0x00\n      swap1\n      sload\n      swap1\n      0x0100\n      exp\n      swap1\n      div\n      0xffffffffffffffffffffffffffffffffffffffff\n      and\n      dup2\n      jump\t// out\n        /* \"#utility.yul\":7:154   */\n    tag_27:\n        /* \"#utility.yul\":108:119   */\n      0x00\n        /* \"#utility.yul\":145:148   */\n      dup2\n        /* \"#utility.yul\":130:148   */\n      swap1\n      pop\n        /* \"#utility.yul\":7:154   */\n      swap3\n      swap2\n      pop\n      pop\n      jump\t// out\n        /* \"#utility.yul\":160:308   */\n    tag_28:\n        /* \"#utility.yul\":258:264   */\n      dup3\n        /* \"#utility.yul\":253:256   */\n      dup2\n        /* \"#utility.yul\":248:251   */\n      dup4\n        /* \"#utility.yul\":235:265   */\n      calldatacopy\n        /* \"#utility.yul\":299:300   */\n      0x00\n        /* \"#utility.yul\":290:296   */\n      dup4\n        /* \"#utility.yul\":285:288   */\n      dup4\n        /* \"#utility.yul\":281:297   */\n      add\n        /* \"#utility.yul\":274:301   */\n      mstore\n        /* \"#utility.yul\":160:308   */\n      pop\n      pop\n      pop\n      jump\t// out\n        /* \"#utility.yul\":336:663   */\n    tag_29:\n        /* \"#utility.yul\":450:453   */\n      0x00\n        /* \"#utility.yul\":471:559   */\n      tag_44\n        /* \"#utility.yul\":552:558   */\n      dup4\n        /* \"#utility.yul\":547:550   */\n      dup6\n        /* \"#utility.yul\":471:559   */\n      tag_27\n      jump\t// in\n    tag_44:\n        /* \"#utility.yul\":464:559   */\n      swap4\n      pop\n        /* \"#utility.yul\":569:625   */\n      tag_45\n        /* \"#utility.yul\":618:624   */\n      dup4\n        /* \"#utility.yul\":613:616   */\n      dup6\n        /* \"#utility.yul\":606:611   */\n      dup5\n        /* \"#utility.yul\":569:625   */\n      tag_28\n      jump\t// in\n    tag_45:\n        /* \"#utility.yul\":650:656   */\n      dup3\n        /* \"#utility.yul\":645:648   */\n      dup5\n        /* \"#utility.yul\":641:657   */\n      add\n        /* \"#utility.yul\":634:657   */\n      swap1\n      pop\n        /* \"#utility.yul\":336:663   */\n      swap4\n      swap3\n      pop\n      pop\n      pop\n      jump\t// out\n        /* \"#utility.yul\":669:960   */\n    tag_10:\n        /* \"#utility.yul\":809:812   */\n      0x00\n        /* \"#utility.yul\":831:934   */\n      tag_47\n        /* \"#utility.yul\":930:933   */\n      dup3\n        /* \"#utility.yul\":921:927   */\n      dup5\n        /* \"#utility.yul\":913:919   */\n      dup7\n        /* \"#utility.yul\":831:934   */\n      tag_29\n      jump\t// in\n    tag_47:\n        /* \"#utility.yul\":824:934   */\n      swap2\n      pop\n        /* \"#utility.yul\":951:954   */\n      dup2\n        /* \"#utility.yul\":944:954   */\n      swap1\n      pop\n        /* \"#utility.yul\":669:960   */\n      swap4\n      swap3\n      pop\n      pop\n      pop\n      jump\t// out\n        /* \"#utility.yul\":966:1092   */\n    tag_30:\n        /* \"#utility.yul\":1003:1010   */\n      0x00\n        /* \"#utility.yul\":1043:1085   */\n      0xffffffffffffffffffffffffffffffffffffffff\n        /* \"#utility.yul\":1036:1041   */\n      dup3\n        /* \"#utility.yul\":1032:1086   */\n      and\n        /* \"#utility.yul\":1021:1086   */\n      swap1\n      pop\n        /* \"#utility.yul\":966:1092   */\n      swap2\n      swap1\n      pop\n      jump\t// out\n        /* \"#utility.yul\":1098:1194   */\n    tag_31:\n        /* \"#utility.yul\":1135:1142   */\n      0x00\n        /* \"#utility.yul\":1164:1188   */\n      tag_50\n        /* \"#utility.yul\":1182:1187   */\n      dup3\n        /* \"#utility.yul\":1164:1188   */\n      tag_30\n      jump\t// in\n    tag_50:\n        /* \"#utility.yul\":1153:1188   */\n      swap1\n      pop\n        /* \"#utility.yul\":1098:1194   */\n      swap2\n      swap1\n      pop\n      jump\t// out\n        /* \"#utility.yul\":1200:1318   */\n    tag_32:\n        /* \"#utility.yul\":1287:1311   */\n      tag_52\n        /* \"#utility.yul\":1305:1310   */\n      dup2\n        /* \"#utility.yul\":1287:1311   */\n      tag_31\n      jump\t// in\n    tag_52:\n        /* \"#utility.yul\":1282:1285   */\n      dup3\n        /* \"#utility.yul\":1275:1312   */\n      mstore\n        /* \"#utility.yul\":1200:1318   */\n      pop\n      pop\n      jump\t// out\n        /* \"#utility.yul\":1324:1546   */\n    tag_18:\n        /* \"#utility.yul\":1417:1421   */\n      0x00\n        /* \"#utility.yul\":1455:1457   */\n      0x20\n        /* \"#utility.yul\":1444:1453   */\n      dup3\n        /* \"#utility.yul\":1440:1458   */\n      add\n        /* \"#utility.yul\":1432:1458   */\n      swap1\n      pop\n        /* \"#utility.yul\":1468:1539   */\n      tag_54\n        /* \"#utility.yul\":1536:1537   */\n      0x00\n        /* \"#utility.yul\":1525:1534   */\n      dup4\n        /* \"#utility.yul\":1521:1538   */\n      add\n        /* \"#utility.yul\":1512:1518   */\n      dup5\n        /* \"#utility.yul\":1468:1539   */\n      tag_32\n      jump\t// in\n    tag_54:\n        /* \"#utility.yul\":1324:1546   */\n      swap3\n      swap2\n      pop\n      pop\n      jump\t// out\n        /* \"#utility.yul\":1552:1612   */\n    tag_33:\n        /* \"#utility.yul\":1580:1583   */\n      0x00\n        /* \"#utility.yul\":1601:1606   */\n      dup2\n        /* \"#utility.yul\":1594:1606   */\n      swap1\n      pop\n        /* \"#utility.yul\":1552:1612   */\n      swap2\n      swap1\n      pop\n      jump\t// out\n        /* \"#utility.yul\":1618:1760   */\n    tag_34:\n        /* \"#utility.yul\":1668:1677   */\n      0x00\n        /* \"#utility.yul\":1701:1754   */\n      tag_57\n        /* \"#utility.yul\":1719:1753   */\n      tag_58\n        /* \"#utility.yul\":1728:1752   */\n      tag_59\n        /* \"#utility.yul\":1746:1751   */\n      dup5\n        /* \"#utility.yul\":1728:1752   */\n      tag_30\n      jump\t// in\n    tag_59:\n        /* \"#utility.yul\":1719:1753   */\n      tag_33\n      jump\t// in\n    tag_58:\n        /* \"#utility.yul\":1701:1754   */\n      tag_30\n      jump\t// in\n    tag_57:\n        /* \"#utility.yul\":1688:1754   */\n      swap1\n      pop\n        /* \"#utility.yul\":1618:1760   */\n      swap2\n      swap1\n      pop\n      jump\t// out\n        /* \"#utility.yul\":1766:1892   */\n    tag_35:\n        /* \"#utility.yul\":1816:1825   */\n      0x00\n        /* \"#utility.yul\":1849:1886   */\n      tag_61\n        /* \"#utility.yul\":1880:1885   */\n      dup3\n        /* \"#utility.yul\":1849:1886   */\n      tag_34\n      jump\t// in\n    tag_61:\n        /* \"#utility.yul\":1836:1886   */\n      swap1\n      pop\n        /* \"#utility.yul\":1766:1892   */\n      swap2\n      swap1\n      pop\n      jump\t// out\n        /* \"#utility.yul\":1898:2039   */\n    tag_36:\n        /* \"#utility.yul\":1963:1972   */\n      0x00\n        /* \"#utility.yul\":1996:2033   */\n      tag_63\n        /* \"#utility.yul\":2027:2032   */\n      dup3\n        /* \"#utility.yul\":1996:2033   */\n      tag_35\n      jump\t// in\n    tag_63:\n        /* \"#utility.yul\":1983:2033   */\n      swap1\n      pop\n        /* \"#utility.yul\":1898:2039   */\n      swap2\n      swap1\n      pop\n      jump\t// out\n        /* \"#utility.yul\":2045:2206   */\n    tag_37:\n        /* \"#utility.yul\":2147:2199   */\n      tag_65\n        /* \"#utility.yul\":2193:2198   */\n      dup2\n        /* \"#utility.yul\":2147:2199   */\n      tag_36\n      jump\t// in\n    tag_65:\n        /* \"#utility.yul\":2142:2145   */\n      dup3\n        /* \"#utility.yul\":2135:2200   */\n      mstore\n        /* \"#utility.yul\":2045:2206   */\n      pop\n      pop\n      jump\t// out\n        /* \"#utility.yul\":2212:2464   */\n    tag_22:\n        /* \"#utility.yul\":2320:2324   */\n      0x00\n        /* \"#utility.yul\":2358:2360   */\n      0x20\n        /* \"#utility.yul\":2347:2356   */\n      dup3\n        /* \"#utility.yul\":2343:2361   */\n      add\n        /* \"#utility.yul\":2335:2361   */\n      swap1\n      pop\n        /* \"#utility.yul\":2371:2457   */\n      tag_67\n        /* \"#utility.yul\":2454:2455   */\n      0x00\n        /* \"#utility.yul\":2443:2452   */\n      dup4\n        /* \"#utility.yul\":2439:2456   */\n      add\n        /* \"#utility.yul\":2430:2436   */\n      dup5\n        /* \"#utility.yul\":2371:2457   */\n      tag_37\n      jump\t// in\n    tag_67:\n        /* \"#utility.yul\":2212:2464   */\n      swap3\n      swap2\n      pop\n      pop\n      jump\t// out\n        /* \"#utility.yul\":2470:2614   */\n    tag_38:\n        /* \"#utility.yul\":2538:2547   */\n      0x00\n        /* \"#utility.yul\":2571:2608   */\n      tag_69\n        /* \"#utility.yul\":2602:2607   */\n      dup3\n        /* \"#utility.yul\":2571:2608   */\n      tag_35\n      jump\t// in\n    tag_69:\n        /* \"#utility.yul\":2558:2608   */\n      swap1\n      pop\n        /* \"#utility.yul\":2470:2614   */\n      swap2\n      swap1\n      pop\n      jump\t// out\n        /* \"#utility.yul\":2620:2787   */\n    tag_39:\n        /* \"#utility.yul\":2725:2780   */\n      tag_71\n        /* \"#utility.yul\":2774:2779   */\n      dup2\n        /* \"#utility.yul\":2725:2780   */\n      tag_38\n      jump\t// in\n    tag_71:\n        /* \"#utility.yul\":2720:2723   */\n      dup3\n        /* \"#utility.yul\":2713:2781   */\n      mstore\n        /* \"#utility.yul\":2620:2787   */\n      pop\n      pop\n      jump\t// out\n        /* \"#utility.yul\":2793:3051   */\n    tag_26:\n        /* \"#utility.yul\":2904:2908   */\n      0x00\n        /* \"#utility.yul\":2942:2944   */\n      0x20\n        /* \"#utility.yul\":2931:2940   */\n      dup3\n        /* \"#utility.yul\":2927:2945   */\n      add\n        /* \"#utility.yul\":2919:2945   */\n      swap1\n      pop\n        /* \"#utility.yul\":2955:3044   */\n      tag_73\n        /* \"#utility.yul\":3041:3042   */\n      0x00\n        /* \"#utility.yul\":3030:3039   */\n      dup4\n        /* \"#utility.yul\":3026:3043   */\n      add\n        /* \"#utility.yul\":3017:3023   */\n      dup5\n        /* \"#utility.yul\":2955:3044   */\n      tag_39\n      jump\t// in\n    tag_73:\n        /* \"#utility.yul\":2793:3051   */\n      swap3\n      swap2\n      pop\n      pop\n      jump\t// out\n\n    auxdata: 0xa2646970667358221220cce1f61377a2408138e047729a72607a39bf7b6421e5ca8ba6931df23a722b8064736f6c634300081b0033\n}\n",
				"bytecode": {
					"linkReferences": {},
					"object": "608060405234801561000f575f5ffd5b5060405161047038038061047083398181016040528101906100319190610115565b8060015f6101000a81548173ffffffffffffffffffffffffffffffffffffffff021916908373ffffffffffffffffffffffffffffffffffffffff1602179055503360025f6101000a81548173ffffffffffffffffffffffffffffffffffffffff021916908373ffffffffffffffffffffffffffffffffffffffff16021790555050610140565b5f5ffd5b5f73ffffffffffffffffffffffffffffffffffffffff82169050919050565b5f6100e4826100bb565b9050919050565b6100f4816100da565b81146100fe575f5ffd5b50565b5f8151905061010f816100eb565b92915050565b5f6020828403121561012a576101296100b7565b5b5f61013784828501610101565b91505092915050565b6103238061014d5f395ff3fe608060405234801561000f575f5ffd5b5060043610610043575f3560e01c80638da5cb5b146100cc578063c89e4361146100ea578063df5cf7231461010857610044565b5b5f60015f9054906101000a900473ffffffffffffffffffffffffffffffffffffffff1673ffffffffffffffffffffffffffffffffffffffff165f3660405161008d9291906101d0565b5f60405180830381855af49150503d805f81146100c5576040519150601f19603f3d011682016040523d82523d5f602084013e6100ca565b606091505b005b6100d4610126565b6040516100e19190610227565b60405180910390f35b6100f261014b565b6040516100ff919061029b565b60405180910390f35b610110610170565b60405161011d91906102d4565b60405180910390f35b60025f9054906101000a900473ffffffffffffffffffffffffffffffffffffffff1681565b60015f9054906101000a900473ffffffffffffffffffffffffffffffffffffffff1681565b5f5f9054906101000a900473ffffffffffffffffffffffffffffffffffffffff1681565b5f81905092915050565b828183375f83830152505050565b5f6101b78385610194565b93506101c483858461019e565b82840190509392505050565b5f6101dc8284866101ac565b91508190509392505050565b5f73ffffffffffffffffffffffffffffffffffffffff82169050919050565b5f610211826101e8565b9050919050565b61022181610207565b82525050565b5f60208201905061023a5f830184610218565b92915050565b5f819050919050565b5f61026361025e610259846101e8565b610240565b6101e8565b9050919050565b5f61027482610249565b9050919050565b5f6102858261026a565b9050919050565b6102958161027b565b82525050565b5f6020820190506102ae5f83018461028c565b92915050565b5f6102be8261026a565b9050919050565b6102ce816102b4565b82525050565b5f6020820190506102e75f8301846102c5565b9291505056fea2646970667358221220cce1f61377a2408138e047729a72607a39bf7b6421e5ca8ba6931df23a722b8064736f6c634300081b0033",
					"opcodes": "PUSH1 0x80 PUSH1 0x40 MSTORE CALLVALUE DUP1 ISZERO PUSH2 0xF JUMPI PUSH0 PUSH0 REVERT JUMPDEST POP PUSH1 0x40 MLOAD PUSH2 0x470 CODESIZE SUB DUP1 PUSH2 0x470 DUP4 CODECOPY DUP2 DUP2 ADD PUSH1 0x40 MSTORE DUP2 ADD SWAP1 PUSH2 0x31 SWAP2 SWAP1 PUSH2 0x115 JUMP JUMPDEST DUP1 PUSH1 0x1 PUSH0 PUSH2 0x100 EXP DUP2 SLOAD DUP2 PUSH20 0xFFFFFFFFFFFFFFFFFFFFFFFFFFFFFFFFFFFFFFFF MUL NOT AND SWAP1 DUP4 PUSH20 0xFFFFFFFFFFFFFFFFFFFFFFFFFFFFFFFFFFFFFFFF AND MUL OR SWAP1 SSTORE POP CALLER PUSH1 0x2 PUSH0 PUSH2 0x100 EXP DUP2 SLOAD DUP2 PUSH20 0xFFFFFFFFFFFFFFFFFFFFFFFFFFFFFFFFFFFFFFFF MUL NOT AND SWAP1 DUP4 PUSH20 0xFFFFFFFFFFFFFFFFFFFFFFFFFFFFFFFFFFFFFFFF AND MUL OR SWAP1 SSTORE POP POP PUSH2 0x140 JUMP JUMPDEST PUSH0 PUSH0 REVERT JUMPDEST PUSH0 PUSH20 0xFFFFFFFFFFFFFFFFFFFFFFFFFFFFFFFFFFFFFFFF DUP3 AND SWAP1 POP SWAP2 SWAP1 POP JUMP JUMPDEST PUSH0 PUSH2 0xE4 DUP3 PUSH2 0xBB JUMP JUMPDEST SWAP1 POP SWAP2 SWAP1 POP JUMP JUMPDEST PUSH2 0xF4 DUP2 PUSH2 0xDA JUMP JUMPDEST DUP2 EQ PUSH2 0xFE JUMPI PUSH0 PUSH0 REVERT JUMPDEST POP JUMP JUMPDEST PUSH0 DUP2 MLOAD SWAP1 POP PUSH2 0x10F DUP2 PUSH2 0xEB JUMP JUMPDEST SWAP3 SWAP2 POP POP JUMP JUMPDEST PUSH0 PUSH1 0x20 DUP3 DUP5 SUB SLT ISZERO PUSH2 0x12A JUMPI PUSH2 0x129 PUSH2 0xB7 JUMP JUMPDEST JUMPDEST PUSH0 PUSH2 0x137 DUP5 DUP3 DUP6 ADD PUSH2 0x101 JUMP JUMPDEST SWAP2 POP POP SWAP3 SWAP2 POP POP JUMP JUMPDEST PUSH2 0x323 DUP1 PUSH2 0x14D PUSH0 CODECOPY PUSH0 RETURN INVALID PUSH1 0x80 PUSH1 0x40 MSTORE CALLVALUE DUP1 ISZERO PUSH2 0xF JUMPI PUSH0 PUSH0 REVERT JUMPDEST POP PUSH1 0x4 CALLDATASIZE LT PUSH2 0x43 JUMPI PUSH0 CALLDATALOAD PUSH1 0xE0 SHR DUP1 PUSH4 0x8DA5CB5B EQ PUSH2 0xCC JUMPI DUP1 PUSH4 0xC89E4361 EQ PUSH2 0xEA JUMPI DUP1 PUSH4 0xDF5CF723 EQ PUSH2 0x108 JUMPI PUSH2 0x44 JUMP JUMPDEST JUMPDEST PUSH0 PUSH1 0x1 PUSH0 SWAP1 SLOAD SWAP1 PUSH2 0x100 EXP SWAP1 DIV PUSH20 0xFFFFFFFFFFFFFFFFFFFFFFFFFFFFFFFFFFFFFFFF AND PUSH20 0xFFFFFFFFFFFFFFFFFFFFFFFFFFFFFFFFFFFFFFFF AND PUSH0 CALLDATASIZE PUSH1 0x40 MLOAD PUSH2 0x8D SWAP3 SWAP2 SWAP1 PUSH2 0x1D0 JUMP JUMPDEST PUSH0 PUSH1 0x40 MLOAD DUP1 DUP4 SUB DUP2 DUP6 GAS DELEGATECALL SWAP2 POP POP RETURNDATASIZE DUP1 PUSH0 DUP2 EQ PUSH2 0xC5 JUMPI PUSH1 0x40 MLOAD SWAP2 POP PUSH1 0x1F NOT PUSH1 0x3F RETURNDATASIZE ADD AND DUP3 ADD PUSH1 0x40 MSTORE RETURNDATASIZE DUP3 MSTORE RETURNDATASIZE PUSH0 PUSH1 0x20 DUP5 ADD RETURNDATACOPY PUSH2 0xCA JUMP JUMPDEST PUSH1 0x60 SWAP2 POP JUMPDEST STOP JUMPDEST PUSH2 0xD4 PUSH2 0x126 JUMP JUMPDEST PUSH1 0x40 MLOAD PUSH2 0xE1 SWAP2 SWAP1 PUSH2 0x227 JUMP JUMPDEST PUSH1 0x40 MLOAD DUP1 SWAP2 SUB SWAP1 RETURN JUMPDEST PUSH2 0xF2 PUSH2 0x14B JUMP JUMPDEST PUSH1 0x40 MLOAD PUSH2 0xFF SWAP2 SWAP1 PUSH2 0x29B JUMP JUMPDEST PUSH1 0x40 MLOAD DUP1 SWAP2 SUB SWAP1 RETURN JUMPDEST PUSH2 0x110 PUSH2 0x170 JUMP JUMPDEST PUSH1 0x40 MLOAD PUSH2 0x11D SWAP2 SWAP1 PUSH2 0x2D4 JUMP JUMPDEST PUSH1 0x40 MLOAD DUP1 SWAP2 SUB SWAP1 RETURN JUMPDEST PUSH1 0x2 PUSH0 SWAP1 SLOAD SWAP1 PUSH2 0x100 EXP SWAP1 DIV PUSH20 0xFFFFFFFFFFFFFFFFFFFFFFFFFFFFFFFFFFFFFFFF AND DUP2 JUMP JUMPDEST PUSH1 0x1 PUSH0 SWAP1 SLOAD SWAP1 PUSH2 0x100 EXP SWAP1 DIV PUSH20 0xFFFFFFFFFFFFFFFFFFFFFFFFFFFFFFFFFFFFFFFF AND DUP2 JUMP JUMPDEST PUSH0 PUSH0 SWAP1 SLOAD SWAP1 PUSH2 0x100 EXP SWAP1 DIV PUSH20 0xFFFFFFFFFFFFFFFFFFFFFFFFFFFFFFFFFFFFFFFF AND DUP2 JUMP JUMPDEST PUSH0 DUP2 SWAP1 POP SWAP3 SWAP2 POP POP JUMP JUMPDEST DUP3 DUP2 DUP4 CALLDATACOPY PUSH0 DUP4 DUP4 ADD MSTORE POP POP POP JUMP JUMPDEST PUSH0 PUSH2 0x1B7 DUP4 DUP6 PUSH2 0x194 JUMP JUMPDEST SWAP4 POP PUSH2 0x1C4 DUP4 DUP6 DUP5 PUSH2 0x19E JUMP JUMPDEST DUP3 DUP5 ADD SWAP1 POP SWAP4 SWAP3 POP POP POP JUMP JUMPDEST PUSH0 PUSH2 0x1DC DUP3 DUP5 DUP7 PUSH2 0x1AC JUMP JUMPDEST SWAP2 POP DUP2 SWAP1 POP SWAP4 SWAP3 POP POP POP JUMP JUMPDEST PUSH0 PUSH20 0xFFFFFFFFFFFFFFFFFFFFFFFFFFFFFFFFFFFFFFFF DUP3 AND SWAP1 POP SWAP2 SWAP1 POP JUMP JUMPDEST PUSH0 PUSH2 0x211 DUP3 PUSH2 0x1E8 JUMP JUMPDEST SWAP1 POP SWAP2 SWAP1 POP JUMP JUMPDEST PUSH2 0x221 DUP2 PUSH2 0x207 JUMP JUMPDEST DUP3 MSTORE POP POP JUMP JUMPDEST PUSH0 PUSH1 0x20 DUP3 ADD SWAP1 POP PUSH2 0x23A PUSH0 DUP4 ADD DUP5 PUSH2 0x218 JUMP JUMPDEST SWAP3 SWAP2 POP POP JUMP JUMPDEST PUSH0 DUP2 SWAP1 POP SWAP2 SWAP1 POP JUMP JUMPDEST PUSH0 PUSH2 0x263 PUSH2 0x25E PUSH2 0x259 DUP5 PUSH2 0x1E8 JUMP JUMPDEST PUSH2 0x240 JUMP JUMPDEST PUSH2 0x1E8 JUMP JUMPDEST SWAP1 POP SWAP2 SWAP1 POP JUMP JUMPDEST PUSH0 PUSH2 0x274 DUP3 PUSH2 0x249 JUMP JUMPDEST SWAP1 POP SWAP2 SWAP1 POP JUMP JUMPDEST PUSH0 PUSH2 0x285 DUP3 PUSH2 0x26A JUMP JUMPDEST SWAP1 POP SWAP2 SWAP1 POP JUMP JUMPDEST PUSH2 0x295 DUP2 PUSH2 0x27B JUMP JUMPDEST DUP3 MSTORE POP POP JUMP JUMPDEST PUSH0 PUSH1 0x20 DUP3 ADD SWAP1 POP PUSH2 0x2AE PUSH0 DUP4 ADD DUP5 PUSH2 0x28C JUMP JUMPDEST SWAP3 SWAP2 POP POP JUMP JUMPDEST PUSH0 PUSH2 0x2BE DUP3 PUSH2 0x26A JUMP JUMPDEST SWAP1 POP SWAP2 SWAP1 POP JUMP JUMPDEST PUSH2 0x2CE DUP2 PUSH2 0x2B4 JUMP JUMPDEST DUP3 MSTORE POP POP JUMP JUMPDEST PUSH0 PUSH1 0x20 DUP3 ADD SWAP1 POP PUSH2 0x2E7 PUSH0 DUP4 ADD DUP5 PUSH2 0x2C5 JUMP JUMPDEST SWAP3 SWAP2 POP POP JUMP INVALID LOG2 PUSH5 0x6970667358 0x22 SLT KECCAK256 0xCC 0xE1 0xF6 SGT PUSH24 0xA2408138E047729A72607A39BF7B6421E5CA8BA6931DF23A PUSH19 0x2B8064736F6C634300081B0033000000000000 "
				},
				"gasEstimates": {
					"creation": {
						"codeDepositCost": "160600",
						"executionCost": "infinite",
						"totalCost": "infinite"
					},
					"external": {
						"": "infinite",
						"delegate()": "infinite",
						"delegation()": "infinite",
						"owner()": "2486"
					}
				},
				"methodIdentifiers": {
					"delegate()": "c89e4361",
					"delegation()": "df5cf723",
					"owner()": "8da5cb5b"
				}
			},
			"storageLayout": {
				"storage": [
					{
						"astId": 4,
						"contract": "contracts/Delegation.sol:Hack",
						"label": "delegation",
						"offset": 0,
						"slot": "0",
						"type": "t_contract(Delegation)112"
					},
					{
						"astId": 7,
						"contract": "contracts/Delegation.sol:Hack",
						"label": "delegate",
						"offset": 0,
						"slot": "1",
						"type": "t_contract(Delegate)69"
					},
					{
						"astId": 9,
						"contract": "contracts/Delegation.sol:Hack",
						"label": "owner",
						"offset": 0,
						"slot": "2",
						"type": "t_address"
					}
				],
				"types": {
					"t_address": {
						"encoding": "inplace",
						"label": "address",
						"numberOfBytes": "20"
					},
					"t_contract(Delegate)69": {
						"encoding": "inplace",
						"label": "contract Delegate",
						"numberOfBytes": "20"
					},
					"t_contract(Delegation)112": {
						"encoding": "inplace",
						"label": "contract Delegation",
						"numberOfBytes": "20"
					}
				}
			},
			"userdoc": {
				"kind": "user",
				"methods": {},
				"version": 1
			}
		}
	}
}