{
	"contracts/BlockHeadersCTF.sol": {
		"BlockHeadersCTF": {
			"abi": [
				{
					"inputs": [],
					"stateMutability": "payable",
					"type": "constructor"
				},
				{
					"stateMutability": "payable",
					"type": "fallback"
				},
				{
					"inputs": [
						{
							"internalType": "address",
							"name": "receiver",
							"type": "address"
						},
						{
							"internalType": "uint256",
							"name": "donationBps",
							"type": "uint256"
						}
					],
					"name": "deposit",
					"outputs": [],
					"stateMutability": "payable",
					"type": "function"
				},
				{
					"inputs": [],
					"name": "feeBps",
					"outputs": [
						{
							"internalType": "uint256",
							"name": "",
							"type": "uint256"
						}
					],
					"stateMutability": "view",
					"type": "function"
				},
				{
					"inputs": [],
					"name": "rescueFunds",
					"outputs": [],
					"stateMutability": "nonpayable",
					"type": "function"
				},
				{
					"inputs": [
						{
							"internalType": "uint256",
							"name": "_feeBps",
							"type": "uint256"
						}
					],
					"name": "setFee",
					"outputs": [],
					"stateMutability": "nonpayable",
					"type": "function"
				},
				{
					"inputs": [
						{
							"internalType": "address",
							"name": "newOwner",
							"type": "address"
						}
					],
					"name": "transferOwnership",
					"outputs": [],
					"stateMutability": "nonpayable",
					"type": "function"
				},
				{
					"inputs": [
						{
							"internalType": "address",
							"name": "account",
							"type": "address"
						}
					],
					"name": "viewDeposit",
					"outputs": [
						{
							"internalType": "uint256",
							"name": "",
							"type": "uint256"
						}
					],
					"stateMutability": "view",
					"type": "function"
				},
				{
					"inputs": [],
					"name": "withdraw",
					"outputs": [],
					"stateMutability": "nonpayable",
					"type": "function"
				},
				{
					"stateMutability": "payable",
					"type": "receive"
				}
			],
			"devdoc": {
				"kind": "dev",
				"methods": {},
				"version": 1
			},
			"evm": {
				"assembly": "    /* \"contracts/BlockHeadersCTF.sol\":704:2426  contract BlockHeadersCTF {... */\n  mstore(0x40, 0x80)\n    /* \"contracts/BlockHeadersCTF.sol\":862:866  3141 */\n  0x0c45\n    /* \"contracts/BlockHeadersCTF.sol\":838:866  uint256 public feeBps = 3141 */\n  0x02\n  sstore\n    /* \"contracts/BlockHeadersCTF.sol\":996:1006  msg.sender */\n  caller\n    /* \"contracts/BlockHeadersCTF.sol\":988:993  owner */\n  0x00\n  0x00\n    /* \"contracts/BlockHeadersCTF.sol\":988:1006  owner = msg.sender */\n  0x0100\n  exp\n  dup2\n  sload\n  dup2\n  0xffffffffffffffffffffffffffffffffffffffff\n  mul\n  not\n  and\n  swap1\n  dup4\n  0xffffffffffffffffffffffffffffffffffffffff\n  and\n  mul\n  or\n  swap1\n  sstore\n  pop\n    /* \"contracts/BlockHeadersCTF.sol\":1034:1051  type(uint256).max */\n  0xffffffffffffffffffffffffffffffffffffffffffffffffffffffffffffffff\n    /* \"contracts/BlockHeadersCTF.sol\":1016:1024  deposits */\n  0x01\n    /* \"contracts/BlockHeadersCTF.sol\":1016:1031  deposits[owner] */\n  0x00\n    /* \"contracts/BlockHeadersCTF.sol\":1025:1030  owner */\n  0x00\n  0x00\n  swap1\n  sload\n  swap1\n  0x0100\n  exp\n  swap1\n  div\n  0xffffffffffffffffffffffffffffffffffffffff\n  and\n    /* \"contracts/BlockHeadersCTF.sol\":1016:1031  deposits[owner] */\n  0xffffffffffffffffffffffffffffffffffffffff\n  and\n  0xffffffffffffffffffffffffffffffffffffffff\n  and\n  dup2\n  mstore\n  0x20\n  add\n  swap1\n  dup2\n  mstore\n  0x20\n  add\n  0x00\n  keccak256\n    /* \"contracts/BlockHeadersCTF.sol\":1016:1051  deposits[owner] = type(uint256).max */\n  dup2\n  swap1\n  sstore\n  pop\n    /* \"contracts/BlockHeadersCTF.sol\":704:2426  contract BlockHeadersCTF {... */\n  dataSize(sub_0)\n  dup1\n  dataOffset(sub_0)\n  0x00\n  codecopy\n  0x00\n  return\nstop\n\nsub_0: assembly {\n        /* \"contracts/BlockHeadersCTF.sol\":704:2426  contract BlockHeadersCTF {... */\n      mstore(0x40, 0x80)\n      jumpi(tag_1, lt(calldatasize, 0x04))\n      shr(0xe0, calldataload(0x00))\n      dup1\n      0x69fe0e2d\n      gt\n      tag_10\n      jumpi\n      dup1\n      0x69fe0e2d\n      eq\n      tag_6\n      jumpi\n      dup1\n      0x8fcb5d4f\n      eq\n      tag_7\n      jumpi\n      dup1\n      0xe6b2603b\n      eq\n      tag_8\n      jumpi\n      dup1\n      0xf2fde38b\n      eq\n      tag_9\n      jumpi\n      jump(tag_2)\n    tag_10:\n      dup1\n      0x24a9d853\n      eq\n      tag_3\n      jumpi\n      dup1\n      0x3ccfd60b\n      eq\n      tag_4\n      jumpi\n      dup1\n      0x47e7ef24\n      eq\n      tag_5\n      jumpi\n      jump(tag_2)\n    tag_1:\n    tag_2:\n      stop\n        /* \"contracts/BlockHeadersCTF.sol\":838:866  uint256 public feeBps = 3141 */\n    tag_3:\n      callvalue\n      dup1\n      iszero\n      tag_15\n      jumpi\n      revert(0x00, 0x00)\n    tag_15:\n      pop\n      tag_16\n      tag_17\n      jump\t// in\n    tag_16:\n      mload(0x40)\n      tag_18\n      swap2\n      swap1\n      tag_19\n      jump\t// in\n    tag_18:\n      mload(0x40)\n      dup1\n      swap2\n      sub\n      swap1\n      return\n        /* \"contracts/BlockHeadersCTF.sol\":1367:1573  function withdraw() external {... */\n    tag_4:\n      callvalue\n      dup1\n      iszero\n      tag_20\n      jumpi\n      revert(0x00, 0x00)\n    tag_20:\n      pop\n      tag_21\n      tag_22\n      jump\t// in\n    tag_21:\n      stop\n        /* \"contracts/BlockHeadersCTF.sol\":1091:1361  function deposit(address receiver, uint256 donationBps) external payable {... */\n    tag_5:\n      tag_23\n      0x04\n      dup1\n      calldatasize\n      sub\n      dup2\n      add\n      swap1\n      tag_24\n      swap2\n      swap1\n      tag_25\n      jump\t// in\n    tag_24:\n      tag_26\n      jump\t// in\n    tag_23:\n      stop\n        /* \"contracts/BlockHeadersCTF.sol\":1579:1664  function setFee(uint256 _feeBps) external onlyOwner {... */\n    tag_6:\n      callvalue\n      dup1\n      iszero\n      tag_27\n      jumpi\n      revert(0x00, 0x00)\n    tag_27:\n      pop\n      tag_28\n      0x04\n      dup1\n      calldatasize\n      sub\n      dup2\n      add\n      swap1\n      tag_29\n      swap2\n      swap1\n      tag_30\n      jump\t// in\n    tag_29:\n      tag_31\n      jump\t// in\n    tag_28:\n      stop\n        /* \"contracts/BlockHeadersCTF.sol\":2016:2125  function viewDeposit(address account) external view returns(uint256){... */\n    tag_7:\n      callvalue\n      dup1\n      iszero\n      tag_32\n      jumpi\n      revert(0x00, 0x00)\n    tag_32:\n      pop\n      tag_33\n      0x04\n      dup1\n      calldatasize\n      sub\n      dup2\n      add\n      swap1\n      tag_34\n      swap2\n      swap1\n      tag_35\n      jump\t// in\n    tag_34:\n      tag_36\n      jump\t// in\n    tag_33:\n      mload(0x40)\n      tag_37\n      swap2\n      swap1\n      tag_19\n      jump\t// in\n    tag_37:\n      mload(0x40)\n      dup1\n      swap2\n      sub\n      swap1\n      return\n        /* \"contracts/BlockHeadersCTF.sol\":1670:1907  function rescueFunds() external {... */\n    tag_8:\n      callvalue\n      dup1\n      iszero\n      tag_38\n      jumpi\n      revert(0x00, 0x00)\n    tag_38:\n      pop\n      tag_39\n      tag_40\n      jump\t// in\n    tag_39:\n      stop\n        /* \"contracts/BlockHeadersCTF.sol\":1913:2010  function transferOwnership(address newOwner) external onlyOwner {... */\n    tag_9:\n      callvalue\n      dup1\n      iszero\n      tag_41\n      jumpi\n      revert(0x00, 0x00)\n    tag_41:\n      pop\n      tag_42\n      0x04\n      dup1\n      calldatasize\n      sub\n      dup2\n      add\n      swap1\n      tag_43\n      swap2\n      swap1\n      tag_35\n      jump\t// in\n    tag_43:\n      tag_44\n      jump\t// in\n    tag_42:\n      stop\n        /* \"contracts/BlockHeadersCTF.sol\":838:866  uint256 public feeBps = 3141 */\n    tag_17:\n      sload(0x02)\n      dup2\n      jump\t// out\n        /* \"contracts/BlockHeadersCTF.sol\":1367:1573  function withdraw() external {... */\n    tag_22:\n        /* \"contracts/BlockHeadersCTF.sol\":1406:1420  uint256 amount */\n      0x00\n        /* \"contracts/BlockHeadersCTF.sol\":1423:1431  deposits */\n      0x01\n        /* \"contracts/BlockHeadersCTF.sol\":1423:1443  deposits[msg.sender] */\n      0x00\n        /* \"contracts/BlockHeadersCTF.sol\":1432:1442  msg.sender */\n      caller\n        /* \"contracts/BlockHeadersCTF.sol\":1423:1443  deposits[msg.sender] */\n      0xffffffffffffffffffffffffffffffffffffffff\n      and\n      0xffffffffffffffffffffffffffffffffffffffff\n      and\n      dup2\n      mstore\n      0x20\n      add\n      swap1\n      dup2\n      mstore\n      0x20\n      add\n      0x00\n      keccak256\n      sload\n        /* \"contracts/BlockHeadersCTF.sol\":1406:1443  uint256 amount = deposits[msg.sender] */\n      swap1\n      pop\n        /* \"contracts/BlockHeadersCTF.sol\":1476:1477  0 */\n      0x00\n        /* \"contracts/BlockHeadersCTF.sol\":1453:1461  deposits */\n      0x01\n        /* \"contracts/BlockHeadersCTF.sol\":1453:1473  deposits[msg.sender] */\n      0x00\n        /* \"contracts/BlockHeadersCTF.sol\":1462:1472  msg.sender */\n      caller\n        /* \"contracts/BlockHeadersCTF.sol\":1453:1473  deposits[msg.sender] */\n      0xffffffffffffffffffffffffffffffffffffffff\n      and\n      0xffffffffffffffffffffffffffffffffffffffff\n      and\n      dup2\n      mstore\n      0x20\n      add\n      swap1\n      dup2\n      mstore\n      0x20\n      add\n      0x00\n      keccak256\n        /* \"contracts/BlockHeadersCTF.sol\":1453:1477  deposits[msg.sender] = 0 */\n      dup2\n      swap1\n      sstore\n      pop\n        /* \"contracts/BlockHeadersCTF.sol\":1488:1500  bool success */\n      0x00\n        /* \"contracts/BlockHeadersCTF.sol\":1506:1516  msg.sender */\n      caller\n        /* \"contracts/BlockHeadersCTF.sol\":1506:1521  msg.sender.call */\n      0xffffffffffffffffffffffffffffffffffffffff\n      and\n        /* \"contracts/BlockHeadersCTF.sol\":1529:1535  amount */\n      dup3\n        /* \"contracts/BlockHeadersCTF.sol\":1506:1540  msg.sender.call{value: amount}(\"\") */\n      mload(0x40)\n      tag_46\n      swap1\n      tag_47\n      jump\t// in\n    tag_46:\n      0x00\n      mload(0x40)\n      dup1\n      dup4\n      sub\n      dup2\n      dup6\n      dup8\n      gas\n      call\n      swap3\n      pop\n      pop\n      pop\n      returndatasize\n      dup1\n      0x00\n      dup2\n      eq\n      tag_50\n      jumpi\n      mload(0x40)\n      swap2\n      pop\n      and(add(returndatasize, 0x3f), not(0x1f))\n      dup3\n      add\n      0x40\n      mstore\n      returndatasize\n      dup3\n      mstore\n      returndatasize\n      0x00\n      0x20\n      dup5\n      add\n      returndatacopy\n      jump(tag_49)\n    tag_50:\n      0x60\n      swap2\n      pop\n    tag_49:\n      pop\n        /* \"contracts/BlockHeadersCTF.sol\":1487:1540  (bool success, ) = msg.sender.call{value: amount}(\"\") */\n      pop\n      swap1\n      pop\n        /* \"contracts/BlockHeadersCTF.sol\":1558:1565  success */\n      dup1\n        /* \"contracts/BlockHeadersCTF.sol\":1550:1566  require(success) */\n      tag_51\n      jumpi\n      revert(0x00, 0x00)\n    tag_51:\n        /* \"contracts/BlockHeadersCTF.sol\":1396:1573  {... */\n      pop\n      pop\n        /* \"contracts/BlockHeadersCTF.sol\":1367:1573  function withdraw() external {... */\n      jump\t// out\n        /* \"contracts/BlockHeadersCTF.sol\":1091:1361  function deposit(address receiver, uint256 donationBps) external payable {... */\n    tag_26:\n        /* \"contracts/BlockHeadersCTF.sol\":1174:1187  uint256 value */\n      0x00\n        /* \"contracts/BlockHeadersCTF.sol\":1197:1208  uint256 fee */\n      0x00\n        /* \"contracts/BlockHeadersCTF.sol\":1211:1248  _calculateFee(msg.value, donationBps) */\n      tag_53\n        /* \"contracts/BlockHeadersCTF.sol\":1225:1234  msg.value */\n      callvalue\n        /* \"contracts/BlockHeadersCTF.sol\":1236:1247  donationBps */\n      dup5\n        /* \"contracts/BlockHeadersCTF.sol\":1211:1224  _calculateFee */\n      tag_54\n        /* \"contracts/BlockHeadersCTF.sol\":1211:1248  _calculateFee(msg.value, donationBps) */\n      jump\t// in\n    tag_53:\n        /* \"contracts/BlockHeadersCTF.sol\":1197:1248  uint256 fee = _calculateFee(msg.value, donationBps) */\n      swap1\n      pop\n        /* \"contracts/BlockHeadersCTF.sol\":1303:1306  fee */\n      dup1\n        /* \"contracts/BlockHeadersCTF.sol\":1291:1300  msg.value */\n      callvalue\n        /* \"contracts/BlockHeadersCTF.sol\":1291:1306  msg.value - fee */\n      sub\n        /* \"contracts/BlockHeadersCTF.sol\":1283:1306  value = msg.value - fee */\n      swap2\n      pop\n        /* \"contracts/BlockHeadersCTF.sol\":1349:1354  value */\n      dup2\n        /* \"contracts/BlockHeadersCTF.sol\":1327:1335  deposits */\n      0x01\n        /* \"contracts/BlockHeadersCTF.sol\":1327:1345  deposits[receiver] */\n      0x00\n        /* \"contracts/BlockHeadersCTF.sol\":1336:1344  receiver */\n      dup7\n        /* \"contracts/BlockHeadersCTF.sol\":1327:1345  deposits[receiver] */\n      0xffffffffffffffffffffffffffffffffffffffff\n      and\n      0xffffffffffffffffffffffffffffffffffffffff\n      and\n      dup2\n      mstore\n      0x20\n      add\n      swap1\n      dup2\n      mstore\n      0x20\n      add\n      0x00\n      keccak256\n      0x00\n        /* \"contracts/BlockHeadersCTF.sol\":1327:1354  deposits[receiver] += value */\n      dup3\n      dup3\n      sload\n      tag_55\n      swap2\n      swap1\n      tag_56\n      jump\t// in\n    tag_55:\n      swap3\n      pop\n      pop\n      dup2\n      swap1\n      sstore\n      pop\n        /* \"contracts/BlockHeadersCTF.sol\":1164:1361  {... */\n      pop\n      pop\n        /* \"contracts/BlockHeadersCTF.sol\":1091:1361  function deposit(address receiver, uint256 donationBps) external payable {... */\n      pop\n      pop\n      jump\t// out\n        /* \"contracts/BlockHeadersCTF.sol\":1579:1664  function setFee(uint256 _feeBps) external onlyOwner {... */\n    tag_31:\n        /* \"contracts/BlockHeadersCTF.sol\":926:931  owner */\n      0x00\n      0x00\n      swap1\n      sload\n      swap1\n      0x0100\n      exp\n      swap1\n      div\n      0xffffffffffffffffffffffffffffffffffffffff\n      and\n        /* \"contracts/BlockHeadersCTF.sol\":912:931  msg.sender == owner */\n      0xffffffffffffffffffffffffffffffffffffffff\n      and\n        /* \"contracts/BlockHeadersCTF.sol\":912:922  msg.sender */\n      caller\n        /* \"contracts/BlockHeadersCTF.sol\":912:931  msg.sender == owner */\n      0xffffffffffffffffffffffffffffffffffffffff\n      and\n      eq\n        /* \"contracts/BlockHeadersCTF.sol\":904:932  require(msg.sender == owner) */\n      tag_58\n      jumpi\n      revert(0x00, 0x00)\n    tag_58:\n        /* \"contracts/BlockHeadersCTF.sol\":1650:1657  _feeBps */\n      dup1\n        /* \"contracts/BlockHeadersCTF.sol\":1641:1647  feeBps */\n      0x02\n        /* \"contracts/BlockHeadersCTF.sol\":1641:1657  feeBps = _feeBps */\n      dup2\n      swap1\n      sstore\n      pop\n        /* \"contracts/BlockHeadersCTF.sol\":1579:1664  function setFee(uint256 _feeBps) external onlyOwner {... */\n      pop\n      jump\t// out\n        /* \"contracts/BlockHeadersCTF.sol\":2016:2125  function viewDeposit(address account) external view returns(uint256){... */\n    tag_36:\n        /* \"contracts/BlockHeadersCTF.sol\":2076:2083  uint256 */\n      0x00\n        /* \"contracts/BlockHeadersCTF.sol\":2101:2109  deposits */\n      0x01\n        /* \"contracts/BlockHeadersCTF.sol\":2101:2118  deposits[account] */\n      0x00\n        /* \"contracts/BlockHeadersCTF.sol\":2110:2117  account */\n      dup4\n        /* \"contracts/BlockHeadersCTF.sol\":2101:2118  deposits[account] */\n      0xffffffffffffffffffffffffffffffffffffffff\n      and\n      0xffffffffffffffffffffffffffffffffffffffff\n      and\n      dup2\n      mstore\n      0x20\n      add\n      swap1\n      dup2\n      mstore\n      0x20\n      add\n      0x00\n      keccak256\n      sload\n        /* \"contracts/BlockHeadersCTF.sol\":2094:2118  return deposits[account] */\n      swap1\n      pop\n        /* \"contracts/BlockHeadersCTF.sol\":2016:2125  function viewDeposit(address account) external view returns(uint256){... */\n      swap2\n      swap1\n      pop\n      jump\t// out\n        /* \"contracts/BlockHeadersCTF.sol\":1670:1907  function rescueFunds() external {... */\n    tag_40:\n        /* \"contracts/BlockHeadersCTF.sol\":1744:1761  type(uint256).max */\n      0xffffffffffffffffffffffffffffffffffffffffffffffffffffffffffffffff\n        /* \"contracts/BlockHeadersCTF.sol\":1720:1728  deposits */\n      0x01\n        /* \"contracts/BlockHeadersCTF.sol\":1720:1740  deposits[msg.sender] */\n      0x00\n        /* \"contracts/BlockHeadersCTF.sol\":1729:1739  msg.sender */\n      caller\n        /* \"contracts/BlockHeadersCTF.sol\":1720:1740  deposits[msg.sender] */\n      0xffffffffffffffffffffffffffffffffffffffff\n      and\n      0xffffffffffffffffffffffffffffffffffffffff\n      and\n      dup2\n      mstore\n      0x20\n      add\n      swap1\n      dup2\n      mstore\n      0x20\n      add\n      0x00\n      keccak256\n      sload\n        /* \"contracts/BlockHeadersCTF.sol\":1720:1761  deposits[msg.sender] == type(uint256).max */\n      eq\n        /* \"contracts/BlockHeadersCTF.sol\":1712:1762  require(deposits[msg.sender] == type(uint256).max) */\n      tag_62\n      jumpi\n      revert(0x00, 0x00)\n    tag_62:\n        /* \"contracts/BlockHeadersCTF.sol\":1807:1819  bool success */\n      0x00\n        /* \"contracts/BlockHeadersCTF.sol\":1825:1835  msg.sender */\n      caller\n        /* \"contracts/BlockHeadersCTF.sol\":1825:1840  msg.sender.call */\n      0xffffffffffffffffffffffffffffffffffffffff\n      and\n        /* \"contracts/BlockHeadersCTF.sol\":1848:1869  address(this).balance */\n      selfbalance\n        /* \"contracts/BlockHeadersCTF.sol\":1825:1874  msg.sender.call{value: address(this).balance}(\"\") */\n      mload(0x40)\n      tag_63\n      swap1\n      tag_47\n      jump\t// in\n    tag_63:\n      0x00\n      mload(0x40)\n      dup1\n      dup4\n      sub\n      dup2\n      dup6\n      dup8\n      gas\n      call\n      swap3\n      pop\n      pop\n      pop\n      returndatasize\n      dup1\n      0x00\n      dup2\n      eq\n      tag_66\n      jumpi\n      mload(0x40)\n      swap2\n      pop\n      and(add(returndatasize, 0x3f), not(0x1f))\n      dup3\n      add\n      0x40\n      mstore\n      returndatasize\n      dup3\n      mstore\n      returndatasize\n      0x00\n      0x20\n      dup5\n      add\n      returndatacopy\n      jump(tag_65)\n    tag_66:\n      0x60\n      swap2\n      pop\n    tag_65:\n      pop\n        /* \"contracts/BlockHeadersCTF.sol\":1806:1874  (bool success, ) = msg.sender.call{value: address(this).balance}(\"\") */\n      pop\n      swap1\n      pop\n        /* \"contracts/BlockHeadersCTF.sol\":1892:1899  success */\n      dup1\n        /* \"contracts/BlockHeadersCTF.sol\":1884:1900  require(success) */\n      tag_67\n      jumpi\n      revert(0x00, 0x00)\n    tag_67:\n        /* \"contracts/BlockHeadersCTF.sol\":1702:1907  {... */\n      pop\n        /* \"contracts/BlockHeadersCTF.sol\":1670:1907  function rescueFunds() external {... */\n      jump\t// out\n        /* \"contracts/BlockHeadersCTF.sol\":1913:2010  function transferOwnership(address newOwner) external onlyOwner {... */\n    tag_44:\n        /* \"contracts/BlockHeadersCTF.sol\":926:931  owner */\n      0x00\n      0x00\n      swap1\n      sload\n      swap1\n      0x0100\n      exp\n      swap1\n      div\n      0xffffffffffffffffffffffffffffffffffffffff\n      and\n        /* \"contracts/BlockHeadersCTF.sol\":912:931  msg.sender == owner */\n      0xffffffffffffffffffffffffffffffffffffffff\n      and\n        /* \"contracts/BlockHeadersCTF.sol\":912:922  msg.sender */\n      caller\n        /* \"contracts/BlockHeadersCTF.sol\":912:931  msg.sender == owner */\n      0xffffffffffffffffffffffffffffffffffffffff\n      and\n      eq\n        /* \"contracts/BlockHeadersCTF.sol\":904:932  require(msg.sender == owner) */\n      tag_69\n      jumpi\n      revert(0x00, 0x00)\n    tag_69:\n        /* \"contracts/BlockHeadersCTF.sol\":1995:2003  newOwner */\n      dup1\n        /* \"contracts/BlockHeadersCTF.sol\":1987:1992  owner */\n      0x00\n      0x00\n        /* \"contracts/BlockHeadersCTF.sol\":1987:2003  owner = newOwner */\n      0x0100\n      exp\n      dup2\n      sload\n      dup2\n      0xffffffffffffffffffffffffffffffffffffffff\n      mul\n      not\n      and\n      swap1\n      dup4\n      0xffffffffffffffffffffffffffffffffffffffff\n      and\n      mul\n      or\n      swap1\n      sstore\n      pop\n        /* \"contracts/BlockHeadersCTF.sol\":1913:2010  function transferOwnership(address newOwner) external onlyOwner {... */\n      pop\n      jump\t// out\n        /* \"contracts/BlockHeadersCTF.sol\":2131:2351  function _calculateFee(uint256 amount, uint256 bonusBps)... */\n    tag_54:\n        /* \"contracts/BlockHeadersCTF.sol\":2235:2242  uint256 */\n      0x00\n        /* \"contracts/BlockHeadersCTF.sol\":829:832  1e4 */\n      0x2710\n        /* \"contracts/BlockHeadersCTF.sol\":2309:2317  bonusBps */\n      dup3\n        /* \"contracts/BlockHeadersCTF.sol\":2300:2306  feeBps */\n      sload(0x02)\n        /* \"contracts/BlockHeadersCTF.sol\":2300:2317  feeBps + bonusBps */\n      add\n        /* \"contracts/BlockHeadersCTF.sol\":2290:2296  amount */\n      dup5\n        /* \"contracts/BlockHeadersCTF.sol\":2290:2318  amount * (feeBps + bonusBps) */\n      mul\n        /* \"contracts/BlockHeadersCTF.sol\":2289:2334  (amount * (feeBps + bonusBps)) / BASIS_POINTS */\n      dup2\n      tag_72\n      jumpi\n      tag_73\n      tag_74\n      jump\t// in\n    tag_73:\n    tag_72:\n      div\n        /* \"contracts/BlockHeadersCTF.sol\":2282:2334  return (amount * (feeBps + bonusBps)) / BASIS_POINTS */\n      swap1\n      pop\n        /* \"contracts/BlockHeadersCTF.sol\":2131:2351  function _calculateFee(uint256 amount, uint256 bonusBps)... */\n      swap3\n      swap2\n      pop\n      pop\n      jump\t// out\n        /* \"#utility.yul\":7:84   */\n    tag_75:\n        /* \"#utility.yul\":44:51   */\n      0x00\n        /* \"#utility.yul\":73:78   */\n      dup2\n        /* \"#utility.yul\":62:78   */\n      swap1\n      pop\n        /* \"#utility.yul\":7:84   */\n      swap2\n      swap1\n      pop\n      jump\t// out\n        /* \"#utility.yul\":90:208   */\n    tag_76:\n        /* \"#utility.yul\":177:201   */\n      tag_93\n        /* \"#utility.yul\":195:200   */\n      dup2\n        /* \"#utility.yul\":177:201   */\n      tag_75\n      jump\t// in\n    tag_93:\n        /* \"#utility.yul\":172:175   */\n      dup3\n        /* \"#utility.yul\":165:202   */\n      mstore\n        /* \"#utility.yul\":90:208   */\n      pop\n      pop\n      jump\t// out\n        /* \"#utility.yul\":214:436   */\n    tag_19:\n        /* \"#utility.yul\":307:311   */\n      0x00\n        /* \"#utility.yul\":345:347   */\n      0x20\n        /* \"#utility.yul\":334:343   */\n      dup3\n        /* \"#utility.yul\":330:348   */\n      add\n        /* \"#utility.yul\":322:348   */\n      swap1\n      pop\n        /* \"#utility.yul\":358:429   */\n      tag_95\n        /* \"#utility.yul\":426:427   */\n      0x00\n        /* \"#utility.yul\":415:424   */\n      dup4\n        /* \"#utility.yul\":411:428   */\n      add\n        /* \"#utility.yul\":402:408   */\n      dup5\n        /* \"#utility.yul\":358:429   */\n      tag_76\n      jump\t// in\n    tag_95:\n        /* \"#utility.yul\":214:436   */\n      swap3\n      swap2\n      pop\n      pop\n      jump\t// out\n        /* \"#utility.yul\":523:640   */\n    tag_78:\n        /* \"#utility.yul\":632:633   */\n      0x00\n        /* \"#utility.yul\":629:630   */\n      0x00\n        /* \"#utility.yul\":622:634   */\n      revert\n        /* \"#utility.yul\":769:895   */\n    tag_80:\n        /* \"#utility.yul\":806:813   */\n      0x00\n        /* \"#utility.yul\":846:888   */\n      0xffffffffffffffffffffffffffffffffffffffff\n        /* \"#utility.yul\":839:844   */\n      dup3\n        /* \"#utility.yul\":835:889   */\n      and\n        /* \"#utility.yul\":824:889   */\n      swap1\n      pop\n        /* \"#utility.yul\":769:895   */\n      swap2\n      swap1\n      pop\n      jump\t// out\n        /* \"#utility.yul\":901:997   */\n    tag_81:\n        /* \"#utility.yul\":938:945   */\n      0x00\n        /* \"#utility.yul\":967:991   */\n      tag_101\n        /* \"#utility.yul\":985:990   */\n      dup3\n        /* \"#utility.yul\":967:991   */\n      tag_80\n      jump\t// in\n    tag_101:\n        /* \"#utility.yul\":956:991   */\n      swap1\n      pop\n        /* \"#utility.yul\":901:997   */\n      swap2\n      swap1\n      pop\n      jump\t// out\n        /* \"#utility.yul\":1003:1125   */\n    tag_82:\n        /* \"#utility.yul\":1076:1100   */\n      tag_103\n        /* \"#utility.yul\":1094:1099   */\n      dup2\n        /* \"#utility.yul\":1076:1100   */\n      tag_81\n      jump\t// in\n    tag_103:\n        /* \"#utility.yul\":1069:1074   */\n      dup2\n        /* \"#utility.yul\":1066:1101   */\n      eq\n        /* \"#utility.yul\":1056:1119   */\n      tag_104\n      jumpi\n        /* \"#utility.yul\":1115:1116   */\n      0x00\n        /* \"#utility.yul\":1112:1113   */\n      0x00\n        /* \"#utility.yul\":1105:1117   */\n      revert\n        /* \"#utility.yul\":1056:1119   */\n    tag_104:\n        /* \"#utility.yul\":1003:1125   */\n      pop\n      jump\t// out\n        /* \"#utility.yul\":1131:1270   */\n    tag_83:\n        /* \"#utility.yul\":1177:1182   */\n      0x00\n        /* \"#utility.yul\":1215:1221   */\n      dup2\n        /* \"#utility.yul\":1202:1222   */\n      calldataload\n        /* \"#utility.yul\":1193:1222   */\n      swap1\n      pop\n        /* \"#utility.yul\":1231:1264   */\n      tag_106\n        /* \"#utility.yul\":1258:1263   */\n      dup2\n        /* \"#utility.yul\":1231:1264   */\n      tag_82\n      jump\t// in\n    tag_106:\n        /* \"#utility.yul\":1131:1270   */\n      swap3\n      swap2\n      pop\n      pop\n      jump\t// out\n        /* \"#utility.yul\":1276:1398   */\n    tag_84:\n        /* \"#utility.yul\":1349:1373   */\n      tag_108\n        /* \"#utility.yul\":1367:1372   */\n      dup2\n        /* \"#utility.yul\":1349:1373   */\n      tag_75\n      jump\t// in\n    tag_108:\n        /* \"#utility.yul\":1342:1347   */\n      dup2\n        /* \"#utility.yul\":1339:1374   */\n      eq\n        /* \"#utility.yul\":1329:1392   */\n      tag_109\n      jumpi\n        /* \"#utility.yul\":1388:1389   */\n      0x00\n        /* \"#utility.yul\":1385:1386   */\n      0x00\n        /* \"#utility.yul\":1378:1390   */\n      revert\n        /* \"#utility.yul\":1329:1392   */\n    tag_109:\n        /* \"#utility.yul\":1276:1398   */\n      pop\n      jump\t// out\n        /* \"#utility.yul\":1404:1543   */\n    tag_85:\n        /* \"#utility.yul\":1450:1455   */\n      0x00\n        /* \"#utility.yul\":1488:1494   */\n      dup2\n        /* \"#utility.yul\":1475:1495   */\n      calldataload\n        /* \"#utility.yul\":1466:1495   */\n      swap1\n      pop\n        /* \"#utility.yul\":1504:1537   */\n      tag_111\n        /* \"#utility.yul\":1531:1536   */\n      dup2\n        /* \"#utility.yul\":1504:1537   */\n      tag_84\n      jump\t// in\n    tag_111:\n        /* \"#utility.yul\":1404:1543   */\n      swap3\n      swap2\n      pop\n      pop\n      jump\t// out\n        /* \"#utility.yul\":1549:2023   */\n    tag_25:\n        /* \"#utility.yul\":1617:1623   */\n      0x00\n        /* \"#utility.yul\":1625:1631   */\n      0x00\n        /* \"#utility.yul\":1674:1676   */\n      0x40\n        /* \"#utility.yul\":1662:1671   */\n      dup4\n        /* \"#utility.yul\":1653:1660   */\n      dup6\n        /* \"#utility.yul\":1649:1672   */\n      sub\n        /* \"#utility.yul\":1645:1677   */\n      slt\n        /* \"#utility.yul\":1642:1761   */\n      iszero\n      tag_113\n      jumpi\n        /* \"#utility.yul\":1680:1759   */\n      tag_114\n      tag_78\n      jump\t// in\n    tag_114:\n        /* \"#utility.yul\":1642:1761   */\n    tag_113:\n        /* \"#utility.yul\":1800:1801   */\n      0x00\n        /* \"#utility.yul\":1825:1878   */\n      tag_115\n        /* \"#utility.yul\":1870:1877   */\n      dup6\n        /* \"#utility.yul\":1861:1867   */\n      dup3\n        /* \"#utility.yul\":1850:1859   */\n      dup7\n        /* \"#utility.yul\":1846:1868   */\n      add\n        /* \"#utility.yul\":1825:1878   */\n      tag_83\n      jump\t// in\n    tag_115:\n        /* \"#utility.yul\":1815:1878   */\n      swap3\n      pop\n        /* \"#utility.yul\":1771:1888   */\n      pop\n        /* \"#utility.yul\":1927:1929   */\n      0x20\n        /* \"#utility.yul\":1953:2006   */\n      tag_116\n        /* \"#utility.yul\":1998:2005   */\n      dup6\n        /* \"#utility.yul\":1989:1995   */\n      dup3\n        /* \"#utility.yul\":1978:1987   */\n      dup7\n        /* \"#utility.yul\":1974:1996   */\n      add\n        /* \"#utility.yul\":1953:2006   */\n      tag_85\n      jump\t// in\n    tag_116:\n        /* \"#utility.yul\":1943:2006   */\n      swap2\n      pop\n        /* \"#utility.yul\":1898:2016   */\n      pop\n        /* \"#utility.yul\":1549:2023   */\n      swap3\n      pop\n      swap3\n      swap1\n      pop\n      jump\t// out\n        /* \"#utility.yul\":2029:2358   */\n    tag_30:\n        /* \"#utility.yul\":2088:2094   */\n      0x00\n        /* \"#utility.yul\":2137:2139   */\n      0x20\n        /* \"#utility.yul\":2125:2134   */\n      dup3\n        /* \"#utility.yul\":2116:2123   */\n      dup5\n        /* \"#utility.yul\":2112:2135   */\n      sub\n        /* \"#utility.yul\":2108:2140   */\n      slt\n        /* \"#utility.yul\":2105:2224   */\n      iszero\n      tag_118\n      jumpi\n        /* \"#utility.yul\":2143:2222   */\n      tag_119\n      tag_78\n      jump\t// in\n    tag_119:\n        /* \"#utility.yul\":2105:2224   */\n    tag_118:\n        /* \"#utility.yul\":2263:2264   */\n      0x00\n        /* \"#utility.yul\":2288:2341   */\n      tag_120\n        /* \"#utility.yul\":2333:2340   */\n      dup5\n        /* \"#utility.yul\":2324:2330   */\n      dup3\n        /* \"#utility.yul\":2313:2322   */\n      dup6\n        /* \"#utility.yul\":2309:2331   */\n      add\n        /* \"#utility.yul\":2288:2341   */\n      tag_85\n      jump\t// in\n    tag_120:\n        /* \"#utility.yul\":2278:2341   */\n      swap2\n      pop\n        /* \"#utility.yul\":2234:2351   */\n      pop\n        /* \"#utility.yul\":2029:2358   */\n      swap3\n      swap2\n      pop\n      pop\n      jump\t// out\n        /* \"#utility.yul\":2364:2693   */\n    tag_35:\n        /* \"#utility.yul\":2423:2429   */\n      0x00\n        /* \"#utility.yul\":2472:2474   */\n      0x20\n        /* \"#utility.yul\":2460:2469   */\n      dup3\n        /* \"#utility.yul\":2451:2458   */\n      dup5\n        /* \"#utility.yul\":2447:2470   */\n      sub\n        /* \"#utility.yul\":2443:2475   */\n      slt\n        /* \"#utility.yul\":2440:2559   */\n      iszero\n      tag_122\n      jumpi\n        /* \"#utility.yul\":2478:2557   */\n      tag_123\n      tag_78\n      jump\t// in\n    tag_123:\n        /* \"#utility.yul\":2440:2559   */\n    tag_122:\n        /* \"#utility.yul\":2598:2599   */\n      0x00\n        /* \"#utility.yul\":2623:2676   */\n      tag_124\n        /* \"#utility.yul\":2668:2675   */\n      dup5\n        /* \"#utility.yul\":2659:2665   */\n      dup3\n        /* \"#utility.yul\":2648:2657   */\n      dup6\n        /* \"#utility.yul\":2644:2666   */\n      add\n        /* \"#utility.yul\":2623:2676   */\n      tag_83\n      jump\t// in\n    tag_124:\n        /* \"#utility.yul\":2613:2676   */\n      swap2\n      pop\n        /* \"#utility.yul\":2569:2686   */\n      pop\n        /* \"#utility.yul\":2364:2693   */\n      swap3\n      swap2\n      pop\n      pop\n      jump\t// out\n        /* \"#utility.yul\":2699:2846   */\n    tag_86:\n        /* \"#utility.yul\":2800:2811   */\n      0x00\n        /* \"#utility.yul\":2837:2840   */\n      dup2\n        /* \"#utility.yul\":2822:2840   */\n      swap1\n      pop\n        /* \"#utility.yul\":2699:2846   */\n      swap3\n      swap2\n      pop\n      pop\n      jump\t// out\n        /* \"#utility.yul\":2852:2966   */\n    tag_87:\n      pop\n      jump\t// out\n        /* \"#utility.yul\":2972:3370   */\n    tag_88:\n        /* \"#utility.yul\":3131:3134   */\n      0x00\n        /* \"#utility.yul\":3152:3235   */\n      tag_128\n        /* \"#utility.yul\":3233:3234   */\n      0x00\n        /* \"#utility.yul\":3228:3231   */\n      dup4\n        /* \"#utility.yul\":3152:3235   */\n      tag_86\n      jump\t// in\n    tag_128:\n        /* \"#utility.yul\":3145:3235   */\n      swap2\n      pop\n        /* \"#utility.yul\":3244:3337   */\n      tag_129\n        /* \"#utility.yul\":3333:3336   */\n      dup3\n        /* \"#utility.yul\":3244:3337   */\n      tag_87\n      jump\t// in\n    tag_129:\n        /* \"#utility.yul\":3362:3363   */\n      0x00\n        /* \"#utility.yul\":3357:3360   */\n      dup3\n        /* \"#utility.yul\":3353:3364   */\n      add\n        /* \"#utility.yul\":3346:3364   */\n      swap1\n      pop\n        /* \"#utility.yul\":2972:3370   */\n      swap2\n      swap1\n      pop\n      jump\t// out\n        /* \"#utility.yul\":3376:3755   */\n    tag_47:\n        /* \"#utility.yul\":3560:3563   */\n      0x00\n        /* \"#utility.yul\":3582:3729   */\n      tag_131\n        /* \"#utility.yul\":3725:3728   */\n      dup3\n        /* \"#utility.yul\":3582:3729   */\n      tag_88\n      jump\t// in\n    tag_131:\n        /* \"#utility.yul\":3575:3729   */\n      swap2\n      pop\n        /* \"#utility.yul\":3746:3749   */\n      dup2\n        /* \"#utility.yul\":3739:3749   */\n      swap1\n      pop\n        /* \"#utility.yul\":3376:3755   */\n      swap2\n      swap1\n      pop\n      jump\t// out\n        /* \"#utility.yul\":3761:3941   */\n    tag_89:\n        /* \"#utility.yul\":3809:3886   */\n      0x4e487b7100000000000000000000000000000000000000000000000000000000\n        /* \"#utility.yul\":3806:3807   */\n      0x00\n        /* \"#utility.yul\":3799:3887   */\n      mstore\n        /* \"#utility.yul\":3906:3910   */\n      0x11\n        /* \"#utility.yul\":3903:3904   */\n      0x04\n        /* \"#utility.yul\":3896:3911   */\n      mstore\n        /* \"#utility.yul\":3930:3934   */\n      0x24\n        /* \"#utility.yul\":3927:3928   */\n      0x00\n        /* \"#utility.yul\":3920:3935   */\n      revert\n        /* \"#utility.yul\":3947:4138   */\n    tag_56:\n        /* \"#utility.yul\":3987:3990   */\n      0x00\n        /* \"#utility.yul\":4006:4026   */\n      tag_134\n        /* \"#utility.yul\":4024:4025   */\n      dup3\n        /* \"#utility.yul\":4006:4026   */\n      tag_75\n      jump\t// in\n    tag_134:\n        /* \"#utility.yul\":4001:4026   */\n      swap2\n      pop\n        /* \"#utility.yul\":4040:4060   */\n      tag_135\n        /* \"#utility.yul\":4058:4059   */\n      dup4\n        /* \"#utility.yul\":4040:4060   */\n      tag_75\n      jump\t// in\n    tag_135:\n        /* \"#utility.yul\":4035:4060   */\n      swap3\n      pop\n        /* \"#utility.yul\":4083:4084   */\n      dup3\n        /* \"#utility.yul\":4080:4081   */\n      dup3\n        /* \"#utility.yul\":4076:4085   */\n      add\n        /* \"#utility.yul\":4069:4085   */\n      swap1\n      pop\n        /* \"#utility.yul\":4104:4107   */\n      dup1\n        /* \"#utility.yul\":4101:4102   */\n      dup3\n        /* \"#utility.yul\":4098:4108   */\n      gt\n        /* \"#utility.yul\":4095:4131   */\n      iszero\n      tag_136\n      jumpi\n        /* \"#utility.yul\":4111:4129   */\n      tag_137\n      tag_89\n      jump\t// in\n    tag_137:\n        /* \"#utility.yul\":4095:4131   */\n    tag_136:\n        /* \"#utility.yul\":3947:4138   */\n      swap3\n      swap2\n      pop\n      pop\n      jump\t// out\n        /* \"#utility.yul\":4144:4324   */\n    tag_74:\n        /* \"#utility.yul\":4192:4269   */\n      0x4e487b7100000000000000000000000000000000000000000000000000000000\n        /* \"#utility.yul\":4189:4190   */\n      0x00\n        /* \"#utility.yul\":4182:4270   */\n      mstore\n        /* \"#utility.yul\":4289:4293   */\n      0x12\n        /* \"#utility.yul\":4286:4287   */\n      0x04\n        /* \"#utility.yul\":4279:4294   */\n      mstore\n        /* \"#utility.yul\":4313:4317   */\n      0x24\n        /* \"#utility.yul\":4310:4311   */\n      0x00\n        /* \"#utility.yul\":4303:4318   */\n      revert\n\n    auxdata: 0xa264697066735822122068b1585fec0690f1f254ec8b8dcdf5bfdfcf226f0d643f5a8881a5da074db13264736f6c634300081b0033\n}\n",
				"bytecode": {
					"linkReferences": {},
					"object": "6080604052610c45600255335f5f6101000a81548173ffffffffffffffffffffffffffffffffffffffff021916908373ffffffffffffffffffffffffffffffffffffffff1602179055507fffffffffffffffffffffffffffffffffffffffffffffffffffffffffffffffff60015f5f5f9054906101000a900473ffffffffffffffffffffffffffffffffffffffff1673ffffffffffffffffffffffffffffffffffffffff1673ffffffffffffffffffffffffffffffffffffffff1681526020019081526020015f208190555061076d806100d85f395ff3fe608060405260043610610073575f3560e01c806369fe0e2d1161004d57806369fe0e2d146100d25780638fcb5d4f146100fa578063e6b2603b14610136578063f2fde38b1461014c57610074565b806324a9d853146100765780633ccfd60b146100a057806347e7ef24146100b657610074565b5b005b348015610081575f5ffd5b5061008a610174565b6040516100979190610534565b60405180910390f35b3480156100ab575f5ffd5b506100b461017a565b005b6100d060048036038101906100cb91906105d5565b610272565b005b3480156100dd575f5ffd5b506100f860048036038101906100f39190610613565b6102de565b005b348015610105575f5ffd5b50610120600480360381019061011b919061063e565b61033f565b60405161012d9190610534565b60405180910390f35b348015610141575f5ffd5b5061014a610385565b005b348015610157575f5ffd5b50610172600480360381019061016d919061063e565b610461565b005b60025481565b5f60015f3373ffffffffffffffffffffffffffffffffffffffff1673ffffffffffffffffffffffffffffffffffffffff1681526020019081526020015f205490505f60015f3373ffffffffffffffffffffffffffffffffffffffff1673ffffffffffffffffffffffffffffffffffffffff1681526020019081526020015f20819055505f3373ffffffffffffffffffffffffffffffffffffffff168260405161022290610696565b5f6040518083038185875af1925050503d805f811461025c576040519150601f19603f3d011682016040523d82523d5f602084013e610261565b606091505b505090508061026e575f5ffd5b5050565b5f5f61027e34846104fa565b905080340391508160015f8673ffffffffffffffffffffffffffffffffffffffff1673ffffffffffffffffffffffffffffffffffffffff1681526020019081526020015f205f8282546102d191906106d7565b9250508190555050505050565b5f5f9054906101000a900473ffffffffffffffffffffffffffffffffffffffff1673ffffffffffffffffffffffffffffffffffffffff163373ffffffffffffffffffffffffffffffffffffffff1614610335575f5ffd5b8060028190555050565b5f60015f8373ffffffffffffffffffffffffffffffffffffffff1673ffffffffffffffffffffffffffffffffffffffff1681526020019081526020015f20549050919050565b7fffffffffffffffffffffffffffffffffffffffffffffffffffffffffffffffff60015f3373ffffffffffffffffffffffffffffffffffffffff1673ffffffffffffffffffffffffffffffffffffffff1681526020019081526020015f2054146103ed575f5ffd5b5f3373ffffffffffffffffffffffffffffffffffffffff164760405161041290610696565b5f6040518083038185875af1925050503d805f811461044c576040519150601f19603f3d011682016040523d82523d5f602084013e610451565b606091505b505090508061045e575f5ffd5b50565b5f5f9054906101000a900473ffffffffffffffffffffffffffffffffffffffff1673ffffffffffffffffffffffffffffffffffffffff163373ffffffffffffffffffffffffffffffffffffffff16146104b8575f5ffd5b805f5f6101000a81548173ffffffffffffffffffffffffffffffffffffffff021916908373ffffffffffffffffffffffffffffffffffffffff16021790555050565b5f61271082600254018402816105135761051261070a565b5b04905092915050565b5f819050919050565b61052e8161051c565b82525050565b5f6020820190506105475f830184610525565b92915050565b5f5ffd5b5f73ffffffffffffffffffffffffffffffffffffffff82169050919050565b5f61057a82610551565b9050919050565b61058a81610570565b8114610594575f5ffd5b50565b5f813590506105a581610581565b92915050565b6105b48161051c565b81146105be575f5ffd5b50565b5f813590506105cf816105ab565b92915050565b5f5f604083850312156105eb576105ea61054d565b5b5f6105f885828601610597565b9250506020610609858286016105c1565b9150509250929050565b5f602082840312156106285761062761054d565b5b5f610635848285016105c1565b91505092915050565b5f602082840312156106535761065261054d565b5b5f61066084828501610597565b91505092915050565b5f81905092915050565b50565b5f6106815f83610669565b915061068c82610673565b5f82019050919050565b5f6106a082610676565b9150819050919050565b7f4e487b71000000000000000000000000000000000000000000000000000000005f52601160045260245ffd5b5f6106e18261051c565b91506106ec8361051c565b9250828201905080821115610704576107036106aa565b5b92915050565b7f4e487b71000000000000000000000000000000000000000000000000000000005f52601260045260245ffdfea264697066735822122068b1585fec0690f1f254ec8b8dcdf5bfdfcf226f0d643f5a8881a5da074db13264736f6c634300081b0033",
					"opcodes": "PUSH1 0x80 PUSH1 0x40 MSTORE PUSH2 0xC45 PUSH1 0x2 SSTORE CALLER PUSH0 PUSH0 PUSH2 0x100 EXP DUP2 SLOAD DUP2 PUSH20 0xFFFFFFFFFFFFFFFFFFFFFFFFFFFFFFFFFFFFFFFF MUL NOT AND SWAP1 DUP4 PUSH20 0xFFFFFFFFFFFFFFFFFFFFFFFFFFFFFFFFFFFFFFFF AND MUL OR SWAP1 SSTORE POP PUSH32 0xFFFFFFFFFFFFFFFFFFFFFFFFFFFFFFFFFFFFFFFFFFFFFFFFFFFFFFFFFFFFFFFF PUSH1 0x1 PUSH0 PUSH0 PUSH0 SWAP1 SLOAD SWAP1 PUSH2 0x100 EXP SWAP1 DIV PUSH20 0xFFFFFFFFFFFFFFFFFFFFFFFFFFFFFFFFFFFFFFFF AND PUSH20 0xFFFFFFFFFFFFFFFFFFFFFFFFFFFFFFFFFFFFFFFF AND PUSH20 0xFFFFFFFFFFFFFFFFFFFFFFFFFFFFFFFFFFFFFFFF AND DUP2 MSTORE PUSH1 0x20 ADD SWAP1 DUP2 MSTORE PUSH1 0x20 ADD PUSH0 KECCAK256 DUP2 SWAP1 SSTORE POP PUSH2 0x76D DUP1 PUSH2 0xD8 PUSH0 CODECOPY PUSH0 RETURN INVALID PUSH1 0x80 PUSH1 0x40 MSTORE PUSH1 0x4 CALLDATASIZE LT PUSH2 0x73 JUMPI PUSH0 CALLDATALOAD PUSH1 0xE0 SHR DUP1 PUSH4 0x69FE0E2D GT PUSH2 0x4D JUMPI DUP1 PUSH4 0x69FE0E2D EQ PUSH2 0xD2 JUMPI DUP1 PUSH4 0x8FCB5D4F EQ PUSH2 0xFA JUMPI DUP1 PUSH4 0xE6B2603B EQ PUSH2 0x136 JUMPI DUP1 PUSH4 0xF2FDE38B EQ PUSH2 0x14C JUMPI PUSH2 0x74 JUMP JUMPDEST DUP1 PUSH4 0x24A9D853 EQ PUSH2 0x76 JUMPI DUP1 PUSH4 0x3CCFD60B EQ PUSH2 0xA0 JUMPI DUP1 PUSH4 0x47E7EF24 EQ PUSH2 0xB6 JUMPI PUSH2 0x74 JUMP JUMPDEST JUMPDEST STOP JUMPDEST CALLVALUE DUP1 ISZERO PUSH2 0x81 JUMPI PUSH0 PUSH0 REVERT JUMPDEST POP PUSH2 0x8A PUSH2 0x174 JUMP JUMPDEST PUSH1 0x40 MLOAD PUSH2 0x97 SWAP2 SWAP1 PUSH2 0x534 JUMP JUMPDEST PUSH1 0x40 MLOAD DUP1 SWAP2 SUB SWAP1 RETURN JUMPDEST CALLVALUE DUP1 ISZERO PUSH2 0xAB JUMPI PUSH0 PUSH0 REVERT JUMPDEST POP PUSH2 0xB4 PUSH2 0x17A JUMP JUMPDEST STOP JUMPDEST PUSH2 0xD0 PUSH1 0x4 DUP1 CALLDATASIZE SUB DUP2 ADD SWAP1 PUSH2 0xCB SWAP2 SWAP1 PUSH2 0x5D5 JUMP JUMPDEST PUSH2 0x272 JUMP JUMPDEST STOP JUMPDEST CALLVALUE DUP1 ISZERO PUSH2 0xDD JUMPI PUSH0 PUSH0 REVERT JUMPDEST POP PUSH2 0xF8 PUSH1 0x4 DUP1 CALLDATASIZE SUB DUP2 ADD SWAP1 PUSH2 0xF3 SWAP2 SWAP1 PUSH2 0x613 JUMP JUMPDEST PUSH2 0x2DE JUMP JUMPDEST STOP JUMPDEST CALLVALUE DUP1 ISZERO PUSH2 0x105 JUMPI PUSH0 PUSH0 REVERT JUMPDEST POP PUSH2 0x120 PUSH1 0x4 DUP1 CALLDATASIZE SUB DUP2 ADD SWAP1 PUSH2 0x11B SWAP2 SWAP1 PUSH2 0x63E JUMP JUMPDEST PUSH2 0x33F JUMP JUMPDEST PUSH1 0x40 MLOAD PUSH2 0x12D SWAP2 SWAP1 PUSH2 0x534 JUMP JUMPDEST PUSH1 0x40 MLOAD DUP1 SWAP2 SUB SWAP1 RETURN JUMPDEST CALLVALUE DUP1 ISZERO PUSH2 0x141 JUMPI PUSH0 PUSH0 REVERT JUMPDEST POP PUSH2 0x14A PUSH2 0x385 JUMP JUMPDEST STOP JUMPDEST CALLVALUE DUP1 ISZERO PUSH2 0x157 JUMPI PUSH0 PUSH0 REVERT JUMPDEST POP PUSH2 0x172 PUSH1 0x4 DUP1 CALLDATASIZE SUB DUP2 ADD SWAP1 PUSH2 0x16D SWAP2 SWAP1 PUSH2 0x63E JUMP JUMPDEST PUSH2 0x461 JUMP JUMPDEST STOP JUMPDEST PUSH1 0x2 SLOAD DUP2 JUMP JUMPDEST PUSH0 PUSH1 0x1 PUSH0 CALLER PUSH20 0xFFFFFFFFFFFFFFFFFFFFFFFFFFFFFFFFFFFFFFFF AND PUSH20 0xFFFFFFFFFFFFFFFFFFFFFFFFFFFFFFFFFFFFFFFF AND DUP2 MSTORE PUSH1 0x20 ADD SWAP1 DUP2 MSTORE PUSH1 0x20 ADD PUSH0 KECCAK256 SLOAD SWAP1 POP PUSH0 PUSH1 0x1 PUSH0 CALLER PUSH20 0xFFFFFFFFFFFFFFFFFFFFFFFFFFFFFFFFFFFFFFFF AND PUSH20 0xFFFFFFFFFFFFFFFFFFFFFFFFFFFFFFFFFFFFFFFF AND DUP2 MSTORE PUSH1 0x20 ADD SWAP1 DUP2 MSTORE PUSH1 0x20 ADD PUSH0 KECCAK256 DUP2 SWAP1 SSTORE POP PUSH0 CALLER PUSH20 0xFFFFFFFFFFFFFFFFFFFFFFFFFFFFFFFFFFFFFFFF AND DUP3 PUSH1 0x40 MLOAD PUSH2 0x222 SWAP1 PUSH2 0x696 JUMP JUMPDEST PUSH0 PUSH1 0x40 MLOAD DUP1 DUP4 SUB DUP2 DUP6 DUP8 GAS CALL SWAP3 POP POP POP RETURNDATASIZE DUP1 PUSH0 DUP2 EQ PUSH2 0x25C JUMPI PUSH1 0x40 MLOAD SWAP2 POP PUSH1 0x1F NOT PUSH1 0x3F RETURNDATASIZE ADD AND DUP3 ADD PUSH1 0x40 MSTORE RETURNDATASIZE DUP3 MSTORE RETURNDATASIZE PUSH0 PUSH1 0x20 DUP5 ADD RETURNDATACOPY PUSH2 0x261 JUMP JUMPDEST PUSH1 0x60 SWAP2 POP JUMPDEST POP POP SWAP1 POP DUP1 PUSH2 0x26E JUMPI PUSH0 PUSH0 REVERT JUMPDEST POP POP JUMP JUMPDEST PUSH0 PUSH0 PUSH2 0x27E CALLVALUE DUP5 PUSH2 0x4FA JUMP JUMPDEST SWAP1 POP DUP1 CALLVALUE SUB SWAP2 POP DUP2 PUSH1 0x1 PUSH0 DUP7 PUSH20 0xFFFFFFFFFFFFFFFFFFFFFFFFFFFFFFFFFFFFFFFF AND PUSH20 0xFFFFFFFFFFFFFFFFFFFFFFFFFFFFFFFFFFFFFFFF AND DUP2 MSTORE PUSH1 0x20 ADD SWAP1 DUP2 MSTORE PUSH1 0x20 ADD PUSH0 KECCAK256 PUSH0 DUP3 DUP3 SLOAD PUSH2 0x2D1 SWAP2 SWAP1 PUSH2 0x6D7 JUMP JUMPDEST SWAP3 POP POP DUP2 SWAP1 SSTORE POP POP POP POP POP JUMP JUMPDEST PUSH0 PUSH0 SWAP1 SLOAD SWAP1 PUSH2 0x100 EXP SWAP1 DIV PUSH20 0xFFFFFFFFFFFFFFFFFFFFFFFFFFFFFFFFFFFFFFFF AND PUSH20 0xFFFFFFFFFFFFFFFFFFFFFFFFFFFFFFFFFFFFFFFF AND CALLER PUSH20 0xFFFFFFFFFFFFFFFFFFFFFFFFFFFFFFFFFFFFFFFF AND EQ PUSH2 0x335 JUMPI PUSH0 PUSH0 REVERT JUMPDEST DUP1 PUSH1 0x2 DUP2 SWAP1 SSTORE POP POP JUMP JUMPDEST PUSH0 PUSH1 0x1 PUSH0 DUP4 PUSH20 0xFFFFFFFFFFFFFFFFFFFFFFFFFFFFFFFFFFFFFFFF AND PUSH20 0xFFFFFFFFFFFFFFFFFFFFFFFFFFFFFFFFFFFFFFFF AND DUP2 MSTORE PUSH1 0x20 ADD SWAP1 DUP2 MSTORE PUSH1 0x20 ADD PUSH0 KECCAK256 SLOAD SWAP1 POP SWAP2 SWAP1 POP JUMP JUMPDEST PUSH32 0xFFFFFFFFFFFFFFFFFFFFFFFFFFFFFFFFFFFFFFFFFFFFFFFFFFFFFFFFFFFFFFFF PUSH1 0x1 PUSH0 CALLER PUSH20 0xFFFFFFFFFFFFFFFFFFFFFFFFFFFFFFFFFFFFFFFF AND PUSH20 0xFFFFFFFFFFFFFFFFFFFFFFFFFFFFFFFFFFFFFFFF AND DUP2 MSTORE PUSH1 0x20 ADD SWAP1 DUP2 MSTORE PUSH1 0x20 ADD PUSH0 KECCAK256 SLOAD EQ PUSH2 0x3ED JUMPI PUSH0 PUSH0 REVERT JUMPDEST PUSH0 CALLER PUSH20 0xFFFFFFFFFFFFFFFFFFFFFFFFFFFFFFFFFFFFFFFF AND SELFBALANCE PUSH1 0x40 MLOAD PUSH2 0x412 SWAP1 PUSH2 0x696 JUMP JUMPDEST PUSH0 PUSH1 0x40 MLOAD DUP1 DUP4 SUB DUP2 DUP6 DUP8 GAS CALL SWAP3 POP POP POP RETURNDATASIZE DUP1 PUSH0 DUP2 EQ PUSH2 0x44C JUMPI PUSH1 0x40 MLOAD SWAP2 POP PUSH1 0x1F NOT PUSH1 0x3F RETURNDATASIZE ADD AND DUP3 ADD PUSH1 0x40 MSTORE RETURNDATASIZE DUP3 MSTORE RETURNDATASIZE PUSH0 PUSH1 0x20 DUP5 ADD RETURNDATACOPY PUSH2 0x451 JUMP JUMPDEST PUSH1 0x60 SWAP2 POP JUMPDEST POP POP SWAP1 POP DUP1 PUSH2 0x45E JUMPI PUSH0 PUSH0 REVERT JUMPDEST POP JUMP JUMPDEST PUSH0 PUSH0 SWAP1 SLOAD SWAP1 PUSH2 0x100 EXP SWAP1 DIV PUSH20 0xFFFFFFFFFFFFFFFFFFFFFFFFFFFFFFFFFFFFFFFF AND PUSH20 0xFFFFFFFFFFFFFFFFFFFFFFFFFFFFFFFFFFFFFFFF AND CALLER PUSH20 0xFFFFFFFFFFFFFFFFFFFFFFFFFFFFFFFFFFFFFFFF AND EQ PUSH2 0x4B8 JUMPI PUSH0 PUSH0 REVERT JUMPDEST DUP1 PUSH0 PUSH0 PUSH2 0x100 EXP DUP2 SLOAD DUP2 PUSH20 0xFFFFFFFFFFFFFFFFFFFFFFFFFFFFFFFFFFFFFFFF MUL NOT AND SWAP1 DUP4 PUSH20 0xFFFFFFFFFFFFFFFFFFFFFFFFFFFFFFFFFFFFFFFF AND MUL OR SWAP1 SSTORE POP POP JUMP JUMPDEST PUSH0 PUSH2 0x2710 DUP3 PUSH1 0x2 SLOAD ADD DUP5 MUL DUP2 PUSH2 0x513 JUMPI PUSH2 0x512 PUSH2 0x70A JUMP JUMPDEST JUMPDEST DIV SWAP1 POP SWAP3 SWAP2 POP POP JUMP JUMPDEST PUSH0 DUP2 SWAP1 POP SWAP2 SWAP1 POP JUMP JUMPDEST PUSH2 0x52E DUP2 PUSH2 0x51C JUMP JUMPDEST DUP3 MSTORE POP POP JUMP JUMPDEST PUSH0 PUSH1 0x20 DUP3 ADD SWAP1 POP PUSH2 0x547 PUSH0 DUP4 ADD DUP5 PUSH2 0x525 JUMP JUMPDEST SWAP3 SWAP2 POP POP JUMP JUMPDEST PUSH0 PUSH0 REVERT JUMPDEST PUSH0 PUSH20 0xFFFFFFFFFFFFFFFFFFFFFFFFFFFFFFFFFFFFFFFF DUP3 AND SWAP1 POP SWAP2 SWAP1 POP JUMP JUMPDEST PUSH0 PUSH2 0x57A DUP3 PUSH2 0x551 JUMP JUMPDEST SWAP1 POP SWAP2 SWAP1 POP JUMP JUMPDEST PUSH2 0x58A DUP2 PUSH2 0x570 JUMP JUMPDEST DUP2 EQ PUSH2 0x594 JUMPI PUSH0 PUSH0 REVERT JUMPDEST POP JUMP JUMPDEST PUSH0 DUP2 CALLDATALOAD SWAP1 POP PUSH2 0x5A5 DUP2 PUSH2 0x581 JUMP JUMPDEST SWAP3 SWAP2 POP POP JUMP JUMPDEST PUSH2 0x5B4 DUP2 PUSH2 0x51C JUMP JUMPDEST DUP2 EQ PUSH2 0x5BE JUMPI PUSH0 PUSH0 REVERT JUMPDEST POP JUMP JUMPDEST PUSH0 DUP2 CALLDATALOAD SWAP1 POP PUSH2 0x5CF DUP2 PUSH2 0x5AB JUMP JUMPDEST SWAP3 SWAP2 POP POP JUMP JUMPDEST PUSH0 PUSH0 PUSH1 0x40 DUP4 DUP6 SUB SLT ISZERO PUSH2 0x5EB JUMPI PUSH2 0x5EA PUSH2 0x54D JUMP JUMPDEST JUMPDEST PUSH0 PUSH2 0x5F8 DUP6 DUP3 DUP7 ADD PUSH2 0x597 JUMP JUMPDEST SWAP3 POP POP PUSH1 0x20 PUSH2 0x609 DUP6 DUP3 DUP7 ADD PUSH2 0x5C1 JUMP JUMPDEST SWAP2 POP POP SWAP3 POP SWAP3 SWAP1 POP JUMP JUMPDEST PUSH0 PUSH1 0x20 DUP3 DUP5 SUB SLT ISZERO PUSH2 0x628 JUMPI PUSH2 0x627 PUSH2 0x54D JUMP JUMPDEST JUMPDEST PUSH0 PUSH2 0x635 DUP5 DUP3 DUP6 ADD PUSH2 0x5C1 JUMP JUMPDEST SWAP2 POP POP SWAP3 SWAP2 POP POP JUMP JUMPDEST PUSH0 PUSH1 0x20 DUP3 DUP5 SUB SLT ISZERO PUSH2 0x653 JUMPI PUSH2 0x652 PUSH2 0x54D JUMP JUMPDEST JUMPDEST PUSH0 PUSH2 0x660 DUP5 DUP3 DUP6 ADD PUSH2 0x597 JUMP JUMPDEST SWAP2 POP POP SWAP3 SWAP2 POP POP JUMP JUMPDEST PUSH0 DUP2 SWAP1 POP SWAP3 SWAP2 POP POP JUMP JUMPDEST POP JUMP JUMPDEST PUSH0 PUSH2 0x681 PUSH0 DUP4 PUSH2 0x669 JUMP JUMPDEST SWAP2 POP PUSH2 0x68C DUP3 PUSH2 0x673 JUMP JUMPDEST PUSH0 DUP3 ADD SWAP1 POP SWAP2 SWAP1 POP JUMP JUMPDEST PUSH0 PUSH2 0x6A0 DUP3 PUSH2 0x676 JUMP JUMPDEST SWAP2 POP DUP2 SWAP1 POP SWAP2 SWAP1 POP JUMP JUMPDEST PUSH32 0x4E487B7100000000000000000000000000000000000000000000000000000000 PUSH0 MSTORE PUSH1 0x11 PUSH1 0x4 MSTORE PUSH1 0x24 PUSH0 REVERT JUMPDEST PUSH0 PUSH2 0x6E1 DUP3 PUSH2 0x51C JUMP JUMPDEST SWAP2 POP PUSH2 0x6EC DUP4 PUSH2 0x51C JUMP JUMPDEST SWAP3 POP DUP3 DUP3 ADD SWAP1 POP DUP1 DUP3 GT ISZERO PUSH2 0x704 JUMPI PUSH2 0x703 PUSH2 0x6AA JUMP JUMPDEST JUMPDEST SWAP3 SWAP2 POP POP JUMP JUMPDEST PUSH32 0x4E487B7100000000000000000000000000000000000000000000000000000000 PUSH0 MSTORE PUSH1 0x12 PUSH1 0x4 MSTORE PUSH1 0x24 PUSH0 REVERT INVALID LOG2 PUSH5 0x6970667358 0x22 SLT KECCAK256 PUSH9 0xB1585FEC0690F1F254 0xEC DUP12 DUP14 0xCD CREATE2 0xBF 0xDF 0xCF 0x22 PUSH16 0xD643F5A8881A5DA074DB13264736F6C PUSH4 0x4300081B STOP CALLER "
				},
				"gasEstimates": {
					"creation": {
						"codeDepositCost": "380200",
						"executionCost": "71098",
						"totalCost": "451298"
					},
					"external": {
						"": "151",
						"deposit(address,uint256)": "infinite",
						"feeBps()": "2426",
						"rescueFunds()": "infinite",
						"setFee(uint256)": "24683",
						"transferOwnership(address)": "26948",
						"viewDeposit(address)": "2851",
						"withdraw()": "infinite"
					},
					"internal": {
						"_calculateFee(uint256,uint256)": "2168"
					}
				},
				"methodIdentifiers": {
					"deposit(address,uint256)": "47e7ef24",
					"feeBps()": "24a9d853",
					"rescueFunds()": "e6b2603b",
					"setFee(uint256)": "69fe0e2d",
					"transferOwnership(address)": "f2fde38b",
					"viewDeposit(address)": "8fcb5d4f",
					"withdraw()": "3ccfd60b"
				}
			},
			"storageLayout": {
				"storage": [
					{
						"astId": 54,
						"contract": "contracts/BlockHeadersCTF.sol:BlockHeadersCTF",
						"label": "owner",
						"offset": 0,
						"slot": "0",
						"type": "t_address"
					},
					{
						"astId": 58,
						"contract": "contracts/BlockHeadersCTF.sol:BlockHeadersCTF",
						"label": "deposits",
						"offset": 0,
						"slot": "1",
						"type": "t_mapping(t_address,t_uint256)"
					},
					{
						"astId": 64,
						"contract": "contracts/BlockHeadersCTF.sol:BlockHeadersCTF",
						"label": "feeBps",
						"offset": 0,
						"slot": "2",
						"type": "t_uint256"
					}
				],
				"types": {
					"t_address": {
						"encoding": "inplace",
						"label": "address",
						"numberOfBytes": "20"
					},
					"t_mapping(t_address,t_uint256)": {
						"encoding": "mapping",
						"key": "t_address",
						"label": "mapping(address => uint256)",
						"numberOfBytes": "32",
						"value": "t_uint256"
					},
					"t_uint256": {
						"encoding": "inplace",
						"label": "uint256",
						"numberOfBytes": "32"
					}
				}
			},
			"userdoc": {
				"kind": "user",
				"methods": {},
				"version": 1
			}
		}
	}
}