{
	"data": {
		"bytecode": {
			"linkReferences": {},
			"object": "60806040527f8000000000000000000000000000000000000000000000000000000000000000600155348015610033575f5ffd5b50604051610238380380610238833981810160405281019061005591906100dd565b8073ffffffffffffffffffffffffffffffffffffffff165f5f9054906101000a9050505050610108565b5f5ffd5b5f73ffffffffffffffffffffffffffffffffffffffff82169050919050565b5f6100ac82610083565b9050919050565b6100bc816100a2565b81146100c6575f5ffd5b50565b5f815190506100d7816100b3565b92915050565b5f602082840312156100f2576100f161007f565b5b5f6100ff848285016100c9565b91505092915050565b610123806101155f395ff3fe6080604052348015600e575f5ffd5b50600436106026575f3560e01c8063f32d251d14602a575b5f5ffd5b60306044565b604051603b919060d6565b60405180910390f35b5f5f9054906101000a900473ffffffffffffffffffffffffffffffffffffffff1681565b5f73ffffffffffffffffffffffffffffffffffffffff82169050919050565b5f819050919050565b5f60a460a0609c846068565b6087565b6068565b9050919050565b5f60b3826090565b9050919050565b5f60c28260ab565b9050919050565b60d08160ba565b82525050565b5f60208201905060e75f83018460c9565b9291505056fea264697066735822122060a8e7758c42349b0bce4f99711c6f79a0edff16d232d4b7cf64f5605741c63164736f6c634300081b0033",
			"opcodes": "PUSH1 0x80 PUSH1 0x40 MSTORE PUSH32 0x8000000000000000000000000000000000000000000000000000000000000000 PUSH1 0x1 SSTORE CALLVALUE DUP1 ISZERO PUSH2 0x33 JUMPI PUSH0 PUSH0 REVERT JUMPDEST POP PUSH1 0x40 MLOAD PUSH2 0x238 CODESIZE SUB DUP1 PUSH2 0x238 DUP4 CODECOPY DUP2 DUP2 ADD PUSH1 0x40 MSTORE DUP2 ADD SWAP1 PUSH2 0x55 SWAP2 SWAP1 PUSH2 0xDD JUMP JUMPDEST DUP1 PUSH20 0xFFFFFFFFFFFFFFFFFFFFFFFFFFFFFFFFFFFFFFFF AND PUSH0 PUSH0 SWAP1 SLOAD SWAP1 PUSH2 0x100 EXP SWAP1 POP POP POP POP PUSH2 0x108 JUMP JUMPDEST PUSH0 PUSH0 REVERT JUMPDEST PUSH0 PUSH20 0xFFFFFFFFFFFFFFFFFFFFFFFFFFFFFFFFFFFFFFFF DUP3 AND SWAP1 POP SWAP2 SWAP1 POP JUMP JUMPDEST PUSH0 PUSH2 0xAC DUP3 PUSH2 0x83 JUMP JUMPDEST SWAP1 POP SWAP2 SWAP1 POP JUMP JUMPDEST PUSH2 0xBC DUP2 PUSH2 0xA2 JUMP JUMPDEST DUP2 EQ PUSH2 0xC6 JUMPI PUSH0 PUSH0 REVERT JUMPDEST POP JUMP JUMPDEST PUSH0 DUP2 MLOAD SWAP1 POP PUSH2 0xD7 DUP2 PUSH2 0xB3 JUMP JUMPDEST SWAP3 SWAP2 POP POP JUMP JUMPDEST PUSH0 PUSH1 0x20 DUP3 DUP5 SUB SLT ISZERO PUSH2 0xF2 JUMPI PUSH2 0xF1 PUSH2 0x7F JUMP JUMPDEST JUMPDEST PUSH0 PUSH2 0xFF DUP5 DUP3 DUP6 ADD PUSH2 0xC9 JUMP JUMPDEST SWAP2 POP POP SWAP3 SWAP2 POP POP JUMP JUMPDEST PUSH2 0x123 DUP1 PUSH2 0x115 PUSH0 CODECOPY PUSH0 RETURN INVALID PUSH1 0x80 PUSH1 0x40 MSTORE CALLVALUE DUP1 ISZERO PUSH1 0xE JUMPI PUSH0 PUSH0 REVERT JUMPDEST POP PUSH1 0x4 CALLDATASIZE LT PUSH1 0x26 JUMPI PUSH0 CALLDATALOAD PUSH1 0xE0 SHR DUP1 PUSH4 0xF32D251D EQ PUSH1 0x2A JUMPI JUMPDEST PUSH0 PUSH0 REVERT JUMPDEST PUSH1 0x30 PUSH1 0x44 JUMP JUMPDEST PUSH1 0x40 MLOAD PUSH1 0x3B SWAP2 SWAP1 PUSH1 0xD6 JUMP JUMPDEST PUSH1 0x40 MLOAD DUP1 SWAP2 SUB SWAP1 RETURN JUMPDEST PUSH0 PUSH0 SWAP1 SLOAD SWAP1 PUSH2 0x100 EXP SWAP1 DIV PUSH20 0xFFFFFFFFFFFFFFFFFFFFFFFFFFFFFFFFFFFFFFFF AND DUP2 JUMP JUMPDEST PUSH0 PUSH20 0xFFFFFFFFFFFFFFFFFFFFFFFFFFFFFFFFFFFFFFFF DUP3 AND SWAP1 POP SWAP2 SWAP1 POP JUMP JUMPDEST PUSH0 DUP2 SWAP1 POP SWAP2 SWAP1 POP JUMP JUMPDEST PUSH0 PUSH1 0xA4 PUSH1 0xA0 PUSH1 0x9C DUP5 PUSH1 0x68 JUMP JUMPDEST PUSH1 0x87 JUMP JUMPDEST PUSH1 0x68 JUMP JUMPDEST SWAP1 POP SWAP2 SWAP1 POP JUMP JUMPDEST PUSH0 PUSH1 0xB3 DUP3 PUSH1 0x90 JUMP JUMPDEST SWAP1 POP SWAP2 SWAP1 POP JUMP JUMPDEST PUSH0 PUSH1 0xC2 DUP3 PUSH1 0xAB JUMP JUMPDEST SWAP1 POP SWAP2 SWAP1 POP JUMP JUMPDEST PUSH1 0xD0 DUP2 PUSH1 0xBA JUMP JUMPDEST DUP3 MSTORE POP POP JUMP JUMPDEST PUSH0 PUSH1 0x20 DUP3 ADD SWAP1 POP PUSH1 0xE7 PUSH0 DUP4 ADD DUP5 PUSH1 0xC9 JUMP JUMPDEST SWAP3 SWAP2 POP POP JUMP INVALID LOG2 PUSH5 0x6970667358 0x22 SLT KECCAK256 PUSH1 0xA8 0xE7 PUSH22 0x8C42349B0BCE4F99711C6F79A0EDFF16D232D4B7CF64 CREATE2 PUSH1 0x57 COINBASE 0xC6 BALANCE PUSH5 0x736F6C6343 STOP ADDMOD SHL STOP CALLER "
		},
		"gasEstimates": {
			"creation": {
				"codeDepositCost": "58200",
				"executionCost": "infinite",
				"totalCost": "infinite"
			},
			"external": {
				"victimContract()": "infinite"
			}
		},
		"methodIdentifiers": {
			"victimContract()": "f32d251d"
		}
	},
	"abi": [
		{
			"inputs": [
				{
					"internalType": "address",
					"name": "_victimContract",
					"type": "address"
				}
			],
			"stateMutability": "nonpayable",
			"type": "constructor"
		},
		{
			"inputs": [],
			"name": "victimContract",
			"outputs": [
				{
					"internalType": "contract CoinFlip",
					"name": "",
					"type": "address"
				}
			],
			"stateMutability": "view",
			"type": "function"
		}
	]
}